:020000040800F2
:1000000000100020411000082D1000082F100008DB
:1000100031100008331000083510000800000000FF
:100020000000000000000000000000003710000881
:1000300039100008000000003B1000083D100008C7
:1000400099100008991000089910000899100008EC
:1000500099100008991000089910000899100008DC
:1000600099100008991000089910000899100008CC
:1000700099100008991000089910000899100008BC
:10008000991000089910000899100008000000005D
:1000900000000000000000000000000099100008AF
:1000A000991000089910000899100008991000088C
:1000B000991000089910000800000000991000082D
:1000C00099100008000000000000000099100008CE
:1000D00000000000991000089910000800000000BE
:1000E00099100008991000089910000800000000FD
:1000F0000000000000000000000000000000000000
:1001000000000000000000000000000000000000EF
:10011000000000000000000099100008991000087D
:1001200000000000000000000000000000000000CF
:1001300000000000000000000000000000000000BF
:1001400000000000000000000000000000000000AF
:10015000000000000000000000000000000000009F
:10016000000000000000000000000000000000008F
:10017000000000000000000000000000000000007F
:10018000000000000000000000000000000000006F
:10019000000000000000000000000000000000005F
:1001A000000000000000000000000000000000004F
:1001B000000000000000000000000000000000003F
:1001C0000000000000000000000000005FF808F1DF
:1001D00010B5054C237833B9044810B10448AFF387
:1001E00000800121217010BD0000002000000000EF
:1001F0004417000808B5064B1BB106480649AFF383
:1002000000800648016811B1054A02B1904708BD57
:100210000000000044170008040000200000002037
:100220000000000081F0004102E000BF83F00043C5
:1002300030B54FEA41044FEA430594EA050F08BF81
:1002400090EA020F1FBF54EA000C55EA020C7FEA45
:10025000645C7FEA655C00F0E2804FEA5454D4EBC2
:100260005555B8BF6D420CDD2C4480EA020281EA8C
:10027000030382EA000083EA010180EA020281EAC4
:100280000303362D88BF30BD11F0004F4FEA013116
:100290004FF4801C4CEA113102D0404261EB410125
:1002A00013F0004F4FEA03334CEA133302D05242AB
:1002B00063EB430394EA050F00F0A780A4F1010467
:1002C000D5F1200E0DDB02FA0EFC22FA05F28018A1
:1002D00041F1000103FA0EF2801843FA05F3594187
:1002E0000EE0A5F120050EF1200E012A03FA0EFC06
:1002F00028BF4CF0020C43FA05F3C01851EBE37130
:1003000001F0004507D54FF0000EDCF1000C7EEB4C
:1003100000006EEB0101B1F5801F1BD3B1F5001F8A
:100320000CD349085FEA30004FEA3C0C04F10104A9
:100330004FEA445212F5800F80F09A80BCF1004FD2
:1003400008BF5FEA500C50F1000041EB045141EA54
:10035000050130BD5FEA4C0C404141EB010111F455
:10036000801FA4F10104E9D191F0000F04BF014600
:100370000020B1FA81F308BF2033A3F10B03B3F1DE
:1003800020020CDA0C3208DD02F1140CC2F10C026E
:1003900001FA0CF021FA02F10CE002F11402D8BFCC
:1003A000C2F1200C01FA02F120FA0CFCDCBF41EA98
:1003B0000C019040E41AA2BF01EB0451294330BD67
:1003C0006FEA04041F3C1CDA0C340EDC04F1140444
:1003D000C4F1200220FA04F001FA02F340EA03001B
:1003E00021FA04F345EA030130BDC4F10C04C4F161
:1003F000200220FA02F001FA04F340EA0300294641
:1004000030BD21FA04F0294630BD94F0000F83F48A
:10041000801306BF81F480110134013D4EE77FEA6D
:10042000645C18BF7FEA655C29D094EA050F08BFB9
:1004300090EA020F05D054EA000C04BF194610469A
:1004400030BD91EA030F1EBF0021002030BD5FEADE
:10045000545C05D14000494128BF41F0004130BD06
:1004600014F580043CBF01F5801130BD01F000455A
:1004700045F0FE4141F470014FF0000030BD7FEACD
:10048000645C1ABF194610467FEA655C1CBF0B46C8
:10049000024650EA013406BF52EA033591EA030FDF
:1004A00041F4002130BD00BF90F0000F04BF0021D7
:1004B000704730B54FF4806404F132044FF000050A
:1004C0004FF0000150E700BF90F0000F04BF002183
:1004D000704730B54FF4806404F1320410F00045E9
:1004E00048BF40424FF000013EE700BF42004FEAE4
:1004F000E2014FEA31014FEA02701FBF12F07F4361
:1005000093F07F4F81F06051704792F0000F14BF5D
:1005100093F07F4F704730B54FF4607401F00045A1
:1005200021F0004120E700BF50EA010208BF7047F8
:1005300030B54FF000050AE050EA010208BF7047ED
:1005400030B511F0004502D5404261EB41014FF456
:10055000806404F132045FEA915C3FF4DCAE4FF05A
:1005600003025FEADC0C18BF03325FEADC0C18BF41
:10057000033202EBDC02C2F1200300FA03FC20FA92
:1005800002F001FA03FE40EA0E0021FA02F11444DF
:10059000C1E600BF70B54FF0FF0C4CF4E06C1CEAF4
:1005A00011541DBF1CEA135594EA0C0F95EA0C0F69
:1005B00000F0DEF82C4481EA030621EA4C5123EADC
:1005C0004C5350EA013518BF52EA033541F480110B
:1005D00043F4801338D0A0FB02CE4FF00005E1FBBE
:1005E00002E506F00042E0FB03E54FF00006E1FB08
:1005F00003569CF0000F18BF4EF0010EA4F1FF044B
:10060000B6F5007F64F5407404D25FEA4E0E6D418A
:1006100046EB060642EAC62141EA55514FEAC5209B
:1006200040EA5E504FEACE2EB4F1FD0C88BFBCF517
:10063000E06F1ED8BEF1004F08BF5FEA500E50F1C8
:10064000000041EB045170BD06F0004646EA01018E
:1006500040EA020081EA0301B4EB5C04C2BFD4EBC0
:100660000C0541EA045170BD41F480114FF0000EB9
:10067000013C00F3AB8014F1360FDEBF002001F027
:10068000004170BDC4F10004203C35DA0C341BDCA1
:1006900004F11404C4F1200500FA05F320FA04F073
:1006A00001FA05F240EA020001F0004221F00041A7
:1006B00010EBD37021FA04F642EB06015EEA430E1A
:1006C00008BF20EAD37070BDC4F10C04C4F120054A
:1006D00000FA04F320FA05F001FA04F240EA0200FD
:1006E00001F0004110EBD37041F100015EEA430ECE
:1006F00008BF20EAD37070BDC4F1200500FA05F2EE
:100700004EEA020E20FA04F301FA05F243EA02036C
:1007100021FA04F001F0004121FA04F220EA02007B
:1007200000EBD3705EEA430E08BF20EAD37070BDC1
:1007300094F0000F0FD101F00046400041EB0101A1
:1007400011F4801F08BF013CF7D041EA060195F083
:10075000000F18BF704703F00046520043EB03033D
:1007600013F4801F08BF013DF7D043EA060370472A
:1007700094EA0C0F0CEA135518BF95EA0C0F0CD035
:1007800050EA410618BF52EA4306D1D181EA03017B
:1007900001F000414FF0000070BD50EA410606BF75
:1007A0001046194652EA430619D094EA0C0F02D1BA
:1007B00050EA013613D195EA0C0F05D152EA0336FF
:1007C0001CBF104619460AD181EA030101F000411D
:1007D00041F0FE4141F470014FF0000070BD41F066
:1007E000FE4141F4780170BD70B54FF0FF0C4CF440
:1007F000E06C1CEA11541DBF1CEA135594EA0C0F5F
:1008000095EA0C0F00F0A7F8A4EB050481EA030EAB
:1008100052EA03354FEA013100F088804FEA033392
:100820004FF0805545EA131343EA12634FEA022260
:1008300045EA111545EA10654FEA00260EF0004121
:100840009D4208BF964244F1FD0404F5407402D273
:100850005B084FEA3202B61A65EB03055B084FEA04
:1008600032024FF480104FF4002CB6EB020E75EB01
:10087000030E22BFB61A754640EA0C005B084FEA29
:100880003202B6EB020E75EB030E22BFB61A7546A6
:1008900040EA5C005B084FEA3202B6EB020E75EBF1
:1008A000030E22BFB61A754640EA9C005B084FEA69
:1008B0003202B6EB020E75EB030E22BFB61A754676
:1008C00040EADC0055EA060E18D04FEA051545EA65
:1008D00016754FEA06164FEAC30343EA52734FEA0E
:1008E000C2025FEA1C1CC0D111F4801F0BD141EA87
:1008F00000014FF000004FF0004CB6E711F4801FEC
:1009000004BF01430020B4F1FD0C88BFBCF5E06FCB
:100910003FF6AFAEB5EB030C04BFB6EB020C5FEADB
:10092000500C50F1000041EB045170BD0EF0004E30
:100930004EEA113114EB5C04C2BFD4EB0C0541EA62
:10094000045170BD41F480114FF0000E013C90E65F
:1009500045EA060E8DE60CEA135594EA0C0F08BF23
:1009600095EA0C0F3FF43BAF94EA0C0F0AD150EA22
:1009700001347FF434AF95EA0C0F7FF425AF1046B5
:1009800019462CE795EA0C0F06D152EA03353FF4DD
:10099000FDAE1046194622E750EA410618BF52EA5A
:1009A00043067FF4C5AE50EA41047FF40DAF52EA2E
:1009B00043057FF4EBAE12E74A0011D212F50012A4
:1009C00011D20DD56FF47873B3EB62520ED44FEAA7
:1009D000C12343F0004343EA505323FA02F0704727
:1009E0004FF00000704750EA013002D14FF0FF3065
:1009F00070474FF0000070474FEA4102B2F1E04308
:100A000024BFB3F5001CDCF1FE5C0DD901F0004CF5
:100A10004FEAC0024CEA5070B2F1004F40EB830045
:100A200008BF20F00100704711F0804F21D113F171
:100A30003872BCBF01F00040704741F480114FEAAA
:100A40005252C2F11802C2F1200C10FA0CF320FA33
:100A500002F018BF40F001004FEAC1234FEAD32350
:100A600003FA0CFC40EA0C0023FA02F34FEA4303BA
:100A7000CCE77FEA625307D150EA01331EBF4FF043
:100A8000FE4040F44000704701F0004040F0FE405E
:100A900040F40000704700BF80F0004002E000BF5B
:100AA00081F0004142001FBF5FEA410392EA030F59
:100AB0007FEA226C7FEA236C6AD04FEA1262D2EBA3
:100AC0001363C1BFD218414048404140B8BF5B42A8
:100AD000192B88BF704710F0004F40F4000020F041
:100AE0007F4018BF404211F0004F41F4000121F057
:100AF0007F4118BF494292EA030F3FD0A2F10102A1
:100B000041FA03FC10EB0C00C3F1200301FA03F1DE
:100B100000F0004302D5494260EB4000B0F5000F01
:100B200013D3B0F1807F06D340084FEA310102F1C0
:100B30000102FE2A51D2B1F1004F40EBC25008BF72
:100B400020F0010040EA03007047490040EB00003C
:100B500010F4000FA2F10102EDD1B0FA80FCACF16B
:100B6000080CB2EB0C0200FA0CF0AABF00EBC2506A
:100B700052421843BCBFD0401843704792F0000F58
:100B800081F4000106BF80F400000132013BB5E7AB
:100B90004FEA41037FEA226C18BF7FEA236C21D021
:100BA00092EA030F04D092F0000F08BF0846704786
:100BB00090EA010F1CBF0020704712F07F4F04D154
:100BC000400028BF40F00040704712F100723CBF67
:100BD00000F50000704700F0004343F0FE4040F491
:100BE000000070477FEA226216BF08467FEA23634F
:100BF0000146420206BF5FEA412390EA010F40F43A
:100C0000800070474FF0000304E000BF10F0004385
:100C100048BF40425FEA000C08BF704743F096436C
:100C200001464FF000001CE050EA010208BF704787
:100C30004FF000030AE000BF50EA010208BF70470E
:100C400011F0004302D5404261EB41015FEA010C23
:100C500002BF84460146002043F0B64308BFA3F11B
:100C60008053A3F50003BCFA8CF2083AA3EBC253FD
:100C700010DB01FA02FC634400FA02FCC2F120021C
:100C8000BCF1004F20FA02F243EB020008BF20F053
:100C90000100704702F1200201FA02FCC2F12002B9
:100CA00050EA4C0021FA02F243EB020008BF20EAAE
:100CB000DC7070474FF0FF0C1CEAD0521EBF1CEADC
:100CC000D15392EA0C0F93EA0C0F6FD01A4480EACA
:100CD000010C400218BF5FEA41211ED04FF00063B3
:100CE00043EA501043EA5111A0FB01310CF00040DF
:100CF000B1F5000F3EBF490041EAD3715B0040EA05
:100D0000010062F17F02FD2A1DD8B3F1004F40EBD4
:100D1000C25008BF20F00100704790F0000F0CF0A7
:100D2000004C08BF49024CEA502040EA51207F3A6B
:100D3000C2BFD2F1FF0340EAC250704740F4000046
:100D40004FF00003013A5DDC12F1190FDCBF00F037
:100D500000407047C2F10002410021FA02F1C2F1E5
:100D6000200200FA02FC5FEA310040F1000053EA81
:100D70004C0308BF20EADC70704792F0000F00F0CF
:100D8000004C02BF400010F4000F013AF9D040EAD5
:100D90000C0093F0000F01F0004C02BF490011F469
:100DA000000F013BF9D041EA0C018FE70CEAD15367
:100DB00092EA0C0F18BF93EA0C0F0AD030F0004CE7
:100DC00018BF31F0004CD8D180EA010000F000409B
:100DD000704790F0000F17BF90F0004F084691F059
:100DE000000F91F0004F14D092EA0C0F01D1420293
:100DF0000FD193EA0C0F03D14B0218BF084608D15C
:100E000080EA010000F0004040F0FE4040F40000A5
:100E1000704740F0FE4040F4400070474FF0FF0C38
:100E20001CEAD0521EBF1CEAD15392EA0C0F93EA7F
:100E30000C0F69D0A2EB030280EA010C49024FEAD1
:100E4000402037D04FF0805343EA111143EA10138A
:100E50000CF000408B4238BF5B0042F17D024FF442
:100E6000000C8B4224BF5B1A40EA0C00B3EB510F1D
:100E700024BFA3EB510340EA5C00B3EB910F24BF06
:100E8000A3EB910340EA9C00B3EBD10F24BFA3EB8B
:100E9000D10340EADC001B0118BF5FEA1C1CE0D153
:100EA000FD2A3FF650AF8B4240EBC25008BF20F006
:100EB000010070470CF0004C4CEA50207F32C2BF5A
:100EC000D2F1FF0340EAC250704740F400004FF0F7
:100ED0000003013A37E792F0000F00F0004C02BF28
:100EE000400010F4000F013AF9D040EA0C0093F0F2
:100EF000000F01F0004C02BF490011F4000F013B4C
:100F0000F9D041EA0C0195E70CEAD15392EA0C0FB3
:100F100008D142027FF47DAF93EA0C0F7FF470AFEB
:100F2000084676E793EA0C0F04D14B023FF44CAF2E
:100F300008466EE730F0004C18BF31F0004CCAD1C3
:100F400030F000427FF45CAF31F000437FF43CAFFF
:100F50005FE700BF324B82B01A6842F001001860B0
:100F60005968304A0A405A60186820F0847121F4A8
:100F700080321A60186820F4802119605A684FF492
:100F80001F0122F4FE00002258609960DA6200928C
:100F90000192186840F480311960214B1A6802F4FC
:100FA0000030019000994A1C0092019818B90099EC
:100FB000B1F5A06FF1D11B6813F4003218BF012204
:100FC00001920198012805D0174B4FF000629A60FA
:100FD00002B07047124B596859605A685A60586895
:100FE0005860596821F47C125A60586840F498118E
:100FF00059601A6842F0807018601968084A8901BF
:10100000FBD5536823F003005060516841F00203A0
:101010005360034A506800F00C010829F9D1D3E766
:10102000001002400000FFF800ED00E07047FEE70E
:10103000FEE7FEE7FEE77047704770477047000025
:10104000DFF83CD0002100F004B80E4B5B58435051
:1010500004310D480D4B42189A42FFF4F6AF0C4A8A
:1010600000F003B8002342F8043B0A4B9A42FFF415
:10107000F9AFFFF76FFF00F03FFB00F0E7F97047B3
:10108000001000206417000800000020000000206D
:101090000000002030000020FFF7FEBF10B50E4C0E
:1010A0004FF48051204600F087FA20464FF400614B
:1010B00000F082FA20464FF4806100F07DFA20466D
:1010C0004FF4007100F07AFA20464FF48071BDE8C9
:1010D000104000F073BA00BF0008014010B50E4C7C
:1010E0004FF48051204600F069FA20464FF4006129
:1010F00000F062FA20464FF4806100F05DFA20466D
:101100004FF4007100F05AFA20464FF48071BDE8A8
:10111000104000F053BA00BF0008014010B50E4C5B
:101120004FF48051204600F049FA20464FF4006108
:1011300000F044FA20464FF4806100F03DFA20466A
:101140004FF4007100F03AFA20464FF48071BDE888
:10115000104000F033BA00BF0008014010B50E4C3B
:101160004FF48051204600F029FA20464FF40061E8
:1011700000F024FA20464FF4806100F01DFA20466A
:101180004FF4007100F018FA20464FF48071BDE86A
:10119000104000F013BA00BF0008014010B50E4C1B
:1011A0004FF48051204600F009FA20464FF40061C8
:1011B00000F004FA20464FF4806100F0FDF920466B
:1011C0004FF4007100F0F8F920464FF48071BDE84B
:1011D000104000F0F1B900BF0008014010B50E4CFE
:1011E0004FF48051204600F0E9F920464FF40061A9
:1011F00000F0E4F920464FF4806100F0DFF920466A
:101200004FF4007100F0D8F920464FF48071BDE82A
:10121000104000F0D1B900BF0008014000000000FC
:101220002DE9F34101900198FFF760F942A3D3E95A
:101230000023FFF7D9FAFFF7DFFB0546FFF756F962
:101240003FA3D3E90023FFF7A5F9FFF7D5FB01463C
:101250002846FFF725FCFFF749F93BA3D3E9002314
:10126000FFF798F9FFF7C8FB044621462846FFF729
:1012700017FC21468046FFF713FC21460746FFF77F
:101280000FFC21460646FFF70BFC4FF08B4105464D
:101290004046FFF70FFDFFF729F92DA3D3E90023FF
:1012A000FFF7A2FAFFF788FB2B4B4FF08B4118603A
:1012B0003846FFF7FFFCFFF719F925A3D3E9002310
:1012C000FFF792FAFFF778FB244908604FF08B4153
:1012D0003046FFF7EFFCFFF709F91DA3D3E9002320
:1012E000FFF782FAFFF768FB1D4A4FF08B41106051
:1012F0002846FFF7DFFCFFF7F9F815A3D3E9002331
:10130000FFF772FAFFF758FB164B21461860284684
:10131000FFF7C6FB4FF08B41FFF7CCFCFFF7E6F879
:101320000BA3D3E90023FFF75FFAFFF745FB0E4954
:101330000860BDE8FC8100BFCDCCCCCCCCCC10404B
:10134000B81E85EB51B8E63F9A9999999999C93F8A
:101350006666666666660A402C0000201C00002057
:10136000200000202400002028000020AFF300808F
:1013700007B50121042000F0BBF801A800F014F922
:101380001020022141F67E738DF807008DF80610BB
:10139000034801A9ADF8043000F0B6F80EBD00BF57
:1013A0000008014070B5264886B0FFF739FF0121DB
:1013B000042000F09DF8684600F0F6F801240025AE
:1013C00020486946ADF800408DF8035000F09CF8C5
:1013D00021464FF4007000F08BF8284600F07EF8AC
:1013E0004FF46023184801A903938DF80940049530
:1013F00001958DF814408DF8085000F0E7F8124878
:1014000029462246022300F029F90F48214600F020
:1014100001F90D48264600F006F90B4800F008F9DE
:101420000028FAD1084800F007F9074800F009F948
:101430000128FAD00448012100F007F906B070BD78
:101440009A994941000801400024014007B5FFF77F
:101450008FFFFFF7A7FF1A487E21012200F0B0F8A6
:10146000002301931748184BC16C0191019A186829
:10147000824202D2FFF7B2FEF4E7144A01991368E0
:10148000994202D2FFF78AFEECE7114901980A68F7
:10149000904202D2FFF762FEE4E70E4B0198196812
:1014A000884202D2FFF73AFEDCE70B48019A036854
:1014B0009A4202D2FFF712FED4E7FFF7EFFDD1E721
:1014C00000080140002401402800002024000020E2
:1014D000200000201C0000202C000020034B5A6834
:1014E00022F4404108435860704700BF001002409A
:1014F000044B9A6909B1104301E022EA00009861A7
:10150000704700BF00100240CB78F0B5DA0648BF44
:101510008A78098803F00F0548BF154311F0FF0FC3
:101520001ED004680022012707FA02F707EA010625
:10153000BE4211D197004FF00F0C0CFA07FC05FAD0
:1015400007F724EA0C04282B44EA070401D146617A
:1015500002E0482B08BF06610132082AE3D104608B
:10156000FF2920D94468002202F10806012707FA62
:1015700006F707EA0106BE4211D197004FF00F0CA3
:101580000CFA07FC05FA07F724EA0C04282B44EAB6
:10159000070401D1466102E0482B08BF0661013211
:1015A000082AE1D14460F0BD4FF6FF730221042206
:1015B00003808170C270704701617047416170475C
:1015C0000AB101617047416170470000426810B57F
:1015D00022F470230A6823F4807444EA02030C792D
:1015E00043EA04224260CB688A6884681A43084B45
:1015F000234013434A7943EA42038360097CC26A69
:101600004B1E22F47002D9B242EA0152C26210BDEE
:10161000FDF7F1FF836811B143F0010101E023F010
:10162000010181607047836843F008018160704761
:101630008068C0F3C0007047836843F00401816094
:1016400070478068C0F380007047836811B143F42D
:10165000A00101E023F4A00181607047092970B561
:101660004FF003040CD94C4307251E3C05FA04F542
:1016700003FA04F3C66826EA05052B43C3600BE0B2
:101680004C43072505FA04F503FA04F3066926EA34
:10169000050545EA03040461062A4FF005030DD849
:1016A000013A53431F2202FA03F201FA03F1446B99
:1016B00024EA020242EA0103436370BD0C2A0DD8FA
:1016C00053431F22233B02FA03F201FA03F1046B96
:1016D00024EA020242EA0103036370BD53431F225E
:1016E000413B02FA03F201FA03F1C46A24EA02025E
:1016F0001143C16270BD000038B50E4D0E4B002481
:10170000E81A8510AC4205D00B4951F824209047C7
:101710000134F7E700F016F80849094A541AA510F1
:101720000024AC4205D0054B53F824008047013417
:10173000F7E738BD5C1700085C1700085C17000865
:1017400060170008F8B500BFF8BC08BC9E4670479B
:0C175000F8B500BFF8BC08BC9E4670470E
:04175C00F50100088B
:04176000D1010008AB
:04000005080010419E
:00000001FF
