:020000040800F2
:1000000000100020411000082D1000082F100008DB
:1000100031100008331000083510000800000000FF
:100020000000000000000000000000003710000881
:1000300039100008000000003B1000083D100008C7
:1000400099100008991000089910000899100008EC
:1000500099100008991000089910000899100008DC
:1000600099100008991000089910000899100008CC
:1000700099100008991000089910000899100008BC
:10008000991000089910000899100008000000005D
:1000900000000000000000000000000099100008AF
:1000A000991000089910000899100008991000088C
:1000B0009D12000899100008000000009910000827
:1000C00099100008000000000000000099100008CE
:1000D00000000000991000089910000800000000BE
:1000E00099100008991000089910000800000000FD
:1000F0000000000000000000000000000000000000
:1001000000000000000000000000000000000000EF
:10011000000000000000000099100008991000087D
:1001200000000000000000000000000000000000CF
:1001300000000000000000000000000000000000BF
:1001400000000000000000000000000000000000AF
:10015000000000000000000000000000000000009F
:10016000000000000000000000000000000000008F
:10017000000000000000000000000000000000007F
:10018000000000000000000000000000000000006F
:10019000000000000000000000000000000000005F
:1001A000000000000000000000000000000000004F
:1001B000000000000000000000000000000000003F
:1001C0000000000000000000000000005FF808F1DF
:1001D00010B5054C237833B9044810B10448AFF387
:1001E00000800121217010BD4800002000000000A7
:1001F000BC28000808B5064B1BB106480649AFF3FA
:1002000000800648016811B1054A02B1904708BD57
:1002100000000000BC2800084C000020480000201E
:100220000000000081F0004102E000BF83F00043C5
:1002300030B54FEA41044FEA430594EA050F08BF81
:1002400090EA020F1FBF54EA000C55EA020C7FEA45
:10025000645C7FEA655C00F0E2804FEA5454D4EBC2
:100260005555B8BF6D420CDD2C4480EA020281EA8C
:10027000030382EA000083EA010180EA020281EAC4
:100280000303362D88BF30BD11F0004F4FEA013116
:100290004FF4801C4CEA113102D0404261EB410125
:1002A00013F0004F4FEA03334CEA133302D05242AB
:1002B00063EB430394EA050F00F0A780A4F1010467
:1002C000D5F1200E0DDB02FA0EFC22FA05F28018A1
:1002D00041F1000103FA0EF2801843FA05F3594187
:1002E0000EE0A5F120050EF1200E012A03FA0EFC06
:1002F00028BF4CF0020C43FA05F3C01851EBE37130
:1003000001F0004507D54FF0000EDCF1000C7EEB4C
:1003100000006EEB0101B1F5801F1BD3B1F5001F8A
:100320000CD349085FEA30004FEA3C0C04F10104A9
:100330004FEA445212F5800F80F09A80BCF1004FD2
:1003400008BF5FEA500C50F1000041EB045141EA54
:10035000050130BD5FEA4C0C404141EB010111F455
:10036000801FA4F10104E9D191F0000F04BF014600
:100370000020B1FA81F308BF2033A3F10B03B3F1DE
:1003800020020CDA0C3208DD02F1140CC2F10C026E
:1003900001FA0CF021FA02F10CE002F11402D8BFCC
:1003A000C2F1200C01FA02F120FA0CFCDCBF41EA98
:1003B0000C019040E41AA2BF01EB0451294330BD67
:1003C0006FEA04041F3C1CDA0C340EDC04F1140444
:1003D000C4F1200220FA04F001FA02F340EA03001B
:1003E00021FA04F345EA030130BDC4F10C04C4F161
:1003F000200220FA02F001FA04F340EA0300294641
:1004000030BD21FA04F0294630BD94F0000F83F48A
:10041000801306BF81F480110134013D4EE77FEA6D
:10042000645C18BF7FEA655C29D094EA050F08BFB9
:1004300090EA020F05D054EA000C04BF194610469A
:1004400030BD91EA030F1EBF0021002030BD5FEADE
:10045000545C05D14000494128BF41F0004130BD06
:1004600014F580043CBF01F5801130BD01F000455A
:1004700045F0FE4141F470014FF0000030BD7FEACD
:10048000645C1ABF194610467FEA655C1CBF0B46C8
:10049000024650EA013406BF52EA033591EA030FDF
:1004A00041F4002130BD00BF90F0000F04BF0021D7
:1004B000704730B54FF4806404F132044FF000050A
:1004C0004FF0000150E700BF90F0000F04BF002183
:1004D000704730B54FF4806404F1320410F00045E9
:1004E00048BF40424FF000013EE700BF42004FEAE4
:1004F000E2014FEA31014FEA02701FBF12F07F4361
:1005000093F07F4F81F06051704792F0000F14BF5D
:1005100093F07F4F704730B54FF4607401F00045A1
:1005200021F0004120E700BF50EA010208BF7047F8
:1005300030B54FF000050AE050EA010208BF7047ED
:1005400030B511F0004502D5404261EB41014FF456
:10055000806404F132045FEA915C3FF4DCAE4FF05A
:1005600003025FEADC0C18BF03325FEADC0C18BF41
:10057000033202EBDC02C2F1200300FA03FC20FA92
:1005800002F001FA03FE40EA0E0021FA02F11444DF
:10059000C1E600BF70B54FF0FF0C4CF4E06C1CEAF4
:1005A00011541DBF1CEA135594EA0C0F95EA0C0F69
:1005B00000F0DEF82C4481EA030621EA4C5123EADC
:1005C0004C5350EA013518BF52EA033541F480110B
:1005D00043F4801338D0A0FB02CE4FF00005E1FBBE
:1005E00002E506F00042E0FB03E54FF00006E1FB08
:1005F00003569CF0000F18BF4EF0010EA4F1FF044B
:10060000B6F5007F64F5407404D25FEA4E0E6D418A
:1006100046EB060642EAC62141EA55514FEAC5209B
:1006200040EA5E504FEACE2EB4F1FD0C88BFBCF517
:10063000E06F1ED8BEF1004F08BF5FEA500E50F1C8
:10064000000041EB045170BD06F0004646EA01018E
:1006500040EA020081EA0301B4EB5C04C2BFD4EBC0
:100660000C0541EA045170BD41F480114FF0000EB9
:10067000013C00F3AB8014F1360FDEBF002001F027
:10068000004170BDC4F10004203C35DA0C341BDCA1
:1006900004F11404C4F1200500FA05F320FA04F073
:1006A00001FA05F240EA020001F0004221F00041A7
:1006B00010EBD37021FA04F642EB06015EEA430E1A
:1006C00008BF20EAD37070BDC4F10C04C4F120054A
:1006D00000FA04F320FA05F001FA04F240EA0200FD
:1006E00001F0004110EBD37041F100015EEA430ECE
:1006F00008BF20EAD37070BDC4F1200500FA05F2EE
:100700004EEA020E20FA04F301FA05F243EA02036C
:1007100021FA04F001F0004121FA04F220EA02007B
:1007200000EBD3705EEA430E08BF20EAD37070BDC1
:1007300094F0000F0FD101F00046400041EB0101A1
:1007400011F4801F08BF013CF7D041EA060195F083
:10075000000F18BF704703F00046520043EB03033D
:1007600013F4801F08BF013DF7D043EA060370472A
:1007700094EA0C0F0CEA135518BF95EA0C0F0CD035
:1007800050EA410618BF52EA4306D1D181EA03017B
:1007900001F000414FF0000070BD50EA410606BF75
:1007A0001046194652EA430619D094EA0C0F02D1BA
:1007B00050EA013613D195EA0C0F05D152EA0336FF
:1007C0001CBF104619460AD181EA030101F000411D
:1007D00041F0FE4141F470014FF0000070BD41F066
:1007E000FE4141F4780170BD70B54FF0FF0C4CF440
:1007F000E06C1CEA11541DBF1CEA135594EA0C0F5F
:1008000095EA0C0F00F0A7F8A4EB050481EA030EAB
:1008100052EA03354FEA013100F088804FEA033392
:100820004FF0805545EA131343EA12634FEA022260
:1008300045EA111545EA10654FEA00260EF0004121
:100840009D4208BF964244F1FD0404F5407402D273
:100850005B084FEA3202B61A65EB03055B084FEA04
:1008600032024FF480104FF4002CB6EB020E75EB01
:10087000030E22BFB61A754640EA0C005B084FEA29
:100880003202B6EB020E75EB030E22BFB61A7546A6
:1008900040EA5C005B084FEA3202B6EB020E75EBF1
:1008A000030E22BFB61A754640EA9C005B084FEA69
:1008B0003202B6EB020E75EB030E22BFB61A754676
:1008C00040EADC0055EA060E18D04FEA051545EA65
:1008D00016754FEA06164FEAC30343EA52734FEA0E
:1008E000C2025FEA1C1CC0D111F4801F0BD141EA87
:1008F00000014FF000004FF0004CB6E711F4801FEC
:1009000004BF01430020B4F1FD0C88BFBCF5E06FCB
:100910003FF6AFAEB5EB030C04BFB6EB020C5FEADB
:10092000500C50F1000041EB045170BD0EF0004E30
:100930004EEA113114EB5C04C2BFD4EB0C0541EA62
:10094000045170BD41F480114FF0000E013C90E65F
:1009500045EA060E8DE60CEA135594EA0C0F08BF23
:1009600095EA0C0F3FF43BAF94EA0C0F0AD150EA22
:1009700001347FF434AF95EA0C0F7FF425AF1046B5
:1009800019462CE795EA0C0F06D152EA03353FF4DD
:10099000FDAE1046194622E750EA410618BF52EA5A
:1009A00043067FF4C5AE50EA41047FF40DAF52EA2E
:1009B00043057FF4EBAE12E74A0011D212F50012A4
:1009C00011D20DD56FF47873B3EB62520ED44FEAA7
:1009D000C12343F0004343EA505323FA02F0704727
:1009E0004FF00000704750EA013002D14FF0FF3065
:1009F00070474FF0000070474FEA4102B2F1E04308
:100A000024BFB3F5001CDCF1FE5C0DD901F0004CF5
:100A10004FEAC0024CEA5070B2F1004F40EB830045
:100A200008BF20F00100704711F0804F21D113F171
:100A30003872BCBF01F00040704741F480114FEAAA
:100A40005252C2F11802C2F1200C10FA0CF320FA33
:100A500002F018BF40F001004FEAC1234FEAD32350
:100A600003FA0CFC40EA0C0023FA02F34FEA4303BA
:100A7000CCE77FEA625307D150EA01331EBF4FF043
:100A8000FE4040F44000704701F0004040F0FE405E
:100A900040F40000704700BF80F0004002E000BF5B
:100AA00081F0004142001FBF5FEA410392EA030F59
:100AB0007FEA226C7FEA236C6AD04FEA1262D2EBA3
:100AC0001363C1BFD218414048404140B8BF5B42A8
:100AD000192B88BF704710F0004F40F4000020F041
:100AE0007F4018BF404211F0004F41F4000121F057
:100AF0007F4118BF494292EA030F3FD0A2F10102A1
:100B000041FA03FC10EB0C00C3F1200301FA03F1DE
:100B100000F0004302D5494260EB4000B0F5000F01
:100B200013D3B0F1807F06D340084FEA310102F1C0
:100B30000102FE2A51D2B1F1004F40EBC25008BF72
:100B400020F0010040EA03007047490040EB00003C
:100B500010F4000FA2F10102EDD1B0FA80FCACF16B
:100B6000080CB2EB0C0200FA0CF0AABF00EBC2506A
:100B700052421843BCBFD0401843704792F0000F58
:100B800081F4000106BF80F400000132013BB5E7AB
:100B90004FEA41037FEA226C18BF7FEA236C21D021
:100BA00092EA030F04D092F0000F08BF0846704786
:100BB00090EA010F1CBF0020704712F07F4F04D154
:100BC000400028BF40F00040704712F100723CBF67
:100BD00000F50000704700F0004343F0FE4040F491
:100BE000000070477FEA226216BF08467FEA23634F
:100BF0000146420206BF5FEA412390EA010F40F43A
:100C0000800070474FF0000304E000BF10F0004385
:100C100048BF40425FEA000C08BF704743F096436C
:100C200001464FF000001CE050EA010208BF704787
:100C30004FF000030AE000BF50EA010208BF70470E
:100C400011F0004302D5404261EB41015FEA010C23
:100C500002BF84460146002043F0B64308BFA3F11B
:100C60008053A3F50003BCFA8CF2083AA3EBC253FD
:100C700010DB01FA02FC634400FA02FCC2F120021C
:100C8000BCF1004F20FA02F243EB020008BF20F053
:100C90000100704702F1200201FA02FCC2F12002B9
:100CA00050EA4C0021FA02F243EB020008BF20EAAE
:100CB000DC7070474FF0FF0C1CEAD0521EBF1CEADC
:100CC000D15392EA0C0F93EA0C0F6FD01A4480EACA
:100CD000010C400218BF5FEA41211ED04FF00063B3
:100CE00043EA501043EA5111A0FB01310CF00040DF
:100CF000B1F5000F3EBF490041EAD3715B0040EA05
:100D0000010062F17F02FD2A1DD8B3F1004F40EBD4
:100D1000C25008BF20F00100704790F0000F0CF0A7
:100D2000004C08BF49024CEA502040EA51207F3A6B
:100D3000C2BFD2F1FF0340EAC250704740F4000046
:100D40004FF00003013A5DDC12F1190FDCBF00F037
:100D500000407047C2F10002410021FA02F1C2F1E5
:100D6000200200FA02FC5FEA310040F1000053EA81
:100D70004C0308BF20EADC70704792F0000F00F0CF
:100D8000004C02BF400010F4000F013AF9D040EAD5
:100D90000C0093F0000F01F0004C02BF490011F469
:100DA000000F013BF9D041EA0C018FE70CEAD15367
:100DB00092EA0C0F18BF93EA0C0F0AD030F0004CE7
:100DC00018BF31F0004CD8D180EA010000F000409B
:100DD000704790F0000F17BF90F0004F084691F059
:100DE000000F91F0004F14D092EA0C0F01D1420293
:100DF0000FD193EA0C0F03D14B0218BF084608D15C
:100E000080EA010000F0004040F0FE4040F40000A5
:100E1000704740F0FE4040F4400070474FF0FF0C38
:100E20001CEAD0521EBF1CEAD15392EA0C0F93EA7F
:100E30000C0F69D0A2EB030280EA010C49024FEAD1
:100E4000402037D04FF0805343EA111143EA10138A
:100E50000CF000408B4238BF5B0042F17D024FF442
:100E6000000C8B4224BF5B1A40EA0C00B3EB510F1D
:100E700024BFA3EB510340EA5C00B3EB910F24BF06
:100E8000A3EB910340EA9C00B3EBD10F24BFA3EB8B
:100E9000D10340EADC001B0118BF5FEA1C1CE0D153
:100EA000FD2A3FF650AF8B4240EBC25008BF20F006
:100EB000010070470CF0004C4CEA50207F32C2BF5A
:100EC000D2F1FF0340EAC250704740F400004FF0F7
:100ED0000003013A37E792F0000F00F0004C02BF28
:100EE000400010F4000F013AF9D040EA0C0093F0F2
:100EF000000F01F0004C02BF490011F4000F013B4C
:100F0000F9D041EA0C0195E70CEAD15392EA0C0FB3
:100F100008D142027FF47DAF93EA0C0F7FF470AFEB
:100F2000084676E793EA0C0F04D14B023FF44CAF2E
:100F300008466EE730F0004C18BF31F0004CCAD1C3
:100F400030F000427FF45CAF31F000437FF43CAFFF
:100F50005FE700BF324B82B01A6842F001001860B0
:100F60005968304A0A405A60186820F0847121F4A8
:100F700080321A60186820F4802119605A684FF492
:100F80001F0122F4FE00002258609960DA6200928C
:100F90000192186840F480311960214B1A6802F4FC
:100FA0000030019000994A1C0092019818B90099EC
:100FB000B1F5A06FF1D11B6813F4003218BF012204
:100FC00001920198012805D0174B4FF000629A60FA
:100FD00002B07047124B596859605A685A60586895
:100FE0005860596821F47C125A60586840F498118E
:100FF00059601A6842F0807018601968084A8901BF
:10100000FBD5536823F003005060516841F00203A0
:101010005360034A506800F00C010829F9D1D3E766
:10102000001002400000FFF800ED00E07047FEE70E
:10103000FEE7FEE7FEE77047704770477047000025
:10104000DFF83CD0002100F004B80E4B5B58435051
:1010500004310D480D4B42189A42FFF4F6AF0C4A8A
:1010600000F003B8002342F8043B0A4B9A42FFF415
:10107000F9AFFFF76FFF01F0FBFB01F0F9F87047E4
:1010800000100020DC28000800000020480000209C
:101090004800002080000020FFF7FEBF10B5134C71
:1010A0003521204601F066F92046802104F54044B0
:1010B00001F06EF920464FF4805101F0EFFA20461E
:1010C0004FF4006101F0EAFA20464FF4806101F02C
:1010D000E5FA20464FF4007101F0E2FA20464FF4A1
:1010E0008071BDE8104001F0DBBA00BF004800404D
:1010F00010B5134C3421204601F03CF920468021E4
:1011000004F5404401F044F920464FF4805101F0C9
:10111000C7FA20464FF4006101F0C0FA20464FF4B0
:10112000806101F0BBFA20464FF4007101F0B8FA7B
:1011300020464FF48071BDE8104001F0B1BA00BF05
:101140000048004010B5134C3321204601F012F93D
:101150002046802104F5404401F01AF920464FF45E
:10116000805101F09DFA20464FF4006101F098FA99
:1011700020464FF4806101F091FA20464FF400714F
:1011800001F08EFA20464FF48071BDE8104001F066
:1011900087BA00BF0048004010B5134C32212046EA
:1011A00001F0E8F82046802104F5404401F0F0F811
:1011B00020464FF4805101F073FA20464FF400614D
:1011C00001F06EFA20464FF4806101F067FA204684
:1011D0004FF4007101F062FA20464FF48071BDE8CF
:1011E000104001F05DBA00BF0048004010B5134C3C
:1011F0003121204601F0BEF82046802104F540440C
:1012000001F0C6F820464FF4805101F049FA20461B
:101210004FF4006101F044FA20464FF4806101F080
:101220003DFA20464FF4007101F038FA20464FF4A1
:101230008071BDE8104001F031BA00BF00480040A5
:1012400010B5144C144B0122204630211A7001F0C5
:1012500091F82046802104F5404401F099F8204699
:101260004FF4805101F01CFA20464FF4006101F068
:1012700017FA20464FF4806101F012FA20464FF42D
:10128000007101F00BFA20464FF48071BDE8104068
:1012900001F004BA00480040300000204FF08040C8
:1012A00010B5012101F0D7F8614B1868002839D139
:1012B00060490A78002A35D05F48022101F0EEF932
:1012C0005D484FF4805101F0E9F95B484FF48041EB
:1012D00001F0E4F95848202101F0E0F95648402196
:1012E00001F0DCF954484FF4807101F0D7F952480D
:1012F000012101F0D3F95048042101F0CFF94E4803
:101300004FF4005101F0CAF94B484FF4004101F08D
:10131000C5F94948802101F0C1F947484FF40071EF
:1013200001F0BCF9424C454A2368581C20602168F2
:101330001368994203DD4048022101F0B1F94049A8
:1013400020680A68904204DD3B484FF4805101F068
:10135000A7F9374B3B481C6801688C421C4604DDEA
:1013600035484FF4804101F09BF9374B22681868EB
:10137000824203DD3048202101F092F92C4C334A9F
:1013800021681368994203DD2B48402101F088F958
:101390002F4920680A68904204DD27484FF4807185
:1013A00001F07EF9224B2B481C6801688C421C46D8
:1013B00003DD2148012101F073F9274B22681868E9
:1013C000824203DD1C48042101F06AF9184C234ACB
:1013D00021681368994204DD17484FF4005101F069
:1013E0005FF91F4920680A68904204DD12484FF4F3
:1013F000004101F055F90E4B1A481C6801688C42F7
:101400001C4603DD0C48802101F04AF9164B226886
:101410001868824204DD08484FF4007101F040F979
:1014200003490A68B2F5FA6F01DB00230B6010BDB7
:101430006800002030000020000C01401400002053
:1014400018000020200000202C00002004000020B4
:101450000C00002008000020100000201C000020CC
:101460000000002024000020280000202DE9F04189
:101470001F4600F020039046DAB2069E079D089CA6
:101480000AB101230B6000F01002D3B213B10122A4
:10149000C8F8002000F00803DAB20AB101233B606B
:1014A00000F00402D3B20BB10122326000F002035B
:1014B000DAB20AB101232B60C30701D501202060F5
:1014C0000A681C48022112B101F0E8F801E001F0BD
:1014D000E7F8D8F800301748082113B101F0DEF81A
:1014E00001E001F0DDF83A681248202112B101F064
:1014F000D5F801E001F0D4F833680E48402113B16B
:1015000001F0CCF801E001F0CBF82A68094810217D
:1015100012B101F0C3F801E001F0C2F823680548F8
:1015200004211BB1BDE8F04101F0B8B8BDE8F041BD
:1015300001F0B6B80008014030B5082087B001219D
:10154000294C01F021F818204FF480638DF8030036
:10155000032520466946ADF800308DF8025001F0B1
:101560003FF84FF400614822ADF80010204669466C
:101570008DF803208DF8025001F032F801214FF46C
:10158000802001F00DF8A4F5444400210C204FF414
:101590001653ADF81200ADF81010ADF80E10ADF8FE
:1015A0000C10ADF81410204602A9029300F07EFE44
:1015B0002046012100F0D2FE0121102000F0E4FFBE
:1015C00001A801F05DF802204FF4005204238DF8C9
:1015D000060001A90548ADF804208DF8073000F099
:1015E000FFFF07B030BD00BF000C014000100140FC
:1015F0001FB50120014600F0D3FF372204A90A20BD
:10160000002321F80C2DADF808004FF080401C4657
:10161000ADF80A30ADF8063000F0BEFE01214FF003
:10162000804000F018FF01210A464FF0804000F092
:1016300009FF01214FF0804000F0F8FE1C2101233A
:1016400068468DF800108DF803308DF801408DF854
:10165000024001F0D9F81FBD08B5102001F032F8A2
:10166000022001F025F8002000F01CFF002000F00F
:101670002DFF4FF4806000F01FFF00204FF4401159
:1016800000F0EEFE012000F0F5FE392000F094FF9E
:101690000028FAD0022000F0F3FE00F0FBFE08283C
:1016A000FBD108BD000000002DE9F3410190019835
:1016B000FEF71CFF42A3D3E90023FFF795F8FFF7DD
:1016C0009BF90546FEF712FF3FA3D3E90023FEF77F
:1016D00061FFFFF791F901462846FFF7E1F9FEF7B0
:1016E00005FF3BA3D3E90023FEF754FFFFF784F97E
:1016F000044621462846FFF7D3F921468046FFF7E6
:10170000CFF921460746FFF7CBF921460646FFF7FA
:10171000C7F94FF08B4105464046FFF7CBFAFEF77D
:10172000E5FE2DA3D3E90023FFF75EF8FFF744F9A8
:101730002B4B4FF08B4118603846FFF7BBFAFEF792
:10174000D5FE25A3D3E90023FFF74EF8FFF734F9C0
:10175000244908604FF08B413046FFF7ABFAFEF7A3
:10176000C5FE1DA3D3E90023FFF73EF8FFF724F9D8
:101770001D4A4FF08B4110602846FFF79BFAFEF799
:10178000B5FE15A3D3E90023FFF72EF8FFF714F9F0
:10179000164B214618602846FFF782F94FF08B411F
:1017A000FFF788FAFEF7A2FE0BA3D3E90023FFF7A9
:1017B0001BF8FFF701F90E490860BDE8FC8100BF86
:1017C000CDCCCCCCCCCC1040B81E85EB51B8E63F8C
:1017D0009A9999999999C93F6666666666660A40BC
:1017E0007C0000206C0000207000002074000020AD
:1017F00078000020AFF3008007B50121042000F03D
:10180000C3FE01A800F03CFF1020022141F67E73C8
:101810008DF807008DF80610034801A9ADF80430D3
:1018200000F0DEFE0EBD00BF0008014007B501213B
:10183000082000F0A9FE01A800F022FF10200221DC
:101840004FF2E7338DF807008DF80610034801A921
:10185000ADF8043000F0C4FE0EBD00BF000C014026
:1018600070B5264886B0FFF71FFF0121042000F065
:101870008BFE684600F004FF0124002520486946DD
:10188000ADF800408DF8035000F0AAFE21464FF459
:10189000007000F079FE284600F022FE4FF460232D
:1018A000184801A903938DF80940049501958DF816
:1018B00014408DF8085000F011FF124829462246C6
:1018C000022300F053FF0F48214600F02BFF0D4884
:1018D000264600F030FF0B4800F032FF0028FAD116
:1018E000084800F031FF074800F033FF0128FAD024
:1018F0000448012100F031FF06B070BD000018411E
:10190000000801400024014082B00190019B41F297
:101910008832534301930198411E01910028FAD166
:1019200002B0704738B50C4D0C4B7E2101220024CB
:1019300028461C6000F0B6FE4FF4FA70FFF7E4FF93
:1019400028467E21224600F0ADFE4FF4FA70BDE835
:101950003840FFF7D9BF00BF0008014064000020F5
:1019600008B505484FF4005100F092FE18B9BDE8E3
:101970000840FFF7D7BF08BD0010014010B51D4B50
:101980001D4C01221A60204600227E2100F08AFEB2
:101990000221204600F082FEC820FFF7B5FF082193
:1019A000204600F07BFEC820FFF7AEFF2021204636
:1019B00000F074FEC820FFF7A7FF4021204600F08A
:1019C0006DFEC820FFF7A0FF1021204600F066FE44
:1019D000C820FFF799FF0421204600F05FFEC820D1
:1019E000FFF792FF20467E210022BDE8104000F064
:1019F00059BE00BF640000200008014008B5074838
:101A00004FF4005100F044FE012803D1BDE8084026
:101A1000FFF7B4BFBDE80840FFF784BF00100140E6
:101A20002DE9F04F092A8BB0D4BF22EAE27A4FF0B9
:101A3000090A8846002207AB08A909AC049205925E
:101A4000069207920892099200930191029404A9C8
:101A500005AA06ABCAF1090AFFF708FD18F1320F13
:101A60004FEA4A0A05DBB8F1500FA8BF4FF0500803
:101A700001E06FF03108049DA8F128002DB1754EEA
:101A80003768C7F19609814400E0A946059A2AB152
:101A9000714B1968C1F1960B834400E09346069D93
:101AA00025B16E4C2568C5F17D06351A079E26B115
:101AB0006B4F3A68C2F19403C618089F27B1694971
:101AC0000C68C4F17A073F1A099A32B1664B19685B
:101AD000C1F17D0CC0EB0C0800E09046B9F1000F9D
:101AE00007DCC9F100032BB1B9F1000F08BF0023D7
:101AF00000E04B469B4508DCCBF10000984205DD39
:101B000033EA2B0328BF034600E05B469D4201DD1C
:101B1000002D07DC6C429C4205DD33EA250328BF1B
:101B2000234600E02B469E4201DD002E07DC724278
:101B30009A4205DD33EA260328BF134600E0334608
:101B40009F4201DD002F07DC7942994205DD33EA2F
:101B5000270328BF0B4600E03B46984502DDB8F15D
:101B6000000F08DCC8F100049C4206DD14EA2804DA
:101B700038BF1C460BE0444609E01C4607E0C8F1AC
:101B80000003A3425ADA5046FFF7BEFE013C002C88
:101B90005CDDA14503DB2F490868431C09E0C9F15E
:101BA0000000A04206DBB9F1000F03DA29490A68F8
:101BB000531E0B60A34503DB274B1968481C09E043
:101BC000CBF10001A14206DBBBF1000F03DA224B8F
:101BD0001A68501E1860A54203DB20480368591C90
:101BE00007E06B42A34205DB002D03DA1B480268C5
:101BF000511E0160A64203DB19490868431C07E037
:101C00007042A04205DB002E03DA15490A68531E14
:101C10000B60A74203DB134B1968481C07E07942AD
:101C2000A14205DB002F03DA0E4B1A68501E186024
:101C3000A045A4DB0C480368591C05E0B8F1000F6F
:101C4000A1DA09480268511E01609CE70BB0BDE8AB
:101C5000F08F00BF1400002018000020200000209A
:101C60002C000020040000200C0000202DE9F04F83
:101C7000092A8BB0D4BF22EAE27209221E46C2F1C1
:101C8000090207AB0C4609AF08A900254FEA420933
:101C900000930191029704A905AA06AB0495059546
:101CA0000695079508950995FFF7E0FB5EBB049F35
:101CB00037B18E4E3368C3F1960C04EB0C0A00E08A
:101CC000B246059931B18A480568C5F1960E04EB14
:101CD0000E0B00E08B46069E26B1864A1768C7F1B8
:101CE0009606A619079F27B1834B1968C1F1960084
:101CF000071B0898002831D0804D2A68C2F1960849
:101D0000C4EB08082BE0012E36D1049830B1774D92
:101D10002E68C6F1960AC4EB0A0A00E08246059ACC
:101D20002AB1734B1968C1F1960BA34400E09346A6
:101D3000069E26B16F4F3868C0F196052E1B079F8F
:101D400027B16D4A1368C3F196010F1B089828B19B
:101D50006A4D2A68C2F19608A04400E08046099DB9
:101D600025B1674B1968C1F19600051BBAF1000F48
:101D7000C8BF54460CDC04E0A8462F462E46AB46AE
:101D8000AA46CAF100041CB1BAF1000F08BF002432
:101D9000A34508DCCBF10002A24205DD34EA2B04A6
:101DA00028BF144600E05C46A64201DD002E07DC99
:101DB0007342A34205DD34EA260428BF1C4600E036
:101DC0003446A74201DD002F07DC7942A14205DD40
:101DD00034EA270428BF0C4600E03C46A04502DD5B
:101DE000B8F1000F08DCC8F10000A04205DD34EABC
:101DF000280428BF044600E04446A54201DD002D2A
:101E000007DC6A42A2420DDD34EA250428BF1446ED
:101E100008E02C4606E06842A0425CDA4846FFF73C
:101E200073FD013C002C5DDDA24503DB2F490B68EF
:101E30005A1C09E0CAF10003A34206DBBAF1000F05
:101E400003DA2A490868421E0A60A34503DB2848D2
:101E500001684B1C09E0CBF10001A14206DBBBF19C
:101E6000000F03DA22480268531E0360A64203DB18
:101E7000204B1868411C07E07042A04205DB002E91
:101E800003DA1C4B1A68511E1960A74203DB1A497A
:101E90000B68581C07E07B42A34205DB002F03DAE6
:101EA00015490A68501E0860A04503DB1348016805
:101EB0004B1C09E0C8F10001A14206DBB8F1000F9C
:101EC00003DA0E480268531E0360A542A3DB0C4BE5
:101ED0001868411C04E0002DA0DA094B1A68511E55
:101EE00019609BE70BB0BDE8F08F00BF0800002031
:101EF000100000201C000020000000202400002012
:101F00002800002010B5044619212A202246FFF798
:101F100087FD01233F2019212246FFF7A7FE2A2033
:101F200000212246FFF77CFD152019212246FFF7EC
:101F300077FD3F2022466FF018010123FFF796FE40
:101F4000152000212246BDE81040FFF769BD10B5FD
:101F50000828B4BF0446082419212A202246FFF786
:101F60005FFD01233F2022466FF01801FFF77EFE40
:101F70002A2000212246FFF753FD15201921224671
:101F8000FFF74EFD3F20192122460123FFF76EFE89
:101F9000152000212246BDE81040FFF741BD10B5D5
:101FA0000928B4BF04460924192101202246FFF75D
:101FB00037FD00210B4601202246FFF757FE012086
:101FC00000212246FFF72CFD022019212246FFF7AF
:101FD00027FD00210B4602202246FFF747FE022084
:101FE00000212246FFF71CFD042019212246FFF79D
:101FF00017FD00210B4604202246FFF737FE042080
:1020000000212246FFF70CFD082019212246FFF788
:1020100007FD00210B4622460820FFF727FE082077
:1020200000212246FFF7FCFC102019212246FFF771
:10203000F7FC00210B4610202246FFF717FE102068
:1020400000212246FFF7ECFC202019212246FFF751
:10205000E7FC0021202022460B46FFF707FE202048
:1020600000212246BDE81040FFF7DABC2DE9F0411F
:102070005E48202100F086F9002800F0B5805B481A
:1020800000F07CF9C0F38F1000286BD15748202155
:1020900000F07EF9554800F071F9044653482021BC
:1020A00000F070F90028F9D0504800F067F9C0F34B
:1020B0008F12022A72D14D48202100F069F94B4855
:1020C00000F05CF907464948202100F05BF9002840
:1020D000F9D0464800F052F9C0F38F1002285DD1C4
:1020E0002021424800F054F9404800F047F90646E4
:1020F0003E4800F043F980463C48202100F042F978
:102100000028F9D0394800F039F9C0F38F13032BB8
:1021100044D12021354800F03BF9344800F02EF935
:10212000334900F0010531480D7000F027F908F03F
:102130001F08C0F3440504F03F044FEA480120465D
:102140001E392A460023FFF791FD07F03F02530096
:10215000323BC6F34016204699192A46BDE8F041A5
:10216000FFF75EBC214800F009F9C0F38F11012987
:1021700014D11E48202100F00BF91C4800F0FEF895
:1021800004461A48202100F0FDF80028F9D017482D
:1021900000F0F4F8C0F38F12032A05D01348202171
:1021A000BDE8F04100F0F4B8104800F0E7F8104B3B
:1021B00000F0010018700D4800F0E0F804F03F0155
:1021C0000229C0F3440007D0052909D001290BD109
:1021D000BDE8F041FFF7BBBEBDE8F041FFF792BE9E
:1021E000BDE8F041FFF7DBBEBDE8F08100480040EC
:1021F0003000002007B5002317480193C16C174B2E
:102200000191019A1868824202D2FFF719F821E081
:10221000134A01991368994202D2FEF7E7FF19E0C9
:10222000104901980A68904202D2FEF7B5FF11E00A
:102230000D4B01981968884202D2FEF783FF09E02E
:102240000A48019A03689A4202D2FEF751FF01E060
:10225000FEF724FF0EBD00BF0024014078000020DF
:1022600074000020700000206C0000207C00002022
:1022700008B5FFF7F1F9FFF7BFFAFFF7D7FAFFF755
:10228000EFFAFFF7B5F9FFF757F9FFF7B3FFFFF7DD
:10229000B5FB054B18680128F7D1FFF7E7FEFFF7FC
:1022A000A9FFFFF75DFBF4E764000020038A30B567
:1022B0000D460446EA8898B220F440511143218229
:1022C000A3892889A98823F4B05340EA01026889C8
:1022D00023F00C0102430804030C1A4391B2A181BC
:1022E000A08AAA8983B223F4407187B01143A182E6
:1022F00001A800F0FFF81848A38984420CBF049895
:10230000039819B200294FF019032A6803FB00F063
:1023100001DA510000E09100B0FBF1F16423B1FB60
:10232000F3F21201100903FB1011A08900B200287A
:1023300006DAC9003231B1FBF3F303F0070005E020
:1023400009013231B1FBF3F303F00F00024390B205
:10235000208107B030BD00BF00380140838919B12A
:1023600099B241F4005303E023F400510A04130C22
:1023700083817047C905CA0D828070478088C10576
:10238000C80D7047038819420CBF00200120704718
:10239000C9438AB202807047224A038890429BB2A6
:1023A00012D002F5006290420ED0B0F1804F0BD0F7
:1023B000A2F59832904207D002F58062904203D095
:1023C00002F58062904203D14A8823F070031343E0
:1023D000154A904208D002F58062904204D023F45E
:1023E0004073CA889BB2134303808B880A88838515
:1023F0000C4B028598420FD003F5006290420BD03F
:1024000002F54063984207D003F58062904203D002
:1024100002F58063984201D1097A01860122828205
:10242000704700BF002C014000100040038819B124
:1024300099B241F0010303E023F001010A04130CF7
:102440000380704783899BB20AB1194301E023EAF4
:10245000010181817047C9438AB20282704700003E
:10246000034B5A6822F474121043014359607047B9
:1024700000100240014B1860704700BF60004242EC
:10248000034B5A6822F0030108435860704700BFAD
:1024900000100240024B586800F00C00704700BF6B
:1024A00000100240034B5A6822F0F00108435860C4
:1024B000704700BF00100240034B5A6822F4E061ED
:1024C00008435860704700BF00100240034B5A6831
:1024D00022F4605141EAC000586070470010024089
:1024E000034B5A6822F4404108435860704700BFCC
:1024F000001002401F4B10B55A6802F00C0104296D
:1025000001D0082902D01C4C046011E05C685968B5
:10251000C4F38342941CC90301D4184906E0DB6A62
:1025200003F00F01144B4A1CB3FBF2F14C4304605F
:10253000104B13495A68C2F303140C5D026822FA67
:1025400004F242605C68C4F302240C5D22FA04F4D5
:1025500084605C68C4F3C224095D22FA01F2C2609F
:102560005B680849C3F38133CB5CB2FBF3F20261D1
:1025700010BD00BF0010024000127A0000093D00AB
:102580003500002031000020044B9A6909B1104346
:1025900001E022EA00009861704700BF001002408D
:1025A000044BDA6909B1104301E022EA0000D86166
:1025B000704700BF001002404309012B074A01D1B8
:1025C000136803E0022B0CBF136A536A00F01F006C
:1025D00023FA00F101F00100704700BF0010024033
:1025E000CB78F0B5DA0648BF8A78098803F00F0582
:1025F00048BF154311F0FF0F1ED0046800220127C9
:1026000007FA02F707EA0106BE4211D197004FF020
:102610000F0C0CFA07FC05FA07F724EA0C04282B28
:1026200044EA070401D1466102E0482B08BF066175
:102630000132082AE3D10460FF2920D9446800222E
:1026400002F10806012707FA06F707EA0106BE426B
:1026500011D197004FF00F0C0CFA07FC05FA07F7A1
:1026600024EA0C04282B44EA070401D1466102E065
:10267000482B08BF06610132082AE1D14460F0BD51
:102680004FF6FF730221042203808170C2707047ED
:10269000836819420CBF0020012070470161704718
:1026A000416170470AB101617047416170470000A4
:1026B000034B1A6802F0380108431860704700BFE6
:1026C00000200240044B1A6822F0100119601A68B9
:1026D00010431860704700BF00200240426810B5E8
:1026E00022F470230A6823F4807444EA02030C790C
:1026F00043EA04224260CB688A6884681A43084B24
:10270000234013434A7943EA42038360097CC26A47
:102710004B1E22F47002D9B242EA0152C26210BDCD
:10272000FDF7F1FF836811B143F0010101E023F0EF
:10273000010181607047836843F008018160704740
:102740008068C0F3C0007047836843F00401816073
:1027500070478068C0F380007047836811B143F40C
:10276000A00101E023F4A00181607047092970B540
:102770004FF003040CD94C4307251E3C05FA04F521
:1027800003FA04F3C66826EA05052B43C3600BE091
:102790004C43072505FA04F503FA04F3066926EA13
:1027A000050545EA03040461062A4FF005030DD828
:1027B000013A53431F2202FA03F201FA03F1446B78
:1027C00024EA020242EA0103436370BD0C2A0DD8D9
:1027D00053431F22233B02FA03F201FA03F1046B75
:1027E00024EA020242EA0103036370BD53431F223D
:1027F000413B02FA03F201FA03F1C46A24EA02023D
:102800001143C16270BD0000C37810B503B3164C0C
:10281000E168CB43C3F302244178C4F1040201FA16
:1028200002F10F2222FA04F28478037822400A434C
:10283000110103F16043CAB203F5614181F800233D
:102840000078012200F01F03410902FA03F007E0BB
:102850000078012200F01F03410902FA03F0203141
:10286000024B43F8210010BD00ED00E000E100E064
:1028700038B50E4D0E4B0024E81A8510AC4205D039
:102880000B4951F8242090470134F7E700F016F87F
:102890000849094A541AA5100024AC4205D0054B3A
:1028A00053F8240080470134F7E738BDD4280008E6
:1028B000D4280008D4280008D8280008F8B500BF9C
:1028C000F8BC08BC9E467047F8B500BFF8BC08BC11
:0428D0009E46704769
:0428D400F501000802
:0428D800D101000822
:1028DC0096000000A200000096000000A500000079
:1028EC00960000006E0000006E00000096000000D4
:1028FC00A500000096000000960000006C0000008F
:10290C000102040608000000000102030401020396
:08291C00040607080900000091
:04000005080010419E
:00000001FF
