:020000040800F2
:1000000000100020411000082D1000082F100008DB
:1000100031100008331000083510000800000000FF
:100020000000000000000000000000003710000881
:1000300039100008000000003B1000083D100008C7
:1000400099100008991000089910000899100008EC
:1000500099100008991000089910000899100008DC
:1000600099100008991000089910000899100008CC
:1000700099100008991000089910000899100008BC
:10008000991000089910000899100008000000005D
:1000900000000000000000000000000099100008AF
:1000A000991000089910000899100008991000088C
:1000B0004D12000899100008000000009910000877
:1000C00099100008000000000000000099100008CE
:1000D00000000000991000089910000800000000BE
:1000E00099100008991000089910000800000000FD
:1000F0000000000000000000000000000000000000
:1001000000000000000000000000000000000000EF
:10011000000000000000000099100008991000087D
:1001200000000000000000000000000000000000CF
:1001300000000000000000000000000000000000BF
:1001400000000000000000000000000000000000AF
:10015000000000000000000000000000000000009F
:10016000000000000000000000000000000000008F
:10017000000000000000000000000000000000007F
:10018000000000000000000000000000000000006F
:10019000000000000000000000000000000000005F
:1001A000000000000000000000000000000000004F
:1001B000000000000000000000000000000000003F
:1001C0000000000000000000000000005FF808F1DF
:1001D00010B5054C237833B9044810B10448AFF387
:1001E00000800121217010BD4400002000000000AB
:1001F000C027000808B5064B1BB106480649AFF3F7
:1002000000800648016811B1054A02B1904708BD57
:1002100000000000C0270008480000204400002023
:100220000000000081F0004102E000BF83F00043C5
:1002300030B54FEA41044FEA430594EA050F08BF81
:1002400090EA020F1FBF54EA000C55EA020C7FEA45
:10025000645C7FEA655C00F0E2804FEA5454D4EBC2
:100260005555B8BF6D420CDD2C4480EA020281EA8C
:10027000030382EA000083EA010180EA020281EAC4
:100280000303362D88BF30BD11F0004F4FEA013116
:100290004FF4801C4CEA113102D0404261EB410125
:1002A00013F0004F4FEA03334CEA133302D05242AB
:1002B00063EB430394EA050F00F0A780A4F1010467
:1002C000D5F1200E0DDB02FA0EFC22FA05F28018A1
:1002D00041F1000103FA0EF2801843FA05F3594187
:1002E0000EE0A5F120050EF1200E012A03FA0EFC06
:1002F00028BF4CF0020C43FA05F3C01851EBE37130
:1003000001F0004507D54FF0000EDCF1000C7EEB4C
:1003100000006EEB0101B1F5801F1BD3B1F5001F8A
:100320000CD349085FEA30004FEA3C0C04F10104A9
:100330004FEA445212F5800F80F09A80BCF1004FD2
:1003400008BF5FEA500C50F1000041EB045141EA54
:10035000050130BD5FEA4C0C404141EB010111F455
:10036000801FA4F10104E9D191F0000F04BF014600
:100370000020B1FA81F308BF2033A3F10B03B3F1DE
:1003800020020CDA0C3208DD02F1140CC2F10C026E
:1003900001FA0CF021FA02F10CE002F11402D8BFCC
:1003A000C2F1200C01FA02F120FA0CFCDCBF41EA98
:1003B0000C019040E41AA2BF01EB0451294330BD67
:1003C0006FEA04041F3C1CDA0C340EDC04F1140444
:1003D000C4F1200220FA04F001FA02F340EA03001B
:1003E00021FA04F345EA030130BDC4F10C04C4F161
:1003F000200220FA02F001FA04F340EA0300294641
:1004000030BD21FA04F0294630BD94F0000F83F48A
:10041000801306BF81F480110134013D4EE77FEA6D
:10042000645C18BF7FEA655C29D094EA050F08BFB9
:1004300090EA020F05D054EA000C04BF194610469A
:1004400030BD91EA030F1EBF0021002030BD5FEADE
:10045000545C05D14000494128BF41F0004130BD06
:1004600014F580043CBF01F5801130BD01F000455A
:1004700045F0FE4141F470014FF0000030BD7FEACD
:10048000645C1ABF194610467FEA655C1CBF0B46C8
:10049000024650EA013406BF52EA033591EA030FDF
:1004A00041F4002130BD00BF90F0000F04BF0021D7
:1004B000704730B54FF4806404F132044FF000050A
:1004C0004FF0000150E700BF90F0000F04BF002183
:1004D000704730B54FF4806404F1320410F00045E9
:1004E00048BF40424FF000013EE700BF42004FEAE4
:1004F000E2014FEA31014FEA02701FBF12F07F4361
:1005000093F07F4F81F06051704792F0000F14BF5D
:1005100093F07F4F704730B54FF4607401F00045A1
:1005200021F0004120E700BF50EA010208BF7047F8
:1005300030B54FF000050AE050EA010208BF7047ED
:1005400030B511F0004502D5404261EB41014FF456
:10055000806404F132045FEA915C3FF4DCAE4FF05A
:1005600003025FEADC0C18BF03325FEADC0C18BF41
:10057000033202EBDC02C2F1200300FA03FC20FA92
:1005800002F001FA03FE40EA0E0021FA02F11444DF
:10059000C1E600BF70B54FF0FF0C4CF4E06C1CEAF4
:1005A00011541DBF1CEA135594EA0C0F95EA0C0F69
:1005B00000F0DEF82C4481EA030621EA4C5123EADC
:1005C0004C5350EA013518BF52EA033541F480110B
:1005D00043F4801338D0A0FB02CE4FF00005E1FBBE
:1005E00002E506F00042E0FB03E54FF00006E1FB08
:1005F00003569CF0000F18BF4EF0010EA4F1FF044B
:10060000B6F5007F64F5407404D25FEA4E0E6D418A
:1006100046EB060642EAC62141EA55514FEAC5209B
:1006200040EA5E504FEACE2EB4F1FD0C88BFBCF517
:10063000E06F1ED8BEF1004F08BF5FEA500E50F1C8
:10064000000041EB045170BD06F0004646EA01018E
:1006500040EA020081EA0301B4EB5C04C2BFD4EBC0
:100660000C0541EA045170BD41F480114FF0000EB9
:10067000013C00F3AB8014F1360FDEBF002001F027
:10068000004170BDC4F10004203C35DA0C341BDCA1
:1006900004F11404C4F1200500FA05F320FA04F073
:1006A00001FA05F240EA020001F0004221F00041A7
:1006B00010EBD37021FA04F642EB06015EEA430E1A
:1006C00008BF20EAD37070BDC4F10C04C4F120054A
:1006D00000FA04F320FA05F001FA04F240EA0200FD
:1006E00001F0004110EBD37041F100015EEA430ECE
:1006F00008BF20EAD37070BDC4F1200500FA05F2EE
:100700004EEA020E20FA04F301FA05F243EA02036C
:1007100021FA04F001F0004121FA04F220EA02007B
:1007200000EBD3705EEA430E08BF20EAD37070BDC1
:1007300094F0000F0FD101F00046400041EB0101A1
:1007400011F4801F08BF013CF7D041EA060195F083
:10075000000F18BF704703F00046520043EB03033D
:1007600013F4801F08BF013DF7D043EA060370472A
:1007700094EA0C0F0CEA135518BF95EA0C0F0CD035
:1007800050EA410618BF52EA4306D1D181EA03017B
:1007900001F000414FF0000070BD50EA410606BF75
:1007A0001046194652EA430619D094EA0C0F02D1BA
:1007B00050EA013613D195EA0C0F05D152EA0336FF
:1007C0001CBF104619460AD181EA030101F000411D
:1007D00041F0FE4141F470014FF0000070BD41F066
:1007E000FE4141F4780170BD70B54FF0FF0C4CF440
:1007F000E06C1CEA11541DBF1CEA135594EA0C0F5F
:1008000095EA0C0F00F0A7F8A4EB050481EA030EAB
:1008100052EA03354FEA013100F088804FEA033392
:100820004FF0805545EA131343EA12634FEA022260
:1008300045EA111545EA10654FEA00260EF0004121
:100840009D4208BF964244F1FD0404F5407402D273
:100850005B084FEA3202B61A65EB03055B084FEA04
:1008600032024FF480104FF4002CB6EB020E75EB01
:10087000030E22BFB61A754640EA0C005B084FEA29
:100880003202B6EB020E75EB030E22BFB61A7546A6
:1008900040EA5C005B084FEA3202B6EB020E75EBF1
:1008A000030E22BFB61A754640EA9C005B084FEA69
:1008B0003202B6EB020E75EB030E22BFB61A754676
:1008C00040EADC0055EA060E18D04FEA051545EA65
:1008D00016754FEA06164FEAC30343EA52734FEA0E
:1008E000C2025FEA1C1CC0D111F4801F0BD141EA87
:1008F00000014FF000004FF0004CB6E711F4801FEC
:1009000004BF01430020B4F1FD0C88BFBCF5E06FCB
:100910003FF6AFAEB5EB030C04BFB6EB020C5FEADB
:10092000500C50F1000041EB045170BD0EF0004E30
:100930004EEA113114EB5C04C2BFD4EB0C0541EA62
:10094000045170BD41F480114FF0000E013C90E65F
:1009500045EA060E8DE60CEA135594EA0C0F08BF23
:1009600095EA0C0F3FF43BAF94EA0C0F0AD150EA22
:1009700001347FF434AF95EA0C0F7FF425AF1046B5
:1009800019462CE795EA0C0F06D152EA03353FF4DD
:10099000FDAE1046194622E750EA410618BF52EA5A
:1009A00043067FF4C5AE50EA41047FF40DAF52EA2E
:1009B00043057FF4EBAE12E74A0011D212F50012A4
:1009C00011D20DD56FF47873B3EB62520ED44FEAA7
:1009D000C12343F0004343EA505323FA02F0704727
:1009E0004FF00000704750EA013002D14FF0FF3065
:1009F00070474FF0000070474FEA4102B2F1E04308
:100A000024BFB3F5001CDCF1FE5C0DD901F0004CF5
:100A10004FEAC0024CEA5070B2F1004F40EB830045
:100A200008BF20F00100704711F0804F21D113F171
:100A30003872BCBF01F00040704741F480114FEAAA
:100A40005252C2F11802C2F1200C10FA0CF320FA33
:100A500002F018BF40F001004FEAC1234FEAD32350
:100A600003FA0CFC40EA0C0023FA02F34FEA4303BA
:100A7000CCE77FEA625307D150EA01331EBF4FF043
:100A8000FE4040F44000704701F0004040F0FE405E
:100A900040F40000704700BF80F0004002E000BF5B
:100AA00081F0004142001FBF5FEA410392EA030F59
:100AB0007FEA226C7FEA236C6AD04FEA1262D2EBA3
:100AC0001363C1BFD218414048404140B8BF5B42A8
:100AD000192B88BF704710F0004F40F4000020F041
:100AE0007F4018BF404211F0004F41F4000121F057
:100AF0007F4118BF494292EA030F3FD0A2F10102A1
:100B000041FA03FC10EB0C00C3F1200301FA03F1DE
:100B100000F0004302D5494260EB4000B0F5000F01
:100B200013D3B0F1807F06D340084FEA310102F1C0
:100B30000102FE2A51D2B1F1004F40EBC25008BF72
:100B400020F0010040EA03007047490040EB00003C
:100B500010F4000FA2F10102EDD1B0FA80FCACF16B
:100B6000080CB2EB0C0200FA0CF0AABF00EBC2506A
:100B700052421843BCBFD0401843704792F0000F58
:100B800081F4000106BF80F400000132013BB5E7AB
:100B90004FEA41037FEA226C18BF7FEA236C21D021
:100BA00092EA030F04D092F0000F08BF0846704786
:100BB00090EA010F1CBF0020704712F07F4F04D154
:100BC000400028BF40F00040704712F100723CBF67
:100BD00000F50000704700F0004343F0FE4040F491
:100BE000000070477FEA226216BF08467FEA23634F
:100BF0000146420206BF5FEA412390EA010F40F43A
:100C0000800070474FF0000304E000BF10F0004385
:100C100048BF40425FEA000C08BF704743F096436C
:100C200001464FF000001CE050EA010208BF704787
:100C30004FF000030AE000BF50EA010208BF70470E
:100C400011F0004302D5404261EB41015FEA010C23
:100C500002BF84460146002043F0B64308BFA3F11B
:100C60008053A3F50003BCFA8CF2083AA3EBC253FD
:100C700010DB01FA02FC634400FA02FCC2F120021C
:100C8000BCF1004F20FA02F243EB020008BF20F053
:100C90000100704702F1200201FA02FCC2F12002B9
:100CA00050EA4C0021FA02F243EB020008BF20EAAE
:100CB000DC7070474FF0FF0C1CEAD0521EBF1CEADC
:100CC000D15392EA0C0F93EA0C0F6FD01A4480EACA
:100CD000010C400218BF5FEA41211ED04FF00063B3
:100CE00043EA501043EA5111A0FB01310CF00040DF
:100CF000B1F5000F3EBF490041EAD3715B0040EA05
:100D0000010062F17F02FD2A1DD8B3F1004F40EBD4
:100D1000C25008BF20F00100704790F0000F0CF0A7
:100D2000004C08BF49024CEA502040EA51207F3A6B
:100D3000C2BFD2F1FF0340EAC250704740F4000046
:100D40004FF00003013A5DDC12F1190FDCBF00F037
:100D500000407047C2F10002410021FA02F1C2F1E5
:100D6000200200FA02FC5FEA310040F1000053EA81
:100D70004C0308BF20EADC70704792F0000F00F0CF
:100D8000004C02BF400010F4000F013AF9D040EAD5
:100D90000C0093F0000F01F0004C02BF490011F469
:100DA000000F013BF9D041EA0C018FE70CEAD15367
:100DB00092EA0C0F18BF93EA0C0F0AD030F0004CE7
:100DC00018BF31F0004CD8D180EA010000F000409B
:100DD000704790F0000F17BF90F0004F084691F059
:100DE000000F91F0004F14D092EA0C0F01D1420293
:100DF0000FD193EA0C0F03D14B0218BF084608D15C
:100E000080EA010000F0004040F0FE4040F40000A5
:100E1000704740F0FE4040F4400070474FF0FF0C38
:100E20001CEAD0521EBF1CEAD15392EA0C0F93EA7F
:100E30000C0F69D0A2EB030280EA010C49024FEAD1
:100E4000402037D04FF0805343EA111143EA10138A
:100E50000CF000408B4238BF5B0042F17D024FF442
:100E6000000C8B4224BF5B1A40EA0C00B3EB510F1D
:100E700024BFA3EB510340EA5C00B3EB910F24BF06
:100E8000A3EB910340EA9C00B3EBD10F24BFA3EB8B
:100E9000D10340EADC001B0118BF5FEA1C1CE0D153
:100EA000FD2A3FF650AF8B4240EBC25008BF20F006
:100EB000010070470CF0004C4CEA50207F32C2BF5A
:100EC000D2F1FF0340EAC250704740F400004FF0F7
:100ED0000003013A37E792F0000F00F0004C02BF28
:100EE000400010F4000F013AF9D040EA0C0093F0F2
:100EF000000F01F0004C02BF490011F4000F013B4C
:100F0000F9D041EA0C0195E70CEAD15392EA0C0FB3
:100F100008D142027FF47DAF93EA0C0F7FF470AFEB
:100F2000084676E793EA0C0F04D14B023FF44CAF2E
:100F300008466EE730F0004C18BF31F0004CCAD1C3
:100F400030F000427FF45CAF31F000437FF43CAFFF
:100F50005FE700BF324B82B01A6842F001001860B0
:100F60005968304A0A405A60186820F0847121F4A8
:100F700080321A60186820F4802119605A684FF492
:100F80001F0122F4FE00002258609960DA6200928C
:100F90000192186840F480311960214B1A6802F4FC
:100FA0000030019000994A1C0092019818B90099EC
:100FB000B1F5A06FF1D11B6813F4003218BF012204
:100FC00001920198012805D0174B4FF000629A60FA
:100FD00002B07047124B596859605A685A60586895
:100FE0005860596821F47C125A60586840F498118E
:100FF00059601A6842F0807018601968084A8901BF
:10100000FBD5536823F003005060516841F00203A0
:101010005360034A506800F00C010829F9D1D3E766
:10102000001002400000FFF800ED00E07047FEE70E
:10103000FEE7FEE7FEE77047704770477047000025
:10104000DFF83CD0002100F004B80E4B5B58435051
:1010500004310D480D4B42189A42FFF4F6AF0C4A8A
:1010600000F003B8002342F8043B0A4B9A42FFF415
:10107000F9AFFFF76FFF01F07DFB01F02BF8704730
:1010800000100020E027000800000020440000209D
:101090004400002088000020FFF7FEBF10B50F4C71
:1010A0000F4B002220464FF480511A7001F078FA5D
:1010B00020464FF4006101F073FA20464FF480613E
:1010C00001F06EFA20464FF4007101F06BFA2046F1
:1010D0004FF48071BDE8104001F064BA000801408F
:1010E0007000002010B50F4C0F4B002220464FF42B
:1010F00080511A7001F056FA20464FF4006101F059
:101100004FFA20464FF4806101F04AFA20464FF42E
:10111000007101F047FA20464FF48071BDE810409D
:1011200001F040BA000801407000002010B50F4CDB
:101130000F4B002220464FF480511A7001F032FA12
:1011400020464FF4006101F02DFA20464FF48061F3
:1011500001F026FA20464FF4007101F023FA2046F0
:101160004FF48071BDE8104001F01CBA0008014046
:101170007000002010B50F4C0F4B002220464FF49A
:1011800080511A7001F00EFA20464FF4006101F010
:1011900009FA20464FF4806101F002FA20464FF42C
:1011A000007101F0FDF920464FF48071BDE8104058
:1011B00001F0F8B9000801407000002010B50F4C94
:1011C0000F4B002220464FF480511A7001F0EAF9CB
:1011D00020464FF4006101F0E5F920464FF48061AC
:1011E00001F0DEF920464FF4007101F0D9F92046F4
:1011F0004FF48071BDE8104001F0D2B90008014001
:101200007000002010B50F4C0F4B002220464FF409
:1012100080511A7001F0C6F920464FF4006101F0C8
:10122000C1F920464FF4806101F0BCF920464FF42B
:10123000007101F0B5F920464FF48071BDE810400F
:1012400001F0AEB900080140700000204FF080406E
:1012500010B5012101F02FF8644B186800283DD12A
:1012600063490A78002A39D0624C2378002B35D1A3
:101270006148022101F094F95F484FF4805101F078
:101280008FF95D484FF4804101F08AF95A482021D6
:1012900001F086F95848402101F082F956484FF490
:1012A000807101F07DF95448012101F079F952482B
:1012B000042101F075F950484FF4005101F070F924
:1012C0004D484FF4004101F06BF94B48802101F08B
:1012D00067F949484FF4007101F062F94348474B00
:1012E00001684A1C0260046819688C42044603DDE8
:1012F0004148022101F056F9414A2068136898429A
:1013000004DD3D484FF4805101F04CF9374C3D4825
:1013100021680268914204DD37484FF4804101F0B2
:1013200041F9394B21681868814203DD3248202198
:1013300001F038F92D4C354A21681368994203DDD4
:101340002D48402101F02EF9314920680A68904269
:1013500004DD29484FF4807101F024F9234B2D4816
:101360001C6801688C421C4603DD2348012101F002
:1013700019F9294B22681868824203DD1E480421AE
:1013800001F010F9194C254A21681368994204DDCF
:1013900019484FF4005101F005F9214920680A6805
:1013A000904204DD14484FF4004101F0FBF80F4B6C
:1013B0001C481C6801688C421C4603DD0E488021D5
:1013C00001F0F0F8184B22681868824204DD0A48E0
:1013D0004FF4007101F0E6F8044B40F275221968F1
:1013E000914201DD0020186010BD00BF6C0000209C
:1013F0006400002070000020000C01401800002054
:101400001C000020200000202C00002004000020F0
:101410000C00002008000020100000201400002014
:101420000000002024000020280000202DE9F041C9
:101430001F4600F020039046DAB2069E079D089CE6
:101440000AB101230B6000F01002D3B213B10122E4
:10145000C8F8002000F00803DAB20AB101233B60AB
:1014600000F00402D3B20BB10122326000F002039B
:10147000DAB20AB101232B60C30701D50120206035
:101480000A681C48022112B101F08AF801E001F05B
:1014900089F8D8F800301748082113B101F080F816
:1014A00001E001F07FF83A681248202112B101F002
:1014B00077F801E001F076F833680E48402113B167
:1014C00001F06EF801E001F06DF82A68094810217A
:1014D00012B101F065F801E001F064F823680548F5
:1014E00004211BB1BDE8F04101F05AB8BDE8F0415C
:1014F00001F058B8000801400368A3F10E021C2B4C
:1015000010D8DFE803F011111414170F0F0F0F0F8D
:101510000F0F0F0F0F0F0F0F0F0F0F0F0F0F1A1CC3
:101520001C1E1E00026070476FF012010AE06FF08F
:10153000090107E06FF0080104E0092102E00A2137
:1015400000E013210160704730B5082087B0012109
:10155000294C00F085FF18204FF480638DF80300BC
:10156000032520466946ADF800308DF8025000F0A2
:10157000B9FF4FF400614822ADF8001020466946DB
:101580008DF803208DF8025000F0ACFF01214FF4DC
:10159000802000F071FFA4F5444400210C204FF49A
:1015A0001653ADF81200ADF81010ADF80E10ADF8EE
:1015B0000C10ADF81410204602A9029300F0AAFD09
:1015C0002046012100F0FEFD0121102000F048FF1F
:1015D00001A800F0D7FF02204FF4005204238DF839
:1015E000060001A90548ADF804208DF8073000F089
:1015F00079FF07B030BD00BF000C01400010014072
:101600001FB50120014600F037FF182204A91E2053
:10161000002321F80C2DADF808004FF080401C4647
:10162000ADF80A30ADF8063000F0E6FD01214FF0CC
:10163000804000F040FE01210A464FF0804000F05B
:1016400031FE01214FF0804000F020FE1C210123DB
:1016500068468DF800108DF803308DF801408DF844
:10166000024001F053F81FBD10B500F029FE4FF401
:10167000803000F047FE00F01FFF0128044624D10F
:10168000102000F0A1FF022000F094FF002000F0E5
:1016900075FE002000F086FE4FF4806000F078FEBA
:1016A0004FF480304FF4802100F046FE204600F0D9
:1016B0004DFE392000F0ECFE0028FAD0022000F0A8
:1016C0004BFE00F053FE0828FBD110BD00000000C7
:1016D0002DE9F34101900198FEF708FF3EA3D3E9FD
:1016E0000023FFF781F8FFF787F941490546FFF727
:1016F000D7F9FEF7FBFE3AA3D3E90023FEF74AFF32
:10170000FFF77AF9044621462846FFF7C9F9214632
:101710008046FFF7C5F921460746FFF7C1F9214684
:101720000646FFF7BDF94FF0874105464046FFF7F3
:10173000C1FAFEF7DBFE2CA3D3E90023FFF754F830
:10174000FFF73AF92B4B4FF0874118603846FFF707
:10175000B1FAFEF7CBFE24A3D3E90023FFF744F848
:10176000FFF72AF9244908604FF087413046FFF718
:10177000A1FAFEF7BBFE1CA3D3E90023FFF734F860
:10178000FFF71AF91D4A4FF0874110602846FFF70E
:1017900091FAFEF7ABFE14A3D3E90023FFF724F878
:1017A000FFF70AF9164B214618602846FFF778F92B
:1017B0004FF08741FFF77EFAFEF798FE0AA3D3E9C0
:1017C0000023FFF711F8FFF7F7F80E490860BDE8AE
:1017D000FC8100BFAFF30080AE47E17A14AE114048
:1017E0009A9999999999C93F6666666666660A40AC
:1017F00014AEE73F84000020740000207800002031
:101800007C0000208000002007B50121042000F0AA
:1018100027FE01A800F0B6FE1020022141F67E73DB
:101820008DF807008DF80610034801A9ADF80430C3
:1018300000F058FE0EBD00BF0008014007B50121B1
:10184000082000F00DFE01A800F09CFE10200221EF
:101850004FF2E7338DF807008DF80610034801A911
:10186000ADF8043000F03EFE0EBD00BF000C01409C
:1018700070B5264886B0FFF72BFF0121042000F049
:10188000EFFD684600F07EFE0124002520486946F1
:10189000ADF800408DF8035000F024FE21464FF4CF
:1018A000007000F0DDFD284600F086FD4FF4602357
:1018B000184801A903938DF80940049501958DF806
:1018C00014408DF8085000F08BFE1248294622463D
:1018D000022300F0CDFE0F48214600F0A5FE0D4882
:1018E000264600F0AAFE0B4800F0ACFE0028FAD114
:1018F000084800F0ABFE074800F0ADFE0128FAD022
:101900000448012100F0ABFE06B070BD66660641DA
:10191000000801400024014082B00190019B41F287
:101920008832534301930198411E01910028FAD156
:1019300002B0704738B50C4D0C4B7E2101220024BB
:1019400028461C6000F030FE4FF4FA70FFF7E4FF09
:1019500028467E21224600F027FE4FF4FA70BDE8AB
:101960003840FFF7D9BF00BF0008014068000020E1
:1019700008B505484FF4005100F00CFE18B9BDE859
:101980000840FFF7D7BF08BD0010014010B51D4B40
:101990001D4C01221A60204600227E2100F004FE28
:1019A0000221204600F0FCFD6420FFF7B5FF08216E
:1019B000204600F0F5FD6420FFF7AEFF2021204611
:1019C00000F0EEFD6420FFF7A7FF4021204600F065
:1019D000E7FD6420FFF7A0FF1021204600F0E0FDA6
:1019E0006420FFF799FF0421204600F0D9FD642010
:1019F000FFF792FF20467E210022BDE8104000F054
:101A0000D3BD00BF680000200008014008B50748AA
:101A10004FF4005100F0BEFD012803D1BDE808409D
:101A2000FFF7B4BFBDE80840FFF784BF00100140D6
:101A300070B50F2A0646D4BF22EAE2700F208AB0A2
:101A4000C0F10F000D46FFF767FF07AB08A809A913
:101A5000002400930190029105AA04A906AB304628
:101A6000049405940694079408940994FFF7DEFC07
:101A7000049B1B2DB4BF29461B216FF0100291421D
:101A8000B8BF11468BB13A4B01F122001A6890425F
:101A90001A6801DB501C05E001F12300904204DAD2
:101AA0001A68501E1860204600E00120059B83B193
:101AB000304BC1F13E041A6894421A6801DB0132CE
:101AC00005E0C1F13F04944203DA1868421E1A602F
:101AD0000020069B83B1284BC1F138041A68944258
:101AE0001A6801DB013205E0C1F13904944203DADE
:101AF0001868421E1A600020079B83B11F4B01F13A
:101B000021041A6894421A6801DB013205E001F1F0
:101B10002204944203DA1868421E1A600020089BCF
:101B200083B1174B01F121041A6894421A6801DB52
:101B3000013205E001F12204944203DA1868421EE2
:101B40001A600020099B83B10E4BC1F13E041A6854
:101B500094421A6801DB013205E0C1F13F01914274
:101B600003DA1868421E1A6000200AB070BD00BF78
:101B7000180000201C000020200000202C00002065
:101B8000040000200C000020F0B50F2A0746D4BF47
:101B900022EAE2700F208BB00C46C0F10F001D4608
:101BA0000B2CA8BF0B249DF84060FFF7B5FE6FF02B
:101BB0000A0300209C42B8BF1C4607A908AA09AB2B
:101BC000049005900690079008900990009101926A
:101BD000029304A9384605AA06ABFFF727FC614229
:101BE000002D06DC012E00F0848045B1022E09D1C3
:101BF0008DE0022E00F08E80012E03D180E0022EB7
:101C000000F0888023461A46049D8DB1454802F1B4
:101C100031060568AE42056801DB013505E002F1D9
:101C20003206AE4204DA0568013D0560002000E09E
:101C30000120059D85B13C4E04F13D073568AF425A
:101C400002DB3468601C05E037683E34BC4203DACE
:101C50003468601E30600020069C84B1334C02F171
:101C600039062568AE4202DB2268501C05E0256873
:101C70003A32AA4203DA2268501E20600020079AF6
:101C80008AB12B4A01F12D051468A54202DB1068C8
:101C9000013006E0146801F12E05A54203DA106850
:101CA000013810600020089A82B1224A03F13D05F4
:101CB0001468A54202DB1368581C05E014683E3323
:101CC000A34203DA1368581E10600020099A3AB341
:101CD000194B01F131041A6894421A6801DB501C57
:101CE00004E0323191421BDA1968481E1860002066
:101CF00016E0002C00DB6D422A1B0B46641B83E7B9
:101D0000002C00DA6D422B1B0A4619467CE7002C9A
:101D100004DAF8E7002CEEDBEED1ECE7F2DCF2E7D8
:101D20000BB0F0BD080000201000002014000020BF
:101D300000000020240000202800002037B50625E0
:101D4000012400210F222046FFF772FE01280FD147
:101D5000002100900F2220460B46FFF715FF0128B7
:101D600006D16400013DE4B2EBD10E4805603EBDF2
:101D70000D210B222046FFF75BFE0128F8D101233D
:101D8000002100930B2220460B46FFF7FDFE0128A1
:101D9000F5D100210B222046FFF74AFE0128F8D199
:101DA000DFE700BF60000020F0B53E4F14463B68FF
:101DB0000E28B4BF02460E220A2B85B00E4602DD65
:101DC0003868102805DD0392FFF7B8FF0B21039A4E
:101DD00039603B68334D0B2B07D12A200C21FFF7CC
:101DE00027FE01285BD10C210EE028680C280DD1BC
:101DF000012C0BD100943F206FF007013346FFF711
:101E0000C3FE01284BD10D21296048E0254D2968EA
:101E10002B460C2905D1022C03D100943F20092127
:101E2000ECE718681F4D0D2807D12A200321FFF782
:101E3000FFFD012833D10E21E6E729680E2907D1DD
:101E400015200C21FFF7F4FD012828D10F21DBE735
:101E50002B680F2B05D1012C03D100943F200921C1
:101E60000AE0104D286829460F280CD1022C0AD10F
:101E700000943F206FF007013346FFF785FE0128ED
:101E80000DD11021C0E70B68102B08D115200321BC
:101E9000FFF7CEFD012802D102480B22026005B0F7
:101EA000F0BD00BF600000202DE9FF416448202103
:101EB00000F098F9002800F0C180614800F08EF928
:101EC000C0F38F1000286FD15D48202100F090F9F9
:101ED0005B4800F083F904465948202100F082F95C
:101EE0000028F9D0564800F079F9C0F38F13022B7F
:101EF00058D15348202100F07BF9514800F06EF989
:101F000007464F48202100F06DF90028F9D04C48D1
:101F100000F064F9C0F38F12022A43D1202148480F
:101F200000F066F9464800F059F90646444800F0CA
:101F300055F980464248202100F054F90028F9D094
:101F40003F4800F04BF9C0F38F1003282AD120211D
:101F50003B4800F04DF93A4800F040F9394900F0AB
:101F6000010537480D7000F039F908F01F08364AAE
:101F70000023C0F3440504F03F044FEA4801136016
:101F80001E3900932A462046FFF7FEFD07F03F0367
:101F900059003239C6F34016204689192A46FFF700
:101FA00047FD4BE0264846E0254800F017F9C0F30E
:101FB0008F110129F6D12248202100F019F920487B
:101FC00000F00CF9C0F383035A00044603921C4846
:101FD000202100F007F90028F9D0194800F0FEF898
:101FE000C0F38F100328164825D100F0F7F8154EDE
:101FF00000F001051248357000F0F0F80646104870
:10200000039D00F0EBF8C0F340116D1804A840F8F0
:10201000045DFFF771FA04F00302032A02D1FFF70F
:102020008DFE0BE0C6F3430003990AB931B10122DA
:10203000FFF7BAFE02E0202100F0DAF8BDE8FF81E8
:1020400000480040640000206000002007B51B4BE2
:10205000D86C1B4BC0F307118DF807109DF80720B3
:102060001868824202D2FFF7CDF825E0154A9DF8A4
:1020700007101368994202D2FFF7A0F81CE012493A
:102080009DF807000A68904202D2FFF773F813E048
:102090000E4B9DF807001968884202D2FFF746F8F8
:1020A0000AE00B489DF8072003689A4202D2FFF726
:1020B00019F801E0FEF7F2FF0EBD00BF0024014059
:1020C000800000207C0000207800002074000020A8
:1020D0008400002008B5FFF7C7FAFFF795FBFFF76C
:1020E000ADFBFFF7C5FBFFF78BFAFFF72DFAFFF704
:1020F00025FEFFF7ABFFFFF789FC054B18680128A9
:10210000F7D1FFF7A3FFFFF7CFFEFFF731FCF4E7AE
:1021100068000020038A30B50D460446EA8898B26C
:1021200020F4405111432182A3892889A98823F4EE
:10213000B05340EA0102688923F00C01024308040D
:10214000030C1A4391B2A181A08AAA8983B223F415
:10215000407187B01143A18201A800F037F91848F7
:10216000A38984420CBF0498039819B200294FF048
:1021700019032A6803FB00F001DA510000E0910026
:10218000B0FBF1F16423B1FBF3F21201100903FB80
:102190001011A08900B2002806DAC9003231B1FB63
:1021A000F3F303F0070005E009013231B1FBF3F36B
:1021B00003F00F00024390B2208107B030BD00BF92
:1021C00000380140838919B199B241F4005303E00A
:1021D00023F400510A04130C838170478088C105E1
:1021E000C80D7047038819420CBF002001207047BA
:1021F000C9438AB202807047224A038890429BB248
:1022000012D002F5006290420ED0B0F1804F0BD098
:10221000A2F59832904207D002F58062904203D036
:1022200002F58062904203D14A8823F07003134381
:10223000154A904208D002F58062904204D023F4FF
:102240004073CA889BB2134303808B880A888385B6
:102250000C4B028598420FD003F5006290420BD0E0
:1022600002F54063984207D003F58062904203D0A4
:1022700002F58063984201D1097A018601228282A7
:10228000704700BF002C014000100040038819B1C6
:1022900099B241F0010303E023F001010A04130C99
:1022A0000380704783899BB20AB1194301E023EA96
:1022B000010181817047C9438AB2028270470000E0
:1022C0000E4B1A6842F00100186059680C4A0A4027
:1022D0005A60186820F0847121F480321A601868FE
:1022E00020F4802119605A684FF41F0122F4FE0087
:1022F000002258609960DA62704700BF0010024007
:102300000000FFF80B4BB0F5803F1A6822F48031D3
:1023100019601A6822F48021196006D0B0F5802F68
:1023200007D1186840F4A02202E0196841F4803215
:102330001A60704700100240034B5A6822F474126E
:10234000104301435960704700100240014B186070
:10235000704700BF60004242034B5A6822F00301FD
:1023600008435860704700BF00100240024B586895
:1023700000F00C00704700BF00100240034B5A6889
:1023800022F0F00108435860704700BF001002407F
:10239000034B5A6822F4E06108435860704700BF5D
:1023A00000100240034B5A6822F4605141EAC00019
:1023B0005860704700100240034B5A6822F44041B5
:1023C00008435860704700BF001002401F4B10B513
:1023D0005A6802F00C01042901D0082902D01C4CD3
:1023E000046011E05C685968C4F38342941CC9031B
:1023F00001D4184906E0DB6A03F00F01144B4A1CB4
:10240000B3FBF2F14C430460104B13495A68C2F31A
:1024100003140C5D026822FA04F242605C68C4F3A3
:1024200002240C5D22FA04F484605C68C4F3C224C4
:10243000095D22FA01F2C2605B680849C3F3813387
:10244000CB5CB2FBF3F2026110BD00BF0010024092
:1024500000127A0000093D00340000203000002006
:10246000044B9A6909B1104301E022EA0000986127
:10247000704700BF00100240044BDA6909B11043F5
:1024800001E022EA0000D861704700BF001002405E
:102490004309012B074A01D1136803E0022B0CBF4B
:1024A000136A536A00F01F0023FA00F101F00100E3
:1024B000704700BF0010024007B500230193312090
:1024C000FFF7E6FF01994A1C0192019BB3F5A06F4B
:1024D00001D00028F3D03120FFF7DAFF003018BF19
:1024E00001200EBDCB78F0B5DA0648BF8A7809889E
:1024F00003F00F0548BF154311F0FF0F1ED004680D
:102500000022012707FA02F707EA0106BE4211D1AD
:1025100097004FF00F0C0CFA07FC05FA07F724EAB6
:102520000C04282B44EA070401D1466102E0482B41
:1025300008BF06610132082AE3D10460FF2920D9CF
:102540004468002202F10806012707FA06F707EAA5
:102550000106BE4211D197004FF00F0C0CFA07FC98
:1025600005FA07F724EA0C04282B44EA070401D1F2
:10257000466102E0482B08BF06610132082AE1D11A
:102580004460F0BD4FF6FF73022104220380817086
:10259000C2707047836819420CBF00200120704749
:1025A00001617047416170470AB101617047416143
:1025B00070470000034B1A6802F0380108431860A6
:1025C000704700BF00200240044B1A6822F010013F
:1025D00019601A6810431860704700BF002002405D
:1025E000426810B522F470230A6823F4807444EA28
:1025F00002030C7943EA04224260CB688A6884684B
:102600001A43084B234013434A7943EA4203836049
:10261000097CC26A4B1E22F47002D9B242EA01520E
:10262000C26210BDFDF7F1FF836811B143F00101F3
:1026300001E023F0010181607047836843F00801E5
:10264000816070478068C0F3C0007047836843F0C2
:102650000401816070478068C0F380007047836820
:1026600011B143F4A00101E023F4A001816070479F
:10267000092970B54FF003040CD94C4307251E3CC3
:1026800005FA04F503FA04F3C66826EA05052B43A8
:10269000C3600BE04C43072505FA04F503FA04F385
:1026A000066926EA050545EA03040461062A4FF097
:1026B00005030DD8013A53431F2202FA03F201FA2F
:1026C00003F1446B24EA020242EA0103436370BD52
:1026D0000C2A0DD853431F22233B02FA03F201FABE
:1026E00003F1046B24EA020242EA0103036370BDB2
:1026F00053431F22413B02FA03F201FA03F1C46A79
:1027000024EA02021143C16270BD0000C37810B513
:1027100003B3164CE168CB43C3F302244178C4F100
:10272000040201FA02F10F2222FA04F284780378FB
:1027300022400A43110103F16043CAB203F561412B
:1027400081F800230078012200F01F03410902FAFA
:1027500003F007E00078012200F01F03410902FAAC
:1027600003F02031024B43F8210010BD00ED00E0E2
:1027700000E100E038B50E4D0E4B0024E81A85103C
:10278000AC4205D00B4951F8242090470134F7E7BB
:1027900000F016F80849094A541AA5100024AC4262
:1027A00005D0054B53F8240080470134F7E738BDC6
:1027B000D8270008D8270008D8270008DC270008F9
:1027C000F8B500BFF8BC08BC9E467047F8B500BF1E
:0827D000F8BC08BC9E467047EE
:0427D800F5010008FF
:0427DC00D10100081F
:1027E0002E0000003C000000320000003F0000000E
:1027F0003E0000003A000000230000002500000019
:10280000390000003E0000003200000022000000FD
:102810000204060800000000010203040102030490
:042820000607080996
:04000005080010419E
:00000001FF
