:020000040800F2
:1000000000100020411000082D1000082F100008DB
:1000100031100008331000083510000800000000FF
:100020000000000000000000000000003710000881
:1000300039100008000000003B1000083D100008C7
:1000400099100008991000089910000899100008EC
:1000500099100008991000089910000899100008DC
:1000600099100008991000089910000899100008CC
:1000700099100008991000089910000899100008BC
:10008000991000089910000899100008000000005D
:1000900000000000000000000000000099100008AF
:1000A000991000089910000899100008991000088C
:1000B0004D12000899100008000000009910000877
:1000C00099100008000000000000000099100008CE
:1000D00000000000991000089910000800000000BE
:1000E00099100008991000089910000800000000FD
:1000F0000000000000000000000000000000000000
:1001000000000000000000000000000000000000EF
:10011000000000000000000099100008991000087D
:1001200000000000000000000000000000000000CF
:1001300000000000000000000000000000000000BF
:1001400000000000000000000000000000000000AF
:10015000000000000000000000000000000000009F
:10016000000000000000000000000000000000008F
:10017000000000000000000000000000000000007F
:10018000000000000000000000000000000000006F
:10019000000000000000000000000000000000005F
:1001A000000000000000000000000000000000004F
:1001B000000000000000000000000000000000003F
:1001C0000000000000000000000000005FF808F1DF
:1001D00010B5054C237833B9044810B10448AFF387
:1001E00000800121217010BD4400002000000000AB
:1001F0007827000808B5064B1BB106480649AFF33F
:1002000000800648016811B1054A02B1904708BD57
:10021000000000007827000848000020440000206B
:100220000000000081F0004102E000BF83F00043C5
:1002300030B54FEA41044FEA430594EA050F08BF81
:1002400090EA020F1FBF54EA000C55EA020C7FEA45
:10025000645C7FEA655C00F0E2804FEA5454D4EBC2
:100260005555B8BF6D420CDD2C4480EA020281EA8C
:10027000030382EA000083EA010180EA020281EAC4
:100280000303362D88BF30BD11F0004F4FEA013116
:100290004FF4801C4CEA113102D0404261EB410125
:1002A00013F0004F4FEA03334CEA133302D05242AB
:1002B00063EB430394EA050F00F0A780A4F1010467
:1002C000D5F1200E0DDB02FA0EFC22FA05F28018A1
:1002D00041F1000103FA0EF2801843FA05F3594187
:1002E0000EE0A5F120050EF1200E012A03FA0EFC06
:1002F00028BF4CF0020C43FA05F3C01851EBE37130
:1003000001F0004507D54FF0000EDCF1000C7EEB4C
:1003100000006EEB0101B1F5801F1BD3B1F5001F8A
:100320000CD349085FEA30004FEA3C0C04F10104A9
:100330004FEA445212F5800F80F09A80BCF1004FD2
:1003400008BF5FEA500C50F1000041EB045141EA54
:10035000050130BD5FEA4C0C404141EB010111F455
:10036000801FA4F10104E9D191F0000F04BF014600
:100370000020B1FA81F308BF2033A3F10B03B3F1DE
:1003800020020CDA0C3208DD02F1140CC2F10C026E
:1003900001FA0CF021FA02F10CE002F11402D8BFCC
:1003A000C2F1200C01FA02F120FA0CFCDCBF41EA98
:1003B0000C019040E41AA2BF01EB0451294330BD67
:1003C0006FEA04041F3C1CDA0C340EDC04F1140444
:1003D000C4F1200220FA04F001FA02F340EA03001B
:1003E00021FA04F345EA030130BDC4F10C04C4F161
:1003F000200220FA02F001FA04F340EA0300294641
:1004000030BD21FA04F0294630BD94F0000F83F48A
:10041000801306BF81F480110134013D4EE77FEA6D
:10042000645C18BF7FEA655C29D094EA050F08BFB9
:1004300090EA020F05D054EA000C04BF194610469A
:1004400030BD91EA030F1EBF0021002030BD5FEADE
:10045000545C05D14000494128BF41F0004130BD06
:1004600014F580043CBF01F5801130BD01F000455A
:1004700045F0FE4141F470014FF0000030BD7FEACD
:10048000645C1ABF194610467FEA655C1CBF0B46C8
:10049000024650EA013406BF52EA033591EA030FDF
:1004A00041F4002130BD00BF90F0000F04BF0021D7
:1004B000704730B54FF4806404F132044FF000050A
:1004C0004FF0000150E700BF90F0000F04BF002183
:1004D000704730B54FF4806404F1320410F00045E9
:1004E00048BF40424FF000013EE700BF42004FEAE4
:1004F000E2014FEA31014FEA02701FBF12F07F4361
:1005000093F07F4F81F06051704792F0000F14BF5D
:1005100093F07F4F704730B54FF4607401F00045A1
:1005200021F0004120E700BF50EA010208BF7047F8
:1005300030B54FF000050AE050EA010208BF7047ED
:1005400030B511F0004502D5404261EB41014FF456
:10055000806404F132045FEA915C3FF4DCAE4FF05A
:1005600003025FEADC0C18BF03325FEADC0C18BF41
:10057000033202EBDC02C2F1200300FA03FC20FA92
:1005800002F001FA03FE40EA0E0021FA02F11444DF
:10059000C1E600BF70B54FF0FF0C4CF4E06C1CEAF4
:1005A00011541DBF1CEA135594EA0C0F95EA0C0F69
:1005B00000F0DEF82C4481EA030621EA4C5123EADC
:1005C0004C5350EA013518BF52EA033541F480110B
:1005D00043F4801338D0A0FB02CE4FF00005E1FBBE
:1005E00002E506F00042E0FB03E54FF00006E1FB08
:1005F00003569CF0000F18BF4EF0010EA4F1FF044B
:10060000B6F5007F64F5407404D25FEA4E0E6D418A
:1006100046EB060642EAC62141EA55514FEAC5209B
:1006200040EA5E504FEACE2EB4F1FD0C88BFBCF517
:10063000E06F1ED8BEF1004F08BF5FEA500E50F1C8
:10064000000041EB045170BD06F0004646EA01018E
:1006500040EA020081EA0301B4EB5C04C2BFD4EBC0
:100660000C0541EA045170BD41F480114FF0000EB9
:10067000013C00F3AB8014F1360FDEBF002001F027
:10068000004170BDC4F10004203C35DA0C341BDCA1
:1006900004F11404C4F1200500FA05F320FA04F073
:1006A00001FA05F240EA020001F0004221F00041A7
:1006B00010EBD37021FA04F642EB06015EEA430E1A
:1006C00008BF20EAD37070BDC4F10C04C4F120054A
:1006D00000FA04F320FA05F001FA04F240EA0200FD
:1006E00001F0004110EBD37041F100015EEA430ECE
:1006F00008BF20EAD37070BDC4F1200500FA05F2EE
:100700004EEA020E20FA04F301FA05F243EA02036C
:1007100021FA04F001F0004121FA04F220EA02007B
:1007200000EBD3705EEA430E08BF20EAD37070BDC1
:1007300094F0000F0FD101F00046400041EB0101A1
:1007400011F4801F08BF013CF7D041EA060195F083
:10075000000F18BF704703F00046520043EB03033D
:1007600013F4801F08BF013DF7D043EA060370472A
:1007700094EA0C0F0CEA135518BF95EA0C0F0CD035
:1007800050EA410618BF52EA4306D1D181EA03017B
:1007900001F000414FF0000070BD50EA410606BF75
:1007A0001046194652EA430619D094EA0C0F02D1BA
:1007B00050EA013613D195EA0C0F05D152EA0336FF
:1007C0001CBF104619460AD181EA030101F000411D
:1007D00041F0FE4141F470014FF0000070BD41F066
:1007E000FE4141F4780170BD70B54FF0FF0C4CF440
:1007F000E06C1CEA11541DBF1CEA135594EA0C0F5F
:1008000095EA0C0F00F0A7F8A4EB050481EA030EAB
:1008100052EA03354FEA013100F088804FEA033392
:100820004FF0805545EA131343EA12634FEA022260
:1008300045EA111545EA10654FEA00260EF0004121
:100840009D4208BF964244F1FD0404F5407402D273
:100850005B084FEA3202B61A65EB03055B084FEA04
:1008600032024FF480104FF4002CB6EB020E75EB01
:10087000030E22BFB61A754640EA0C005B084FEA29
:100880003202B6EB020E75EB030E22BFB61A7546A6
:1008900040EA5C005B084FEA3202B6EB020E75EBF1
:1008A000030E22BFB61A754640EA9C005B084FEA69
:1008B0003202B6EB020E75EB030E22BFB61A754676
:1008C00040EADC0055EA060E18D04FEA051545EA65
:1008D00016754FEA06164FEAC30343EA52734FEA0E
:1008E000C2025FEA1C1CC0D111F4801F0BD141EA87
:1008F00000014FF000004FF0004CB6E711F4801FEC
:1009000004BF01430020B4F1FD0C88BFBCF5E06FCB
:100910003FF6AFAEB5EB030C04BFB6EB020C5FEADB
:10092000500C50F1000041EB045170BD0EF0004E30
:100930004EEA113114EB5C04C2BFD4EB0C0541EA62
:10094000045170BD41F480114FF0000E013C90E65F
:1009500045EA060E8DE60CEA135594EA0C0F08BF23
:1009600095EA0C0F3FF43BAF94EA0C0F0AD150EA22
:1009700001347FF434AF95EA0C0F7FF425AF1046B5
:1009800019462CE795EA0C0F06D152EA03353FF4DD
:10099000FDAE1046194622E750EA410618BF52EA5A
:1009A00043067FF4C5AE50EA41047FF40DAF52EA2E
:1009B00043057FF4EBAE12E74A0011D212F50012A4
:1009C00011D20DD56FF47873B3EB62520ED44FEAA7
:1009D000C12343F0004343EA505323FA02F0704727
:1009E0004FF00000704750EA013002D14FF0FF3065
:1009F00070474FF0000070474FEA4102B2F1E04308
:100A000024BFB3F5001CDCF1FE5C0DD901F0004CF5
:100A10004FEAC0024CEA5070B2F1004F40EB830045
:100A200008BF20F00100704711F0804F21D113F171
:100A30003872BCBF01F00040704741F480114FEAAA
:100A40005252C2F11802C2F1200C10FA0CF320FA33
:100A500002F018BF40F001004FEAC1234FEAD32350
:100A600003FA0CFC40EA0C0023FA02F34FEA4303BA
:100A7000CCE77FEA625307D150EA01331EBF4FF043
:100A8000FE4040F44000704701F0004040F0FE405E
:100A900040F40000704700BF80F0004002E000BF5B
:100AA00081F0004142001FBF5FEA410392EA030F59
:100AB0007FEA226C7FEA236C6AD04FEA1262D2EBA3
:100AC0001363C1BFD218414048404140B8BF5B42A8
:100AD000192B88BF704710F0004F40F4000020F041
:100AE0007F4018BF404211F0004F41F4000121F057
:100AF0007F4118BF494292EA030F3FD0A2F10102A1
:100B000041FA03FC10EB0C00C3F1200301FA03F1DE
:100B100000F0004302D5494260EB4000B0F5000F01
:100B200013D3B0F1807F06D340084FEA310102F1C0
:100B30000102FE2A51D2B1F1004F40EBC25008BF72
:100B400020F0010040EA03007047490040EB00003C
:100B500010F4000FA2F10102EDD1B0FA80FCACF16B
:100B6000080CB2EB0C0200FA0CF0AABF00EBC2506A
:100B700052421843BCBFD0401843704792F0000F58
:100B800081F4000106BF80F400000132013BB5E7AB
:100B90004FEA41037FEA226C18BF7FEA236C21D021
:100BA00092EA030F04D092F0000F08BF0846704786
:100BB00090EA010F1CBF0020704712F07F4F04D154
:100BC000400028BF40F00040704712F100723CBF67
:100BD00000F50000704700F0004343F0FE4040F491
:100BE000000070477FEA226216BF08467FEA23634F
:100BF0000146420206BF5FEA412390EA010F40F43A
:100C0000800070474FF0000304E000BF10F0004385
:100C100048BF40425FEA000C08BF704743F096436C
:100C200001464FF000001CE050EA010208BF704787
:100C30004FF000030AE000BF50EA010208BF70470E
:100C400011F0004302D5404261EB41015FEA010C23
:100C500002BF84460146002043F0B64308BFA3F11B
:100C60008053A3F50003BCFA8CF2083AA3EBC253FD
:100C700010DB01FA02FC634400FA02FCC2F120021C
:100C8000BCF1004F20FA02F243EB020008BF20F053
:100C90000100704702F1200201FA02FCC2F12002B9
:100CA00050EA4C0021FA02F243EB020008BF20EAAE
:100CB000DC7070474FF0FF0C1CEAD0521EBF1CEADC
:100CC000D15392EA0C0F93EA0C0F6FD01A4480EACA
:100CD000010C400218BF5FEA41211ED04FF00063B3
:100CE00043EA501043EA5111A0FB01310CF00040DF
:100CF000B1F5000F3EBF490041EAD3715B0040EA05
:100D0000010062F17F02FD2A1DD8B3F1004F40EBD4
:100D1000C25008BF20F00100704790F0000F0CF0A7
:100D2000004C08BF49024CEA502040EA51207F3A6B
:100D3000C2BFD2F1FF0340EAC250704740F4000046
:100D40004FF00003013A5DDC12F1190FDCBF00F037
:100D500000407047C2F10002410021FA02F1C2F1E5
:100D6000200200FA02FC5FEA310040F1000053EA81
:100D70004C0308BF20EADC70704792F0000F00F0CF
:100D8000004C02BF400010F4000F013AF9D040EAD5
:100D90000C0093F0000F01F0004C02BF490011F469
:100DA000000F013BF9D041EA0C018FE70CEAD15367
:100DB00092EA0C0F18BF93EA0C0F0AD030F0004CE7
:100DC00018BF31F0004CD8D180EA010000F000409B
:100DD000704790F0000F17BF90F0004F084691F059
:100DE000000F91F0004F14D092EA0C0F01D1420293
:100DF0000FD193EA0C0F03D14B0218BF084608D15C
:100E000080EA010000F0004040F0FE4040F40000A5
:100E1000704740F0FE4040F4400070474FF0FF0C38
:100E20001CEAD0521EBF1CEAD15392EA0C0F93EA7F
:100E30000C0F69D0A2EB030280EA010C49024FEAD1
:100E4000402037D04FF0805343EA111143EA10138A
:100E50000CF000408B4238BF5B0042F17D024FF442
:100E6000000C8B4224BF5B1A40EA0C00B3EB510F1D
:100E700024BFA3EB510340EA5C00B3EB910F24BF06
:100E8000A3EB910340EA9C00B3EBD10F24BFA3EB8B
:100E9000D10340EADC001B0118BF5FEA1C1CE0D153
:100EA000FD2A3FF650AF8B4240EBC25008BF20F006
:100EB000010070470CF0004C4CEA50207F32C2BF5A
:100EC000D2F1FF0340EAC250704740F400004FF0F7
:100ED0000003013A37E792F0000F00F0004C02BF28
:100EE000400010F4000F013AF9D040EA0C0093F0F2
:100EF000000F01F0004C02BF490011F4000F013B4C
:100F0000F9D041EA0C0195E70CEAD15392EA0C0FB3
:100F100008D142027FF47DAF93EA0C0F7FF470AFEB
:100F2000084676E793EA0C0F04D14B023FF44CAF2E
:100F300008466EE730F0004C18BF31F0004CCAD1C3
:100F400030F000427FF45CAF31F000437FF43CAFFF
:100F50005FE700BF324B82B01A6842F001001860B0
:100F60005968304A0A405A60186820F0847121F4A8
:100F700080321A60186820F4802119605A684FF492
:100F80001F0122F4FE00002258609960DA6200928C
:100F90000192186840F480311960214B1A6802F4FC
:100FA0000030019000994A1C0092019818B90099EC
:100FB000B1F5A06FF1D11B6813F4003218BF012204
:100FC00001920198012805D0174B4FF000629A60FA
:100FD00002B07047124B596859605A685A60586895
:100FE0005860596821F47C125A60586840F498118E
:100FF00059601A6842F0807018601968084A8901BF
:10100000FBD5536823F003005060516841F00203A0
:101010005360034A506800F00C010829F9D1D3E766
:10102000001002400000FFF800ED00E07047FEE70E
:10103000FEE7FEE7FEE77047704770477047000025
:10104000DFF83CD0002100F004B80E4B5B58435051
:1010500004310D480D4B42189A42FFF4F6AF0C4A8A
:1010600000F003B8002342F8043B0A4B9A42FFF415
:10107000F9AFFFF76FFF01F059FB01F057F8704728
:1010800000100020982700080000002044000020E5
:101090004400002088000020FFF7FEBF10B50F4C71
:1010A0000F4B002220464FF480511A7001F054FA81
:1010B00020464FF4006101F04FFA20464FF4806162
:1010C00001F04AFA20464FF4007101F047FA204639
:1010D0004FF48071BDE8104001F040BA00080140B3
:1010E0007000002010B50F4C0F4B002220464FF42B
:1010F00080511A7001F032FA20464FF4006101F07D
:101100002BFA20464FF4806101F026FA20464FF476
:10111000007101F023FA20464FF48071BDE81040C1
:1011200001F01CBA000801407000002010B50F4CFF
:101130000F4B002220464FF480511A7001F00EFA36
:1011400020464FF4006101F009FA20464FF4806117
:1011500001F002FA20464FF4007101F0FFF9204639
:101160004FF48071BDE8104001F0F8B9000801406B
:101170007000002010B50F4C0F4B002220464FF49A
:1011800080511A7001F0EAF920464FF4006101F035
:10119000E5F920464FF4806101F0DEF920464FF476
:1011A000007101F0D9F920464FF48071BDE810407C
:1011B00001F0D4B9000801407000002010B50F4CB8
:1011C0000F4B002220464FF480511A7001F0C6F9EF
:1011D00020464FF4006101F0C1F920464FF48061D0
:1011E00001F0BAF920464FF4007101F0B5F920463C
:1011F0004FF48071BDE8104001F0AEB90008014025
:101200007000002010B50F4C0F4B012220464FF408
:1012100080511A7001F0A2F920464FF4006101F0EC
:101220009DF920464FF4806101F098F920464FF473
:10123000007101F091F920464FF48071BDE8104033
:1012400001F08AB900080140700000204FF0804092
:1012500010B5012101F05DF8634B186800283DD1FD
:1012600062490A78002A39D0614C2378002B35D1A5
:101270006048022101F070F95E484FF4805101F09E
:101280006BF95C484FF4804101F066F95948202120
:1012900001F062F95748402101F05EF955484FF4DA
:1012A000807101F059F95348012101F055F9514875
:1012B000042101F051F94F484FF4005101F04CF96D
:1012C0004C484FF4004101F047F94A48802101F0B1
:1012D00043F948484FF4007101F03EF94248464B4B
:1012E00001684A1C0260046819688C42044603DDE8
:1012F0004048022101F032F9404A206813689842C0
:1013000004DD3C484FF4805101F028F9364C3C484C
:1013100021680268914204DD36484FF4804101F0B3
:101320001DF9384B21681868814203DD31482021BE
:1013300001F014F92C4C344A21681368994203DDFA
:101340002C48402101F00AF9304920680A6890428F
:1013500004DD28484FF4807101F000F9224B2C483D
:101360001C6801688C421C4603DD2248012101F003
:10137000F5F8284B22681868824203DD1D480421D5
:1013800001F0ECF8184C244A21681368994204DDF6
:1013900018484FF4005101F0E1F8204920680A682C
:1013A000904204DD13484FF4004101F0D7F80E4B92
:1013B0001B481C6801688C421C4603DD0D488021D7
:1013C00001F0CCF8174B22681868824204DD094806
:1013D0004FF4007101F0C2F803490A68B2F5FA6FE0
:1013E00001DB00230B6010BD6C00002064000020B6
:1013F00070000020000C0140180000201C0000209C
:10140000200000202C000020040000200C00002000
:101410000800002010000020140000200000002020
:1014200024000020280000202DE9F0411F4600F094
:1014300020039046DAB2069E079D089C0AB101235C
:101440000B6000F01002D3B213B10122C8F80020E3
:1014500000F00803DAB20AB101233B6000F0040295
:10146000D3B20BB10122326000F00203DAB20AB14A
:1014700001232B60C30701D5012020600A681C48A6
:10148000022112B101F068F801E001F067F8D8F824
:1014900000301748082113B101F05EF801E001F0B7
:1014A0005DF83A681248202112B101F055F801E0C8
:1014B00001F054F833680E48402113B101F04CF8A4
:1014C00001E001F04BF82A680948102112B101F03F
:1014D00043F801E001F042F82368054804211BB1FC
:1014E000BDE8F04101F038B8BDE8F04101F036B890
:1014F000000801400368A3F10E021C2B49D8DFE865
:1015000003F0111414171A1D202326292C2F0F0F56
:101510000F0F0F323436383A3C3E404244444600C6
:10152000026070476FF0370134E06FF01B0131E06B
:101530006FF017012EE06FF013012BE06FF0100138
:1015400028E06FF00E0125E06FF00C0122E06FF053
:1015500009011FE06FF007011CE06FF0050119E0C1
:101560006FF0030116E0042114E0062112E00821C7
:1015700010E00A210EE00D210CE00F210AE01121FC
:1015800008E0142106E0182104E01C2102E03821C3
:1015900000E000210160704730B5082087B00121CC
:1015A000294C00F04FFF18204FF480638DF80300A2
:1015B000032520466946ADF800308DF8025000F052
:1015C0006DFF4FF400614822ADF8001020466946D7
:1015D0008DF803208DF8025000F060FF01214FF4D8
:1015E000802000F03BFFA4F5444400210C204FF480
:1015F0001653ADF81200ADF81010ADF80E10ADF89E
:101600000C10ADF81410204602A9029300F0ACFDB6
:101610002046012100F000FE0121102000F012FF01
:1016200001A800F08BFF02204FF4005204238DF834
:10163000060001A90548ADF804208DF8073000F038
:101640002DFF07B030BD00BF000C0140001001406D
:101650001FB50120014600F001FF372204A90A202E
:10166000002321F80C2DADF808004FF080401C46F7
:10167000ADF80A30ADF8063000F0ECFD01214FF076
:10168000804000F046FE01210A464FF0804000F005
:1016900037FE01214FF0804000F026FE1C2101237F
:1016A00068468DF800108DF803308DF801408DF8F4
:1016B000024001F007F81FBD08B5102000F060FFE0
:1016C000022000F053FF002000F04AFE002000F04E
:1016D0005BFE4FF4806000F04DFE00204FF440119F
:1016E00000F01CFE012000F023FE392000F0C2FEB5
:1016F0000028FAD0022000F021FE00F029FE082880
:10170000FBD108BD000000002DE9F34101900198D4
:10171000FEF7ECFE42A3D3E90023FFF765F8FFF7DD
:101720006BF90546FEF7E2FE3FA3D3E90023FEF77F
:1017300031FFFFF761F901462846FFF7B1F9FEF7DF
:10174000D5FE3BA3D3E90023FEF724FFFFF754F9AE
:10175000044621462846FFF7A3F921468046FFF7B5
:101760009FF921460746FFF79BF921460646FFF7FA
:1017700097F94FF0874105464046FFF79BFAFEF781
:10178000B5FE2DA3D3E90023FFF72EF8FFF714F9D8
:101790002B4B4FF0874118603846FFF78BFAFEF766
:1017A000A5FE25A3D3E90023FFF71EF8FFF704F9F0
:1017B000244908604FF087413046FFF77BFAFEF777
:1017C00095FE1DA3D3E90023FFF70EF8FFF7F4F809
:1017D0001D4A4FF0874110602846FFF76BFAFEF76D
:1017E00085FE15A3D3E90023FEF7FEFFFFF7E4F81B
:1017F000164B214618602846FFF752F94FF08741F3
:10180000FFF758FAFEF772FE0BA3D3E90023FEF7A9
:10181000EBFFFFF7D1F80E490860BDE8FC8100BF7F
:10182000CDCCCCCCCCCC1040B81E85EB51B8E63F2B
:101830009A9999999999C93F6666666666660A405B
:101840008400002074000020780000207C0000202C
:1018500080000020AFF3008007B50121042000F0D4
:10186000F1FD01A800F06AFE1020022141F67E730E
:101870008DF807008DF80610034801A9ADF8043073
:1018800000F00CFE0EBD00BF0008014007B50121AD
:10189000082000F0D7FD01A800F050FE1020022122
:1018A0004FF2E7338DF807008DF80610034801A9C1
:1018B000ADF8043000F0F2FD0EBD00BF000C014099
:1018C00070B5264886B0FFF71FFF0121042000F005
:1018D000B9FD684600F032FE012400252048694623
:1018E000ADF800408DF8035000F0D8FD21464FF4CC
:1018F000007000F0A7FD284600F050FD4FF4602373
:10190000184801A903938DF80940049501958DF8B5
:1019100014408DF8085000F03FFE12482946224638
:10192000022300F081FE0F48214600F059FE0D48C9
:10193000264600F05EFE0B4800F060FE0028FAD15B
:10194000084800F05FFE074800F061FE0128FAD069
:101950000448012100F05FFE06B070BD0000184190
:10196000000801400024014082B00190019B41F237
:101970008832534301930198411E01910028FAD106
:1019800002B0704738B50C4D0C4B7E21012200246B
:1019900028461C6000F0E4FD4FF4FA70FFF7E4FF06
:1019A00028467E21224600F0DBFD4FF4FA70BDE8A8
:1019B0003840FFF7D9BF00BF000801406800002091
:1019C00008B505484FF4005100F0C0FD18B9BDE856
:1019D0000840FFF7D7BF08BD0010014010B51D4BF0
:1019E0001D4C01221A60204600227E2100F0B8FD25
:1019F0000221204600F0B0FDC820FFF7B5FF082106
:101A0000204600F0A9FDC820FFF7AEFF20212046A8
:101A100000F0A2FDC820FFF7A7FF4021204600F0FC
:101A20009BFDC820FFF7A0FF1021204600F094FD89
:101A3000C820FFF799FF0421204600F08DFDC82043
:101A4000FFF792FF20467E210022BDE8104000F003
:101A500087BD00BF680000200008014008B50748A6
:101A60004FF4005100F072FD012803D1BDE8084099
:101A7000FFF7B4BFBDE80840FFF784BF0010014086
:101A800030B50F2AD4BF22EAE2720F228BB00023B6
:101A9000C2F10F020C465500049305930693079379
:101AA0000893099307A908AA09AB00910192029330
:101AB00004A905AA06ABFFF7B7FC14F1320F03DB4C
:101AC000502CA8BF502401E06FF031042846FFF7E6
:101AD0004BFF049888B13A4B04F164011A68186806
:101AE000914201DB013005E004F16502824204DA33
:101AF0001968481E1860002000E00120059B83B192
:101B0000304B04F165011A6891421A6801DB013219
:101B100005E004F16601914203DA1868421E1A607A
:101B20000020069B83B1284BC4F1AC011A68914296
:101B30001A6801DB013205E0C4F1AD01914203DA1C
:101B40001868421E1A600020079B83B11F4B04F1E6
:101B500063011A6891421A6801DB013205E004F161
:101B60006401914203DA1868421E1A600020089B43
:101B700083B1174BC4F1A9011A6891421A6801DBBD
:101B8000013205E0C4F1AA01914203DA1868421E4D
:101B90001A600020099B83B10E4BC4F1AB011A6897
:101BA00091421A6801DB511C05E0C4F1AC04944277
:101BB00003DA1868411E196000200BB030BD00BF69
:101BC000180000201C000020200000202C00002015
:101BD000040000200C0000202DE9F0430F2AD4BFA0
:101BE00022EAE2720F228BB0C2F10F020C461E46AF
:101BF00007A9002308AD4FEA420909AA04930593F7
:101C0000069307930893099300910195029204A902
:101C100005AA06AB9DF848706542FFF705FC002E4B
:101C200006DC012F00F0858046B1022F09D190E03B
:101C3000022F00F09180012F03D182E0022F00F0EB
:101C40008B80A8462F4626464846FFF78DFE04980F
:101C500088B1464B06F195011A681868914201DB7C
:101C6000013005E006F19602824204DA1968481E46
:101C70001860002000E00120059B7BB13C4B05F182
:101C800095011A6891421A6801DB511C04E09635EF
:101C9000954203DA1868411E19600020069B7BB14B
:101CA000344B06F195011A6891421A6801DB511C08
:101CB00004E09636964203DA1868411E1960002047
:101CC000079B83B12C4B07F195011A6891421A6862
:101CD00001DB013205E007F19601914203DA186851
:101CE000421E1A600020089B83B1244B08F1950125
:101CF0001A6891421A6801DB511C05E008F1960848
:101D0000904503DA1868411E19600020099B4BB307
:101D10001B4B07F195011A6891421A6801DB511CAF
:101D200004E0963797421DDA1868411E19600020BA
:101D300018E0002C00DB7642361B2F46A0463546C5
:101D400082E7002C00DA7642371BC6EB04082E46E9
:101D50007AE7002C04DAF7E7002CECDBECD1EAE7B9
:101D6000F1DCF1E70BB0BDE8F08300BF0800002014
:101D7000100000201400002000000020240000209B
:101D80002800002037B50625012400210F22204617
:101D9000FFF776FE01280FD1002100900F22204688
:101DA0000B46FFF719FF012806D16400013DE4B29C
:101DB000EBD10E4805603EBD23210D222046FFF7E2
:101DC0005FFE0128F8D10123002100930D22204657
:101DD0000B46FFF701FF0128F5D100210D22204617
:101DE000FFF74EFE0128F8D1DFE700BF60000020BA
:101DF000F0B53E4F14463B680E28B4BF02460E2293
:101E00000A2B85B00E4602DD3868102805DD0392E6
:101E1000FFF7B8FF0B21039A39603B68334D0B2B5A
:101E200007D12A201921FFF72BFE01285BD10C21B5
:101E30000EE028680C280DD1012C0BD100943F2016
:101E40006FF01B013346FFF7C7FE01284BD10D2170
:101E5000296048E0254D29682B460C2905D1022C24
:101E600003D100943F201C21ECE718681F4D0D287A
:101E700007D12A200021FFF703FE012833D10E21CC
:101E8000E6E729680E2907D115201921FFF7F8FD8B
:101E9000012828D10F21DBE72B680F2B05D1012C5E
:101EA00003D100943F201C210AE0104D28682946E8
:101EB0000F280CD1022C0AD100943F206FF01B0197
:101EC0003346FFF789FE01280DD11021C0E70B68CA
:101ED000102B08D115200021FFF7D2FD012802D1D7
:101EE00002480B22026005B0F0BD00BF6000002078
:101EF0002DE9FF416748202100F0A2F9002800F0F9
:101F0000C680644800F098F9C0F38F10002870D1A3
:101F10006048202100F09AF95E4800F08DF90446EF
:101F20005C48202100F08CF90028F9D0594800F0D5
:101F300083F9C0F38F13022B59D15648202100F0AA
:101F400085F9544800F078F907465248202100F0FE
:101F500077F90028F9D04F4800F06EF9C0F38F12DE
:101F6000022A44D120214B4800F070F9494800F082
:101F700063F90646474800F05FF98046454820214E
:101F800000F05EF90028F9D0424800F055F9C0F39E
:101F90008F1003282BD120213E4800F057F93D48EF
:101FA00000F04AF93C4900F001053A480D7000F094
:101FB00043F908F01F08394AC0F34405002304F030
:101FC0003F0401204FEA480113601E3900902A4661
:101FD0002046FFF701FE07F03F0359003239C6F3F0
:101FE0004016204689192A46FFF74AFD4FE0294846
:101FF0004AE0284800F020F9C0F38F110129F6D1FA
:102000002448202100F022F9224800F015F9C0F3FD
:1020100083035A00054603921E48202100F010F960
:102020000028F9D01B4800F007F9C0F38F100328EF
:10203000184829D100F000F9174E00F001041548A6
:10204000347000F0F9F8C0F343041248039E00F026
:10205000F3F8C0F34011761804A840F8046DFFF7B8
:1020600049FA05F00302032A03D12046FFF78AFE4E
:102070000DE012B12046039903E0039939B12046DF
:102080000122FFF7B5FE02E0202100F0DFF8BDE8F5
:10209000FF8100BF00480040640000206000002075
:1020A00007B51A4B1A4AD86C0109019113681948EF
:1020B00099B200F0BDF8184901980A68904202D21E
:1020C000FFF7A0F821E0154B01981968884202D269
:1020D000FFF774F819E01248019A03689A4202D295
:1020E000FFF748F811E00F4A01991068814202D2C7
:1020F000FFF71CF809E00C4B01991A68914202D2D3
:10210000FEF7F0FF01E0FEF7C9FF0EBD002401401D
:102110006000002000480040800000207C0000207B
:1021200078000020740000208400002008B5FFF72C
:10213000C3FAFFF791FBFFF7A9FBFFF7C1FBFFF71E
:1021400087FAFFF729FAFFF7ABFFFFF787FC054B8C
:1021500018680128F7D1FFF7A3FFFFF7C9FEFFF7C3
:102160002FFCF4E768000020038A30B50D460446D2
:10217000EA8898B220F4405111432182A38928892A
:10218000A98823F4B05340EA0102688923F00C01C6
:1021900002430804030C1A4391B2A181A08AAA89C0
:1021A00083B223F4407187B01143A18201A800F0EB
:1021B000FFF81848A38984420CBF0498039819B209
:1021C00000294FF019032A6803FB00F001DA5100DF
:1021D00000E09100B0FBF1F16423B1FBF3F21201D6
:1021E000100903FB1011A08900B2002806DAC9000B
:1021F0003231B1FBF3F303F0070005E0090132319E
:10220000B1FBF3F303F00F00024390B2208107B05B
:1022100030BD00BF00380140838919B199B241F443
:10222000005303E023F400510A04130C8381704728
:10223000C905CA0D828070478088C105C80D7047E6
:10224000038819420CBF002001207047C9438AB29D
:1022500002807047224A038890429BB212D002F556
:10226000006290420ED0B0F1804F0BD0A2F59832B0
:10227000904207D002F58062904203D002F580625E
:10228000904203D14A8823F070031343154A9042C9
:1022900008D002F58062904204D023F44073CA88CB
:1022A0009BB2134303808B880A8883850C4B02857D
:1022B00098420FD003F5006290420BD002F54063C4
:1022C000984207D003F58062904203D002F5806304
:1022D000984201D1097A018601228282704700BFAB
:1022E000002C014000100040038819B199B241F060
:1022F000010303E023F001010A04130C038070477B
:1023000083899BB20AB1194301E023EA010181816B
:102310007047C9438AB2028270470000034B5A6873
:1023200022F47412104301435960704700100240B8
:10233000014B1860704700BF60004242034B5A686F
:1023400022F0030108435860704700BF00100240AC
:10235000024B586800F00C00704700BF00100240AC
:10236000034B5A6822F0F00108435860704700BFE1
:1023700000100240034B5A6822F4E06108435860A1
:10238000704700BF00100240034B5A6822F46051AE
:1023900041EAC0005860704700100240034B5A6881
:1023A00022F4404108435860704700BF00100240CB
:1023B0001F4B10B55A6802F00C01042901D00829FE
:1023C00002D01C4C046011E05C685968C4F383427D
:1023D000941CC90301D4184906E0DB6A03F00F011D
:1023E000144B4A1CB3FBF2F14C430460104B1349ED
:1023F0005A68C2F303140C5D026822FA04F24260C8
:102400005C68C4F302240C5D22FA04F484605C6806
:10241000C4F3C224095D22FA01F2C2605B68084974
:10242000C3F38133CB5CB2FBF3F2026110BD00BF9A
:102430000010024000127A0000093D003400002024
:1024400030000020044B9A6909B1104301E022EAF0
:1024500000009861704700BF00100240044BDA6929
:1024600009B1104301E022EA0000D861704700BFC3
:10247000001002404309012B074A01D1136803E011
:10248000022B0CBF136A536A00F01F0023FA00F1FD
:1024900001F00100704700BF00100240CB78F0B59A
:1024A000DA0648BF8A78098803F00F0548BF15434C
:1024B00011F0FF0F1ED004680022012707FA02F76F
:1024C00007EA0106BE4211D197004FF00F0C0CFA3B
:1024D00007FC05FA07F724EA0C04282B44EA070452
:1024E00001D1466102E0482B08BF06610132082A8B
:1024F000E3D10460FF2920D94468002202F10806D4
:10250000012707FA06F707EA0106BE4211D1970034
:102510004FF00F0C0CFA07FC05FA07F724EA0C043D
:10252000282B44EA070401D1466102E0482B08BF8A
:1025300006610132082AE1D14460F0BD4FF6FF7315
:102540000221042203808170C2707047836819429F
:102550000CBF002001207047016170474161704746
:102560000AB101617047416170470000034B1A686E
:1025700002F0380108431860704700BF0020024095
:10258000044B1A6822F0100119601A681043186091
:10259000704700BF00200240426810B522F470234B
:1025A0000A6823F4807444EA02030C7943EA0422A3
:1025B0004260CB688A6884681A43084B23401343FF
:1025C0004A7943EA42038360097CC26A4B1E22F4C3
:1025D0007002D9B242EA0152C26210BDFDF7F1FFAA
:1025E000836811B143F0010101E023F00101816032
:1025F0007047836843F00801816070478068C0F3CA
:10260000C0007047836843F00401816070478068B0
:10261000C0F380007047836811B143F4A00101E06A
:1026200023F4A00181607047092970B54FF00304BD
:102630000CD94C4307251E3C05FA04F503FA04F3B4
:10264000C66826EA05052B43C3600BE04C4307250B
:1026500005FA04F503FA04F3066926EA050545EAD6
:1026600003040461062A4FF005030DD8013A5343D1
:102670001F2202FA03F201FA03F1446B24EA020278
:1026800042EA0103436370BD0C2A0DD853431F2255
:10269000233B02FA03F201FA03F1046B24EA02027B
:1026A00042EA0103036370BD53431F22413B02FA18
:1026B00003F201FA03F1C46A24EA02021143C1627F
:1026C00070BD0000C37810B503B3164CE168CB436E
:1026D000C3F302244178C4F1040201FA02F10F228B
:1026E00022FA04F28478037822400A43110103F1AC
:1026F0006043CAB203F5614181F8002300780122EA
:1027000000F01F03410902FA03F007E000780122FC
:1027100000F01F03410902FA03F02031024B43F895
:10272000210010BD00ED00E000E100E038B50E4DE5
:102730000E4B0024E81A8510AC4205D00B4951F825
:10274000242090470134F7E700F016F80849094AB9
:10275000541AA5100024AC4205D0054B53F82400B0
:1027600080470134F7E738BD90270008902700081C
:102770009027000894270008F8B500BFF8BC08BCF3
:102780009E467047F8B500BFF8BC08BC9E4670472F
:04279000F501000847
:04279400D101000867
:1027980096000000AA00000096000000AC000000AF
:1027A800960000009600000065000000660000002A
:1027B800AD000000960000009600000064000000D4
:1027C80002040608000000000102030401020304D9
:0427D80006070809DF
:04000005080010419E
:00000001FF
