:020000040800F2
:1000000000100020411000082D1000082F100008DB
:1000100031100008331000083510000800000000FF
:100020000000000000000000000000003710000881
:1000300039100008000000003B1000083D100008C7
:1000400099100008991000089910000899100008EC
:1000500099100008991000089910000899100008DC
:1000600099100008991000089910000899100008CC
:1000700099100008991000089910000899100008BC
:10008000991000089910000899100008000000005D
:1000900000000000000000000000000099100008AF
:1000A000991000089910000899100008991000088C
:1000B000391200089910000800000000991000088B
:1000C00099100008000000000000000099100008CE
:1000D00000000000991000089910000800000000BE
:1000E00099100008991000089910000800000000FD
:1000F0000000000000000000000000000000000000
:1001000000000000000000000000000000000000EF
:10011000000000000000000099100008991000087D
:1001200000000000000000000000000000000000CF
:1001300000000000000000000000000000000000BF
:1001400000000000000000000000000000000000AF
:10015000000000000000000000000000000000009F
:10016000000000000000000000000000000000008F
:10017000000000000000000000000000000000007F
:10018000000000000000000000000000000000006F
:10019000000000000000000000000000000000005F
:1001A000000000000000000000000000000000004F
:1001B000000000000000000000000000000000003F
:1001C0000000000000000000000000005FF808F1DF
:1001D00010B5054C237833B9044810B10448AFF387
:1001E00000800121217010BD4400002000000000AB
:1001F0009423000808B5064B1BB106480649AFF327
:1002000000800648016811B1054A02B1904708BD57
:100210000000000094230008480000204400002053
:100220000000000081F0004102E000BF83F00043C5
:1002300030B54FEA41044FEA430594EA050F08BF81
:1002400090EA020F1FBF54EA000C55EA020C7FEA45
:10025000645C7FEA655C00F0E2804FEA5454D4EBC2
:100260005555B8BF6D420CDD2C4480EA020281EA8C
:10027000030382EA000083EA010180EA020281EAC4
:100280000303362D88BF30BD11F0004F4FEA013116
:100290004FF4801C4CEA113102D0404261EB410125
:1002A00013F0004F4FEA03334CEA133302D05242AB
:1002B00063EB430394EA050F00F0A780A4F1010467
:1002C000D5F1200E0DDB02FA0EFC22FA05F28018A1
:1002D00041F1000103FA0EF2801843FA05F3594187
:1002E0000EE0A5F120050EF1200E012A03FA0EFC06
:1002F00028BF4CF0020C43FA05F3C01851EBE37130
:1003000001F0004507D54FF0000EDCF1000C7EEB4C
:1003100000006EEB0101B1F5801F1BD3B1F5001F8A
:100320000CD349085FEA30004FEA3C0C04F10104A9
:100330004FEA445212F5800F80F09A80BCF1004FD2
:1003400008BF5FEA500C50F1000041EB045141EA54
:10035000050130BD5FEA4C0C404141EB010111F455
:10036000801FA4F10104E9D191F0000F04BF014600
:100370000020B1FA81F308BF2033A3F10B03B3F1DE
:1003800020020CDA0C3208DD02F1140CC2F10C026E
:1003900001FA0CF021FA02F10CE002F11402D8BFCC
:1003A000C2F1200C01FA02F120FA0CFCDCBF41EA98
:1003B0000C019040E41AA2BF01EB0451294330BD67
:1003C0006FEA04041F3C1CDA0C340EDC04F1140444
:1003D000C4F1200220FA04F001FA02F340EA03001B
:1003E00021FA04F345EA030130BDC4F10C04C4F161
:1003F000200220FA02F001FA04F340EA0300294641
:1004000030BD21FA04F0294630BD94F0000F83F48A
:10041000801306BF81F480110134013D4EE77FEA6D
:10042000645C18BF7FEA655C29D094EA050F08BFB9
:1004300090EA020F05D054EA000C04BF194610469A
:1004400030BD91EA030F1EBF0021002030BD5FEADE
:10045000545C05D14000494128BF41F0004130BD06
:1004600014F580043CBF01F5801130BD01F000455A
:1004700045F0FE4141F470014FF0000030BD7FEACD
:10048000645C1ABF194610467FEA655C1CBF0B46C8
:10049000024650EA013406BF52EA033591EA030FDF
:1004A00041F4002130BD00BF90F0000F04BF0021D7
:1004B000704730B54FF4806404F132044FF000050A
:1004C0004FF0000150E700BF90F0000F04BF002183
:1004D000704730B54FF4806404F1320410F00045E9
:1004E00048BF40424FF000013EE700BF42004FEAE4
:1004F000E2014FEA31014FEA02701FBF12F07F4361
:1005000093F07F4F81F06051704792F0000F14BF5D
:1005100093F07F4F704730B54FF4607401F00045A1
:1005200021F0004120E700BF50EA010208BF7047F8
:1005300030B54FF000050AE050EA010208BF7047ED
:1005400030B511F0004502D5404261EB41014FF456
:10055000806404F132045FEA915C3FF4DCAE4FF05A
:1005600003025FEADC0C18BF03325FEADC0C18BF41
:10057000033202EBDC02C2F1200300FA03FC20FA92
:1005800002F001FA03FE40EA0E0021FA02F11444DF
:10059000C1E600BF70B54FF0FF0C4CF4E06C1CEAF4
:1005A00011541DBF1CEA135594EA0C0F95EA0C0F69
:1005B00000F0DEF82C4481EA030621EA4C5123EADC
:1005C0004C5350EA013518BF52EA033541F480110B
:1005D00043F4801338D0A0FB02CE4FF00005E1FBBE
:1005E00002E506F00042E0FB03E54FF00006E1FB08
:1005F00003569CF0000F18BF4EF0010EA4F1FF044B
:10060000B6F5007F64F5407404D25FEA4E0E6D418A
:1006100046EB060642EAC62141EA55514FEAC5209B
:1006200040EA5E504FEACE2EB4F1FD0C88BFBCF517
:10063000E06F1ED8BEF1004F08BF5FEA500E50F1C8
:10064000000041EB045170BD06F0004646EA01018E
:1006500040EA020081EA0301B4EB5C04C2BFD4EBC0
:100660000C0541EA045170BD41F480114FF0000EB9
:10067000013C00F3AB8014F1360FDEBF002001F027
:10068000004170BDC4F10004203C35DA0C341BDCA1
:1006900004F11404C4F1200500FA05F320FA04F073
:1006A00001FA05F240EA020001F0004221F00041A7
:1006B00010EBD37021FA04F642EB06015EEA430E1A
:1006C00008BF20EAD37070BDC4F10C04C4F120054A
:1006D00000FA04F320FA05F001FA04F240EA0200FD
:1006E00001F0004110EBD37041F100015EEA430ECE
:1006F00008BF20EAD37070BDC4F1200500FA05F2EE
:100700004EEA020E20FA04F301FA05F243EA02036C
:1007100021FA04F001F0004121FA04F220EA02007B
:1007200000EBD3705EEA430E08BF20EAD37070BDC1
:1007300094F0000F0FD101F00046400041EB0101A1
:1007400011F4801F08BF013CF7D041EA060195F083
:10075000000F18BF704703F00046520043EB03033D
:1007600013F4801F08BF013DF7D043EA060370472A
:1007700094EA0C0F0CEA135518BF95EA0C0F0CD035
:1007800050EA410618BF52EA4306D1D181EA03017B
:1007900001F000414FF0000070BD50EA410606BF75
:1007A0001046194652EA430619D094EA0C0F02D1BA
:1007B00050EA013613D195EA0C0F05D152EA0336FF
:1007C0001CBF104619460AD181EA030101F000411D
:1007D00041F0FE4141F470014FF0000070BD41F066
:1007E000FE4141F4780170BD70B54FF0FF0C4CF440
:1007F000E06C1CEA11541DBF1CEA135594EA0C0F5F
:1008000095EA0C0F00F0A7F8A4EB050481EA030EAB
:1008100052EA03354FEA013100F088804FEA033392
:100820004FF0805545EA131343EA12634FEA022260
:1008300045EA111545EA10654FEA00260EF0004121
:100840009D4208BF964244F1FD0404F5407402D273
:100850005B084FEA3202B61A65EB03055B084FEA04
:1008600032024FF480104FF4002CB6EB020E75EB01
:10087000030E22BFB61A754640EA0C005B084FEA29
:100880003202B6EB020E75EB030E22BFB61A7546A6
:1008900040EA5C005B084FEA3202B6EB020E75EBF1
:1008A000030E22BFB61A754640EA9C005B084FEA69
:1008B0003202B6EB020E75EB030E22BFB61A754676
:1008C00040EADC0055EA060E18D04FEA051545EA65
:1008D00016754FEA06164FEAC30343EA52734FEA0E
:1008E000C2025FEA1C1CC0D111F4801F0BD141EA87
:1008F00000014FF000004FF0004CB6E711F4801FEC
:1009000004BF01430020B4F1FD0C88BFBCF5E06FCB
:100910003FF6AFAEB5EB030C04BFB6EB020C5FEADB
:10092000500C50F1000041EB045170BD0EF0004E30
:100930004EEA113114EB5C04C2BFD4EB0C0541EA62
:10094000045170BD41F480114FF0000E013C90E65F
:1009500045EA060E8DE60CEA135594EA0C0F08BF23
:1009600095EA0C0F3FF43BAF94EA0C0F0AD150EA22
:1009700001347FF434AF95EA0C0F7FF425AF1046B5
:1009800019462CE795EA0C0F06D152EA03353FF4DD
:10099000FDAE1046194622E750EA410618BF52EA5A
:1009A00043067FF4C5AE50EA41047FF40DAF52EA2E
:1009B00043057FF4EBAE12E74A0011D212F50012A4
:1009C00011D20DD56FF47873B3EB62520ED44FEAA7
:1009D000C12343F0004343EA505323FA02F0704727
:1009E0004FF00000704750EA013002D14FF0FF3065
:1009F00070474FF0000070474FEA4102B2F1E04308
:100A000024BFB3F5001CDCF1FE5C0DD901F0004CF5
:100A10004FEAC0024CEA5070B2F1004F40EB830045
:100A200008BF20F00100704711F0804F21D113F171
:100A30003872BCBF01F00040704741F480114FEAAA
:100A40005252C2F11802C2F1200C10FA0CF320FA33
:100A500002F018BF40F001004FEAC1234FEAD32350
:100A600003FA0CFC40EA0C0023FA02F34FEA4303BA
:100A7000CCE77FEA625307D150EA01331EBF4FF043
:100A8000FE4040F44000704701F0004040F0FE405E
:100A900040F40000704700BF80F0004002E000BF5B
:100AA00081F0004142001FBF5FEA410392EA030F59
:100AB0007FEA226C7FEA236C6AD04FEA1262D2EBA3
:100AC0001363C1BFD218414048404140B8BF5B42A8
:100AD000192B88BF704710F0004F40F4000020F041
:100AE0007F4018BF404211F0004F41F4000121F057
:100AF0007F4118BF494292EA030F3FD0A2F10102A1
:100B000041FA03FC10EB0C00C3F1200301FA03F1DE
:100B100000F0004302D5494260EB4000B0F5000F01
:100B200013D3B0F1807F06D340084FEA310102F1C0
:100B30000102FE2A51D2B1F1004F40EBC25008BF72
:100B400020F0010040EA03007047490040EB00003C
:100B500010F4000FA2F10102EDD1B0FA80FCACF16B
:100B6000080CB2EB0C0200FA0CF0AABF00EBC2506A
:100B700052421843BCBFD0401843704792F0000F58
:100B800081F4000106BF80F400000132013BB5E7AB
:100B90004FEA41037FEA226C18BF7FEA236C21D021
:100BA00092EA030F04D092F0000F08BF0846704786
:100BB00090EA010F1CBF0020704712F07F4F04D154
:100BC000400028BF40F00040704712F100723CBF67
:100BD00000F50000704700F0004343F0FE4040F491
:100BE000000070477FEA226216BF08467FEA23634F
:100BF0000146420206BF5FEA412390EA010F40F43A
:100C0000800070474FF0000304E000BF10F0004385
:100C100048BF40425FEA000C08BF704743F096436C
:100C200001464FF000001CE050EA010208BF704787
:100C30004FF000030AE000BF50EA010208BF70470E
:100C400011F0004302D5404261EB41015FEA010C23
:100C500002BF84460146002043F0B64308BFA3F11B
:100C60008053A3F50003BCFA8CF2083AA3EBC253FD
:100C700010DB01FA02FC634400FA02FCC2F120021C
:100C8000BCF1004F20FA02F243EB020008BF20F053
:100C90000100704702F1200201FA02FCC2F12002B9
:100CA00050EA4C0021FA02F243EB020008BF20EAAE
:100CB000DC7070474FF0FF0C1CEAD0521EBF1CEADC
:100CC000D15392EA0C0F93EA0C0F6FD01A4480EACA
:100CD000010C400218BF5FEA41211ED04FF00063B3
:100CE00043EA501043EA5111A0FB01310CF00040DF
:100CF000B1F5000F3EBF490041EAD3715B0040EA05
:100D0000010062F17F02FD2A1DD8B3F1004F40EBD4
:100D1000C25008BF20F00100704790F0000F0CF0A7
:100D2000004C08BF49024CEA502040EA51207F3A6B
:100D3000C2BFD2F1FF0340EAC250704740F4000046
:100D40004FF00003013A5DDC12F1190FDCBF00F037
:100D500000407047C2F10002410021FA02F1C2F1E5
:100D6000200200FA02FC5FEA310040F1000053EA81
:100D70004C0308BF20EADC70704792F0000F00F0CF
:100D8000004C02BF400010F4000F013AF9D040EAD5
:100D90000C0093F0000F01F0004C02BF490011F469
:100DA000000F013BF9D041EA0C018FE70CEAD15367
:100DB00092EA0C0F18BF93EA0C0F0AD030F0004CE7
:100DC00018BF31F0004CD8D180EA010000F000409B
:100DD000704790F0000F17BF90F0004F084691F059
:100DE000000F91F0004F14D092EA0C0F01D1420293
:100DF0000FD193EA0C0F03D14B0218BF084608D15C
:100E000080EA010000F0004040F0FE4040F40000A5
:100E1000704740F0FE4040F4400070474FF0FF0C38
:100E20001CEAD0521EBF1CEAD15392EA0C0F93EA7F
:100E30000C0F69D0A2EB030280EA010C49024FEAD1
:100E4000402037D04FF0805343EA111143EA10138A
:100E50000CF000408B4238BF5B0042F17D024FF442
:100E6000000C8B4224BF5B1A40EA0C00B3EB510F1D
:100E700024BFA3EB510340EA5C00B3EB910F24BF06
:100E8000A3EB910340EA9C00B3EBD10F24BFA3EB8B
:100E9000D10340EADC001B0118BF5FEA1C1CE0D153
:100EA000FD2A3FF650AF8B4240EBC25008BF20F006
:100EB000010070470CF0004C4CEA50207F32C2BF5A
:100EC000D2F1FF0340EAC250704740F400004FF0F7
:100ED0000003013A37E792F0000F00F0004C02BF28
:100EE000400010F4000F013AF9D040EA0C0093F0F2
:100EF000000F01F0004C02BF490011F4000F013B4C
:100F0000F9D041EA0C0195E70CEAD15392EA0C0FB3
:100F100008D142027FF47DAF93EA0C0F7FF470AFEB
:100F2000084676E793EA0C0F04D14B023FF44CAF2E
:100F300008466EE730F0004C18BF31F0004CCAD1C3
:100F400030F000427FF45CAF31F000437FF43CAFFF
:100F50005FE700BF324B82B01A6842F001001860B0
:100F60005968304A0A405A60186820F0847121F4A8
:100F700080321A60186820F4802119605A684FF492
:100F80001F0122F4FE00002258609960DA6200928C
:100F90000192186840F480311960214B1A6802F4FC
:100FA0000030019000994A1C0092019818B90099EC
:100FB000B1F5A06FF1D11B6813F4003218BF012204
:100FC00001920198012805D0174B4FF000629A60FA
:100FD00002B07047124B596859605A685A60586895
:100FE0005860596821F47C125A60586840F498118E
:100FF00059601A6842F0807018601968084A8901BF
:10100000FBD5536823F003005060516841F00203A0
:101010005360034A506800F00C010829F9D1D3E766
:10102000001002400000FFF800ED00E07047FEE70E
:10103000FEE7FEE7FEE77047704770477047000025
:10104000DFF83CD0002100F004B80E4B5B58435051
:1010500004310D480D4B42189A42FFF4F6AF0C4A8A
:1010600000F003B8002342F8043B0A4B9A42FFF415
:10107000F9AFFFF76FFF01F067F900F0E5FE704789
:1010800000100020B42300080000002044000020CD
:101090004400002078000020FFF7FEBF82B00190DE
:1010A000019B4FF49672534301930198411E0191A5
:1010B0000028FAD102B0704710B50E4C4FF48051A1
:1010C000204601F073F820464FF4006101F06EF8FD
:1010D00020464FF4806101F069F820464FF400711A
:1010E00001F066F820464FF48071BDE8104001F031
:1010F0005FB800BF0008014010B50E4C4FF480519E
:10110000204601F055F820464FF4006101F04EF8FA
:1011100020464FF4806101F049F820464FF40071F9
:1011200001F046F820464FF48071BDE8104001F010
:101130003FB800BF0008014010B50E4C4FF480517D
:10114000204601F035F820464FF4006101F030F8F8
:1011500020464FF4806101F029F820464FF40071D9
:1011600001F026F820464FF48071BDE8104001F0F0
:101170001FB800BF0008014010B50E4C4FF480515D
:10118000204601F015F820464FF4006101F010F8F8
:1011900020464FF4806101F009F820464FF40071B9
:1011A00001F004F820464FF48071BDE8104000F0D3
:1011B000FFBF00BF0008014010B50E4C4FF4805136
:1011C000204600F0F5FF20464FF4006100F0F0FFEC
:1011D00020464FF4806100F0E9FF20464FF4007193
:1011E00000F0E4FF20464FF48071BDE8104000F0AD
:1011F000DDBF00BF0008014010B50E4C4FF4805118
:10120000204600F0D5FF20464FF4006100F0D0FFEB
:1012100020464FF4806100F0CBFF20464FF4007170
:1012200000F0C4FF20464FF48071BDE8104000F08C
:10123000BDBF00BF00080140012110B54FF0804044
:1012400000F0EBFE7D4B7E4C1A68501C186019684C
:1012500022681C46914204D27A48022100F0A6FF7F
:1012600007E01B68B3F5C87F03D27648022100F07F
:101270009FFF754920680A68904204D27148042192
:1012800000F094FF08E06D4C2368B3F5C87F03D2EB
:101290006C48042100F08CFF684C6C4920680A6897
:1012A000904205D267484FF4005100F07FFF08E0FC
:1012B0002368B3F5C87F04D262484FF4005100F0B0
:1012C00077FF6348246801688C4204D25D4820217E
:1012D00000F06CFF08E0594A1368B3F5C87F03D2E9
:1012E0005848202100F064FF544C5A4920680A688D
:1012F000904204D25348402100F058FF07E0236891
:10130000B3F5C87F03D24F48402100F051FF524847
:10131000246801688C4205D24A484FF4807100F07D
:1013200045FF09E0454A1368B3F5C87F04D2454834
:101330004FF4807100F03CFF404C484920680A6837
:10134000904204D23F48012100F030FF07E02368BB
:10135000B3F5C87F03D23B48012100F029FF404884
:10136000246801688C4205D236484FF4805100F061
:101370001DFF09E0314A1368B3F5C87F04D2314834
:101380004FF4805100F014FF2C4C364920680A6855
:10139000904205D22B484FF4804100F007FF08E04F
:1013A0002368B3F5C87F04D226484FF4804100F08B
:1013B000FFFE2D48246801688C4205D221484FF475
:1013C000004100F0F3FE09E01C4A1368B3F5C87F42
:1013D00004D21C484FF4004100F0EAFE174C2349A8
:1013E00020680A68904204D21648802100F0DEFE90
:1013F00007E02368B3F5C87F03D21248802100F0CC
:10140000D7FE1B48246801688C4240F28F1405D235
:101410000C484FF4007100F0C9FE08E0074A136859
:10142000A34204D807484FF4007100F0C1FE0348FE
:101430000168A14201D90022026010BD60000020B5
:1014400014000020000C01401800002020000020A3
:101450002C000020040000200C00002008000020C8
:10146000100000201C0000200000002024000020AC
:101470002800002010B5164CC0F1040024680C1B95
:1014800094FBF0F41C60134B1C680B1B93FBF0F4F3
:10149000029B1C60104B1B68C91A039B91FBF0F167
:1014A00019600E490B68D11A049B91FBF0F1196089
:1014B0000B490B68D11A059B91FBF0F119600949A2
:1014C0000B680699D21A92FBF0F0086010BD00BFBD
:1014D0001400002018000020200000202C00002014
:1014E000040000200C00002010B5154CC0F10400D1
:1014F00024680C1B94FBF0F41460124A12688A1AD8
:1015000092FBF0F21A60104B1A688B1A93FBF0F200
:10151000029B1A600D4A1368CA1A039B92FBF0F2F1
:101520001A600B4A1368CA1A049B92FBF0F21A6005
:10153000084A1368059AC91A91FBF0F0106010BDB3
:1015400008000020100000201C00002000000020E7
:101550002400002028000020013810B5052815D8E7
:10156000DFE800F00306090B0E1101240C6010BD2A
:101570000123136010BD012207E00122029B04E059
:101580000122039B01E0049B01221A6010BD0000B0
:101590002DE9F04F87B0109F119E129D4FF00A0B5E
:1015A000044690FBFBF00BFB104000970196029560
:1015B0008A4691469846FFF7CFFF4FF0640C94FBA4
:1015C000FCF10CFB1142434692FBFBF051464FF4F9
:1015D0007A7B4A46009701960295CDF814C0FFF732
:1015E000BBFF94FBFBF30BFB1340DDF814C051462B
:1015F00090FBFCF04A464346009701960295FFF7A0
:10160000ABFF42F2107C94FBFCF10CFB114292FB0D
:10161000FBF0DFF860B051464A464346009701961A
:101620000295CDF814C0FFF797FF94FBFBF30BFB7B
:101630001340DDF814C0514690FBFCF04A46434687
:10164000009701960295FFF787FF0949109794FBD1
:10165000F1F201FB1243514693FBFBF04A4643462D
:101660001196129507B0BDE8F04FFFF775BF00BFA8
:1016700040420F00A086010070B592B00E4615469C
:1016800009AB0AA90BAA002400930191029206A9B2
:1016900007AA08AB06940794089409940A940B943B
:1016A000FFF776FF0DA80C940D940E940F941094F0
:1016B00011940090C6F11E040EAB0FA910AA11A838
:1016C000019302910392049006EB440228463146AE
:1016D0000CABFFF7CFFE2C46032C2EDC069B23B170
:1016E00017480C9A01688B180360079820B1154BB6
:1016F0000D9A196888181860089B23B112480E9A31
:1017000001688B180360099820B1104B0F9A196873
:10171000881818600A9B23B10D48109A01688B182D
:1017200003600B9820B10B4B119A19688818186048
:101730003220FFF7B3FC0134CEE712B070BD00BF1A
:101740001400002018000020200000202C000020A1
:10175000040000200C00002070B590B00E46154625
:1017600007AB08A909AA002400930191029204A9D9
:1017700005AA06AB0494059406940794089409946A
:10178000FFF706FF0A940B940C940D940E940F949B
:101790000CA80EAB0FA90DAC009002930391284644
:1017A00031460AAA01940BABFFF79EFE049A344817
:1017B000022112B100F0FAFC01E000F0F9FC059CF6
:1017C0002F48082114B100F0F1FC01E000F0F0FC1A
:1017D000069B2B48202113B100F0E8FC01E000F04B
:1017E000E7FC079A2648402112B100F0DFFC01E037
:1017F00000F0DEFC089C2248102114B100F0D6FC59
:1018000001E000F0D5FC099B1D4804211BB100F04C
:10181000CDFC2C4630E000F0CBFCFAE7049820B178
:10182000184B0A9A196888181860059B23B1164846
:101830000B9A01688B180360069820B1134B0C9A21
:10184000196888181860079B23B111480D9A016820
:101850008B180360089820B10E4B0E9A19688818EF
:101860001860099B23B10C480F9A01688B1803601C
:101870003220FFF713FC0134032CCFDD10B070BD14
:101880000008014008000020100000201C0000207B
:1018900000000020240000202800002030B508208F
:1018A00087B001211E4C00F011FC18204FF480631A
:1018B0008DF807000325204601A9ADF804308DF806
:1018C000065000F01BFC4FF400614822ADF80410F4
:1018D000204601A98DF807208DF8065000F00EFC77
:1018E00001214FF4802000F0FDFBA4F544440021C9
:1018F0000C204FF41653ADF81200ADF81010ADF8EF
:101900000E10ADF80C10ADF81410204602A9029389
:1019100000F0AEFA2046012100F002FB07B030BD16
:10192000000C01401FB50120014600F0DBFB07223F
:1019300004A93220002321F80C2DADF808004FF047
:1019400080401C46ADF80A30ADF8063000F006FBCA
:1019500001214FF0804000F060FB01210A464FF06A
:10196000804000F051FB01214FF0804000F040FB2F
:101970001C21012368468DF800108DF803308DF886
:1019800001408DF8024000F0ABFC1FBD00000000DC
:101990002DE9F34101900198FEF7A8FD42A3D3E998
:1019A0000023FEF721FFFFF727F80546FEF79EFD0F
:1019B0003FA3D3E90023FEF7EDFDFFF71DF8014635
:1019C0002846FFF76DF8FEF791FD3BA3D3E900230E
:1019D000FEF7E0FDFFF710F8044621462846FFF722
:1019E0005FF821468046FFF75BF821460746FFF780
:1019F00057F821460646FFF753F84FF08B4105464E
:101A00004046FFF757F9FEF771FD2DA3D3E90023F8
:101A1000FEF7EAFEFEF7D0FF2B4B4FF08B4118602C
:101A20003846FFF747F9FEF761FD25A3D3E9002308
:101A3000FEF7DAFEFEF7C0FF244908604FF08B4145
:101A40003046FFF737F9FEF751FD1DA3D3E9002318
:101A5000FEF7CAFEFEF7B0FF1D4A4FF08B41106043
:101A60002846FFF727F9FEF741FD15A3D3E9002328
:101A7000FEF7BAFEFEF7A0FF164B21461860284677
:101A8000FFF70EF84FF08B41FFF714F9FEF72EFD2C
:101A90000BA3D3E90023FEF7A7FEFEF78DFF0E4947
:101AA0000860BDE8FC8100BFCDCCCCCCCCCC1040D4
:101AB000B81E85EB51B8E63F9A9999999999C93F13
:101AC0006666666666660A40740000206400002050
:101AD000680000206C00002070000020AFF3008040
:101AE00007B50121042000F0F1FA01A800F056FB2F
:101AF0001020022141F67E738DF807008DF8061044
:101B0000034801A9ADF8043000F0F8FA0EBD00BF9B
:101B10000008014007B50121082000F0D7FA01A80C
:101B200000F03CFB102002214FF2E7338DF8070054
:101B30008DF80610034801A9ADF8043000F0DEFA74
:101B40000EBD00BF000C014070B5264886B0FFF7FF
:101B50001FFF0121042000F0B9FA684600F01EFBC7
:101B60000124002520486946ADF800408DF8035057
:101B700000F0C4FA21464FF4007000F0A7FA28469E
:101B800000F050FA4FF46023184801A903938DF830
:101B90000940049501958DF814408DF8085000F027
:101BA00009FB124829462246022300F04BFB0F484E
:101BB000214600F023FB0D48264600F028FB0B4889
:101BC00000F02AFB0028FAD1084800F029FB07485A
:101BD00000F02BFB0128FAD00448012100F029FB7A
:101BE00006B070BD00002041000801400024014003
:101BF000F8B57448202100F0A7F9002800F0E08033
:101C00002021704800F0A6F96E4800F099F94D289F
:101C100040F0D0806B48202100F096F90028F9D0E0
:101C20006848202100F096F9664800F089F9664C72
:101C3000302808BF00246348202100F085F90028DF
:101C4000F9D020215F4800F085F95E4800F078F96E
:101C500030281CBF04F59C4420345A48202100F051
:101C600073F90028F9D02021564800F073F955483F
:101C700000F066F9302818BF04F6B8345148202126
:101C800000F062F90028F9D020214E4800F062F9F6
:101C90004C4800F055F9302818BF04F5C87449487D
:101CA000202100F051F90028F9D02021454800F00A
:101CB00051F9444800F044F9302818BF3234414803
:101CC000202100F041F90028F9D020213D4800F002
:101CD00041F93C4800F034F9302818BF063439483F
:101CE000202100F031F90028F9D03648202100F0F9
:101CF00031F9344800F024F90A25454331482021C0
:101D000000F022F90028F9D02E48202100F022F915
:101D10002C4800F015F92818A0F10E061A2E94BFD1
:101D200006461E262748202100F00EF90028F9D08B
:101D30002448202100F00EF9224800F001F90A277A
:101D400047432048202100F0FFF80028F9D0202147
:101D50001C4800F0FFF81B4800F0F2F83918A1F118
:101D60001402142A94BF0F461E271648202100F0A3
:101D7000EBF80028F9D01348202100F0EBF81148C7
:101D800000F0DEF805460F48202100F0DDF80028BD
:101D9000F9D020210B4800F0DDF80A4800F0D0F817
:101DA000204639462A46FFF7D7FC204631462A46C8
:101DB000FFF762FC03483121BDE8F84000F0BCB8F1
:101DC000F8BD00BF00480040A086010007B5002311
:101DD00017480193C16C174B0191019A1868824210
:101DE00002D2FFF709FA21E0134A019913689942D8
:101DF00002D2FFF7E1F919E0104901980A68904210
:101E000002D2FFF7B9F911E00D4B01981968884229
:101E100002D2FFF791F909E00A48019A03689A4251
:101E200002D2FFF769F901E0FFF746F90EBD00BFE6
:101E300000240140700000206C0000206800002099
:101E4000640000207400002008B5FFF749FEFFF78A
:101E500061FEFFF779FEFFF765FDFFF71FFDFFF756
:101E6000B5FF4FF47A70FFF719F9FFF7C1FEFCE7F1
:101E7000038A30B50D460446EA8898B220F44051F2
:101E800011432182A3892889A98823F4B05340EA09
:101E90000102688923F00C0102430804030C1A4371
:101EA00091B2A181A08AAA8983B223F4407187B03C
:101EB0001143A18201A800F0BFF81848A389844209
:101EC0000CBF0498039819B200294FF019032A682F
:101ED00003FB00F001DA510000E09100B0FBF1F1EA
:101EE0006423B1FBF3F21201100903FB1011A08966
:101EF00000B2002806DAC9003231B1FBF3F303F077
:101F0000070005E009013231B1FBF3F303F00F00E4
:101F1000024390B2208107B030BD00BF00380140BD
:101F2000838919B199B241F4005303E023F40051BD
:101F30000A04130C83817047C905CA0D828070475B
:101F40008088C105C80D7047038819420CBF002066
:101F500001207047C9438AB202807047224A038831
:101F600090429BB212D002F5006290420ED0B0F1C6
:101F7000804F0BD0A2F59832904207D002F58062D4
:101F8000904203D002F58062904203D14A8823F048
:101F900070031343154A904208D002F580629042C4
:101FA00004D023F44073CA889BB2134303808B8808
:101FB0000A8883850C4B028598420FD003F5006296
:101FC00090420BD002F54063984207D003F580623F
:101FD000904203D002F58063984201D1097A0186CC
:101FE00001228282704700BF002C01400010004097
:101FF000038819B199B241F0010303E023F0010114
:102000000A04130C0380704783899BB20AB11943F9
:1020100001E023EA010181817047C9438AB202824B
:1020200070470000034B5A6822F44041084358604F
:10203000704700BF001002401F4B10B55A6802F0F5
:102040000C01042901D0082902D01C4C046011E0C5
:102050005C685968C4F38342941CC90301D41849CD
:1020600006E0DB6A03F00F01144B4A1CB3FBF2F1EC
:102070004C430460104B13495A68C2F303140C5DBF
:10208000026822FA04F242605C68C4F302240C5D28
:1020900022FA04F484605C68C4F3C224095D22FA65
:1020A00001F2C2605B680849C3F38133CB5CB2FBC9
:1020B000F3F2026110BD00BF0010024000127A006E
:1020C00000093D003400002030000020044B9A69D4
:1020D00009B1104301E022EA00009861704700BF97
:1020E00000100240044BDA6909B1104301E022EA12
:1020F0000000D861704700BF00100240CB78F0B5F7
:10210000DA0648BF8A78098803F00F0548BF1543EF
:1021100011F0FF0F1ED004680022012707FA02F712
:1021200007EA0106BE4211D197004FF00F0C0CFADE
:1021300007FC05FA07F724EA0C04282B44EA0704F5
:1021400001D1466102E0482B08BF06610132082A2E
:10215000E3D10460FF2920D94468002202F1080677
:10216000012707FA06F707EA0106BE4211D19700D8
:102170004FF00F0C0CFA07FC05FA07F724EA0C04E1
:10218000282B44EA070401D1466102E0482B08BF2E
:1021900006610132082AE1D14460F0BD4FF6FF73B9
:1021A0000221042203808170C27070470161704770
:1021B00041617047426810B522F470230A6823F425
:1021C000807444EA02030C7943EA04224260CB683B
:1021D0008A6884681A43084B234013434A7943EAC8
:1021E00042038360097CC26A4B1E22F47002D9B29A
:1021F00042EA0152C26210BDFDF7F1FF836811B1DE
:1022000043F0010101E023F0010181607047836820
:1022100043F00801816070478068C0F3C0007047D8
:10222000836843F00401816070478068C0F38000D8
:102230007047836811B143F4A00101E023F4A001C9
:1022400081607047092970B54FF003040CD94C43E5
:1022500007251E3C05FA04F503FA04F3C66826EACE
:1022600005052B43C3600BE04C43072505FA04F535
:1022700003FA04F3066926EA050545EA0304046146
:10228000062A4FF005030DD8013A53431F2202FAE4
:1022900003F201FA03F1446B24EA020242EA010369
:1022A000436370BD0C2A0DD853431F22233B02FA0F
:1022B00003F201FA03F1046B24EA020242EA010389
:1022C000036370BD53431F22413B02FA03F201FA3C
:1022D00003F1C46A24EA02021143C16270BD000026
:1022E000C37810B503B3164CE168CB43C3F30224A3
:1022F0004178C4F1040201FA02F10F2222FA04F239
:102300008478037822400A43110103F16043CAB282
:1023100003F5614181F800230078012200F01F03DA
:10232000410902FA03F007E00078012200F01F03E0
:10233000410902FA03F02031024B43F8210010BD9D
:1023400000ED00E000E100E038B50E4D0E4B00243A
:10235000E81A8510AC4205D00B4951F8242090476B
:102360000134F7E700F016F80849094A541AA51095
:102370000024AC4205D0054B53F8240080470134BB
:10238000F7E738BDAC230008AC230008AC230008F5
:10239000B0230008F8B500BFF8BC08BC9E467047E3
:0C23A000F8B500BFF8BC08BC9E467047B2
:0423AC00F50100082F
:0423B000D10100084F
:1023B4001E0000001E0000001E0000001E000000A1
:1023C4001E0000001E0000001E0000001E00000091
:1023D4001E0000001E0000001E0000001E00000081
:1023E40002040608000000000102030401020304C1
:0423F40006070809C7
:04000005080010419E
:00000001FF
