:020000040800F2
:1000000000100020411000082D1000082F100008DB
:1000100031100008331000083510000800000000FF
:100020000000000000000000000000003710000881
:1000300039100008000000003B1000083D100008C7
:1000400099100008991000089910000899100008EC
:1000500099100008991000089910000899100008DC
:1000600099100008991000089910000899100008CC
:1000700099100008991000089910000899100008BC
:10008000991000089910000899100008000000005D
:1000900000000000000000000000000099100008AF
:1000A000991000089910000899100008991000088C
:1000B0009D12000899100008000000009910000827
:1000C00099100008000000000000000099100008CE
:1000D00000000000991000089910000800000000BE
:1000E00099100008991000089910000800000000FD
:1000F0000000000000000000000000000000000000
:1001000000000000000000000000000000000000EF
:10011000000000000000000099100008991000087D
:1001200000000000000000000000000000000000CF
:1001300000000000000000000000000000000000BF
:1001400000000000000000000000000000000000AF
:10015000000000000000000000000000000000009F
:10016000000000000000000000000000000000008F
:10017000000000000000000000000000000000007F
:10018000000000000000000000000000000000006F
:10019000000000000000000000000000000000005F
:1001A000000000000000000000000000000000004F
:1001B000000000000000000000000000000000003F
:1001C0000000000000000000000000005FF808F1DF
:1001D00010B5054C237833B9044810B10448AFF387
:1001E00000800121217010BD4800002000000000A7
:1001F000CC27000808B5064B1BB106480649AFF3EB
:1002000000800648016811B1054A02B1904708BD57
:1002100000000000CC2700084C000020480000200F
:100220000000000081F0004102E000BF83F00043C5
:1002300030B54FEA41044FEA430594EA050F08BF81
:1002400090EA020F1FBF54EA000C55EA020C7FEA45
:10025000645C7FEA655C00F0E2804FEA5454D4EBC2
:100260005555B8BF6D420CDD2C4480EA020281EA8C
:10027000030382EA000083EA010180EA020281EAC4
:100280000303362D88BF30BD11F0004F4FEA013116
:100290004FF4801C4CEA113102D0404261EB410125
:1002A00013F0004F4FEA03334CEA133302D05242AB
:1002B00063EB430394EA050F00F0A780A4F1010467
:1002C000D5F1200E0DDB02FA0EFC22FA05F28018A1
:1002D00041F1000103FA0EF2801843FA05F3594187
:1002E0000EE0A5F120050EF1200E012A03FA0EFC06
:1002F00028BF4CF0020C43FA05F3C01851EBE37130
:1003000001F0004507D54FF0000EDCF1000C7EEB4C
:1003100000006EEB0101B1F5801F1BD3B1F5001F8A
:100320000CD349085FEA30004FEA3C0C04F10104A9
:100330004FEA445212F5800F80F09A80BCF1004FD2
:1003400008BF5FEA500C50F1000041EB045141EA54
:10035000050130BD5FEA4C0C404141EB010111F455
:10036000801FA4F10104E9D191F0000F04BF014600
:100370000020B1FA81F308BF2033A3F10B03B3F1DE
:1003800020020CDA0C3208DD02F1140CC2F10C026E
:1003900001FA0CF021FA02F10CE002F11402D8BFCC
:1003A000C2F1200C01FA02F120FA0CFCDCBF41EA98
:1003B0000C019040E41AA2BF01EB0451294330BD67
:1003C0006FEA04041F3C1CDA0C340EDC04F1140444
:1003D000C4F1200220FA04F001FA02F340EA03001B
:1003E00021FA04F345EA030130BDC4F10C04C4F161
:1003F000200220FA02F001FA04F340EA0300294641
:1004000030BD21FA04F0294630BD94F0000F83F48A
:10041000801306BF81F480110134013D4EE77FEA6D
:10042000645C18BF7FEA655C29D094EA050F08BFB9
:1004300090EA020F05D054EA000C04BF194610469A
:1004400030BD91EA030F1EBF0021002030BD5FEADE
:10045000545C05D14000494128BF41F0004130BD06
:1004600014F580043CBF01F5801130BD01F000455A
:1004700045F0FE4141F470014FF0000030BD7FEACD
:10048000645C1ABF194610467FEA655C1CBF0B46C8
:10049000024650EA013406BF52EA033591EA030FDF
:1004A00041F4002130BD00BF90F0000F04BF0021D7
:1004B000704730B54FF4806404F132044FF000050A
:1004C0004FF0000150E700BF90F0000F04BF002183
:1004D000704730B54FF4806404F1320410F00045E9
:1004E00048BF40424FF000013EE700BF42004FEAE4
:1004F000E2014FEA31014FEA02701FBF12F07F4361
:1005000093F07F4F81F06051704792F0000F14BF5D
:1005100093F07F4F704730B54FF4607401F00045A1
:1005200021F0004120E700BF50EA010208BF7047F8
:1005300030B54FF000050AE050EA010208BF7047ED
:1005400030B511F0004502D5404261EB41014FF456
:10055000806404F132045FEA915C3FF4DCAE4FF05A
:1005600003025FEADC0C18BF03325FEADC0C18BF41
:10057000033202EBDC02C2F1200300FA03FC20FA92
:1005800002F001FA03FE40EA0E0021FA02F11444DF
:10059000C1E600BF70B54FF0FF0C4CF4E06C1CEAF4
:1005A00011541DBF1CEA135594EA0C0F95EA0C0F69
:1005B00000F0DEF82C4481EA030621EA4C5123EADC
:1005C0004C5350EA013518BF52EA033541F480110B
:1005D00043F4801338D0A0FB02CE4FF00005E1FBBE
:1005E00002E506F00042E0FB03E54FF00006E1FB08
:1005F00003569CF0000F18BF4EF0010EA4F1FF044B
:10060000B6F5007F64F5407404D25FEA4E0E6D418A
:1006100046EB060642EAC62141EA55514FEAC5209B
:1006200040EA5E504FEACE2EB4F1FD0C88BFBCF517
:10063000E06F1ED8BEF1004F08BF5FEA500E50F1C8
:10064000000041EB045170BD06F0004646EA01018E
:1006500040EA020081EA0301B4EB5C04C2BFD4EBC0
:100660000C0541EA045170BD41F480114FF0000EB9
:10067000013C00F3AB8014F1360FDEBF002001F027
:10068000004170BDC4F10004203C35DA0C341BDCA1
:1006900004F11404C4F1200500FA05F320FA04F073
:1006A00001FA05F240EA020001F0004221F00041A7
:1006B00010EBD37021FA04F642EB06015EEA430E1A
:1006C00008BF20EAD37070BDC4F10C04C4F120054A
:1006D00000FA04F320FA05F001FA04F240EA0200FD
:1006E00001F0004110EBD37041F100015EEA430ECE
:1006F00008BF20EAD37070BDC4F1200500FA05F2EE
:100700004EEA020E20FA04F301FA05F243EA02036C
:1007100021FA04F001F0004121FA04F220EA02007B
:1007200000EBD3705EEA430E08BF20EAD37070BDC1
:1007300094F0000F0FD101F00046400041EB0101A1
:1007400011F4801F08BF013CF7D041EA060195F083
:10075000000F18BF704703F00046520043EB03033D
:1007600013F4801F08BF013DF7D043EA060370472A
:1007700094EA0C0F0CEA135518BF95EA0C0F0CD035
:1007800050EA410618BF52EA4306D1D181EA03017B
:1007900001F000414FF0000070BD50EA410606BF75
:1007A0001046194652EA430619D094EA0C0F02D1BA
:1007B00050EA013613D195EA0C0F05D152EA0336FF
:1007C0001CBF104619460AD181EA030101F000411D
:1007D00041F0FE4141F470014FF0000070BD41F066
:1007E000FE4141F4780170BD70B54FF0FF0C4CF440
:1007F000E06C1CEA11541DBF1CEA135594EA0C0F5F
:1008000095EA0C0F00F0A7F8A4EB050481EA030EAB
:1008100052EA03354FEA013100F088804FEA033392
:100820004FF0805545EA131343EA12634FEA022260
:1008300045EA111545EA10654FEA00260EF0004121
:100840009D4208BF964244F1FD0404F5407402D273
:100850005B084FEA3202B61A65EB03055B084FEA04
:1008600032024FF480104FF4002CB6EB020E75EB01
:10087000030E22BFB61A754640EA0C005B084FEA29
:100880003202B6EB020E75EB030E22BFB61A7546A6
:1008900040EA5C005B084FEA3202B6EB020E75EBF1
:1008A000030E22BFB61A754640EA9C005B084FEA69
:1008B0003202B6EB020E75EB030E22BFB61A754676
:1008C00040EADC0055EA060E18D04FEA051545EA65
:1008D00016754FEA06164FEAC30343EA52734FEA0E
:1008E000C2025FEA1C1CC0D111F4801F0BD141EA87
:1008F00000014FF000004FF0004CB6E711F4801FEC
:1009000004BF01430020B4F1FD0C88BFBCF5E06FCB
:100910003FF6AFAEB5EB030C04BFB6EB020C5FEADB
:10092000500C50F1000041EB045170BD0EF0004E30
:100930004EEA113114EB5C04C2BFD4EB0C0541EA62
:10094000045170BD41F480114FF0000E013C90E65F
:1009500045EA060E8DE60CEA135594EA0C0F08BF23
:1009600095EA0C0F3FF43BAF94EA0C0F0AD150EA22
:1009700001347FF434AF95EA0C0F7FF425AF1046B5
:1009800019462CE795EA0C0F06D152EA03353FF4DD
:10099000FDAE1046194622E750EA410618BF52EA5A
:1009A00043067FF4C5AE50EA41047FF40DAF52EA2E
:1009B00043057FF4EBAE12E74A0011D212F50012A4
:1009C00011D20DD56FF47873B3EB62520ED44FEAA7
:1009D000C12343F0004343EA505323FA02F0704727
:1009E0004FF00000704750EA013002D14FF0FF3065
:1009F00070474FF0000070474FEA4102B2F1E04308
:100A000024BFB3F5001CDCF1FE5C0DD901F0004CF5
:100A10004FEAC0024CEA5070B2F1004F40EB830045
:100A200008BF20F00100704711F0804F21D113F171
:100A30003872BCBF01F00040704741F480114FEAAA
:100A40005252C2F11802C2F1200C10FA0CF320FA33
:100A500002F018BF40F001004FEAC1234FEAD32350
:100A600003FA0CFC40EA0C0023FA02F34FEA4303BA
:100A7000CCE77FEA625307D150EA01331EBF4FF043
:100A8000FE4040F44000704701F0004040F0FE405E
:100A900040F40000704700BF80F0004002E000BF5B
:100AA00081F0004142001FBF5FEA410392EA030F59
:100AB0007FEA226C7FEA236C6AD04FEA1262D2EBA3
:100AC0001363C1BFD218414048404140B8BF5B42A8
:100AD000192B88BF704710F0004F40F4000020F041
:100AE0007F4018BF404211F0004F41F4000121F057
:100AF0007F4118BF494292EA030F3FD0A2F10102A1
:100B000041FA03FC10EB0C00C3F1200301FA03F1DE
:100B100000F0004302D5494260EB4000B0F5000F01
:100B200013D3B0F1807F06D340084FEA310102F1C0
:100B30000102FE2A51D2B1F1004F40EBC25008BF72
:100B400020F0010040EA03007047490040EB00003C
:100B500010F4000FA2F10102EDD1B0FA80FCACF16B
:100B6000080CB2EB0C0200FA0CF0AABF00EBC2506A
:100B700052421843BCBFD0401843704792F0000F58
:100B800081F4000106BF80F400000132013BB5E7AB
:100B90004FEA41037FEA226C18BF7FEA236C21D021
:100BA00092EA030F04D092F0000F08BF0846704786
:100BB00090EA010F1CBF0020704712F07F4F04D154
:100BC000400028BF40F00040704712F100723CBF67
:100BD00000F50000704700F0004343F0FE4040F491
:100BE000000070477FEA226216BF08467FEA23634F
:100BF0000146420206BF5FEA412390EA010F40F43A
:100C0000800070474FF0000304E000BF10F0004385
:100C100048BF40425FEA000C08BF704743F096436C
:100C200001464FF000001CE050EA010208BF704787
:100C30004FF000030AE000BF50EA010208BF70470E
:100C400011F0004302D5404261EB41015FEA010C23
:100C500002BF84460146002043F0B64308BFA3F11B
:100C60008053A3F50003BCFA8CF2083AA3EBC253FD
:100C700010DB01FA02FC634400FA02FCC2F120021C
:100C8000BCF1004F20FA02F243EB020008BF20F053
:100C90000100704702F1200201FA02FCC2F12002B9
:100CA00050EA4C0021FA02F243EB020008BF20EAAE
:100CB000DC7070474FF0FF0C1CEAD0521EBF1CEADC
:100CC000D15392EA0C0F93EA0C0F6FD01A4480EACA
:100CD000010C400218BF5FEA41211ED04FF00063B3
:100CE00043EA501043EA5111A0FB01310CF00040DF
:100CF000B1F5000F3EBF490041EAD3715B0040EA05
:100D0000010062F17F02FD2A1DD8B3F1004F40EBD4
:100D1000C25008BF20F00100704790F0000F0CF0A7
:100D2000004C08BF49024CEA502040EA51207F3A6B
:100D3000C2BFD2F1FF0340EAC250704740F4000046
:100D40004FF00003013A5DDC12F1190FDCBF00F037
:100D500000407047C2F10002410021FA02F1C2F1E5
:100D6000200200FA02FC5FEA310040F1000053EA81
:100D70004C0308BF20EADC70704792F0000F00F0CF
:100D8000004C02BF400010F4000F013AF9D040EAD5
:100D90000C0093F0000F01F0004C02BF490011F469
:100DA000000F013BF9D041EA0C018FE70CEAD15367
:100DB00092EA0C0F18BF93EA0C0F0AD030F0004CE7
:100DC00018BF31F0004CD8D180EA010000F000409B
:100DD000704790F0000F17BF90F0004F084691F059
:100DE000000F91F0004F14D092EA0C0F01D1420293
:100DF0000FD193EA0C0F03D14B0218BF084608D15C
:100E000080EA010000F0004040F0FE4040F40000A5
:100E1000704740F0FE4040F4400070474FF0FF0C38
:100E20001CEAD0521EBF1CEAD15392EA0C0F93EA7F
:100E30000C0F69D0A2EB030280EA010C49024FEAD1
:100E4000402037D04FF0805343EA111143EA10138A
:100E50000CF000408B4238BF5B0042F17D024FF442
:100E6000000C8B4224BF5B1A40EA0C00B3EB510F1D
:100E700024BFA3EB510340EA5C00B3EB910F24BF06
:100E8000A3EB910340EA9C00B3EBD10F24BFA3EB8B
:100E9000D10340EADC001B0118BF5FEA1C1CE0D153
:100EA000FD2A3FF650AF8B4240EBC25008BF20F006
:100EB000010070470CF0004C4CEA50207F32C2BF5A
:100EC000D2F1FF0340EAC250704740F400004FF0F7
:100ED0000003013A37E792F0000F00F0004C02BF28
:100EE000400010F4000F013AF9D040EA0C0093F0F2
:100EF000000F01F0004C02BF490011F4000F013B4C
:100F0000F9D041EA0C0195E70CEAD15392EA0C0FB3
:100F100008D142027FF47DAF93EA0C0F7FF470AFEB
:100F2000084676E793EA0C0F04D14B023FF44CAF2E
:100F300008466EE730F0004C18BF31F0004CCAD1C3
:100F400030F000427FF45CAF31F000437FF43CAFFF
:100F50005FE700BF324B82B01A6842F001001860B0
:100F60005968304A0A405A60186820F0847121F4A8
:100F700080321A60186820F4802119605A684FF492
:100F80001F0122F4FE00002258609960DA6200928C
:100F90000192186840F480311960214B1A6802F4FC
:100FA0000030019000994A1C0092019818B90099EC
:100FB000B1F5A06FF1D11B6813F4003218BF012204
:100FC00001920198012805D0174B4FF000629A60FA
:100FD00002B07047124B596859605A685A60586895
:100FE0005860596821F47C125A60586840F498118E
:100FF00059601A6842F0807018601968084A8901BF
:10100000FBD5536823F003005060516841F00203A0
:101010005360034A506800F00C010829F9D1D3E766
:10102000001002400000FFF800ED00E07047FEE70E
:10103000FEE7FEE7FEE77047704770477047000025
:10104000DFF83CD0002100F004B80E4B5B58435051
:1010500004310D480D4B42189A42FFF4F6AF0C4A8A
:1010600000F003B8002342F8043B0A4B9A42FFF415
:10107000F9AFFFF76FFF01F083FB01F081F87047D4
:1010800000100020EC27000800000020480000208D
:101090004800002084000020FFF7FEBF10B5134C6D
:1010A0003521204601F0EEF82046802104F5404429
:1010B00001F0F6F820464FF4805101F077FA20460F
:1010C0004FF4006101F072FA20464FF4806101F0A4
:1010D0006DFA20464FF4007101F06AFA20464FF491
:1010E0008071BDE8104001F063BA00BF00480040C5
:1010F00010B5134C3421204601F0C4F8204680215D
:1011000004F5404401F0CCF820464FF4805101F042
:101110004FFA20464FF4006101F048FA20464FF4A0
:10112000806101F043FA20464FF4007101F040FA6B
:1011300020464FF48071BDE8104001F039BA00BF7D
:101140000048004010B5134C3321204601F09AF8B6
:101150002046802104F5404401F0A2F820464FF4D7
:10116000805101F025FA20464FF4006101F020FA89
:1011700020464FF4806101F019FA20464FF40071C7
:1011800001F016FA20464FF48071BDE8104001F0DE
:101190000FBA00BF0048004010B5134C3221204662
:1011A00001F070F82046802104F5404401F078F801
:1011B00020464FF4805101F0FBF920464FF40061C6
:1011C00001F0F6F920464FF4806101F0EFF9204676
:1011D0004FF4007101F0EAF920464FF48071BDE848
:1011E000104001F0E5B900BF0048004010B5134CB5
:1011F0003121204601F046F82046802104F5404484
:1012000001F04EF820464FF4805101F0D1F920460C
:101210004FF4006101F0CCF920464FF4806101F0F9
:10122000C5F920464FF4007101F0C0F920464FF493
:101230008071BDE8104001F0B9B900BF004800401E
:1012400010B5144C144B0122204630211A7001F0C5
:1012500019F82046802104F5404401F021F8204689
:101260004FF4805101F0A4F920464FF4006101F0E1
:101270009FF920464FF4806101F09AF920464FF41F
:10128000007101F093F920464FF48071BDE81040E1
:1012900001F08CB900480040300000204FF0804041
:1012A00010B5012101F05FF8614B1868002839D1B1
:1012B00060490A78002A35D05F48022101F076F9AA
:1012C0005D484FF4805101F071F95B484FF4804163
:1012D00001F06CF95848202101F068F95648402186
:1012E00001F064F954484FF4807101F05FF95248FD
:1012F000012101F05BF95048042101F057F94E48F3
:101300004FF4005101F052F94B484FF4004101F005
:101310004DF94948802101F049F947484FF40071DF
:1013200001F044F9424C454A2368581C206021686A
:101330001368994203DD4048022101F039F9404920
:1013400020680A68904204DD3B484FF4805101F068
:101350002FF9374B3B481C6801688C421C4604DD62
:1013600035484FF4804101F023F9374B2268186863
:10137000824203DD3048202101F01AF92C4C334A17
:1013800021681368994203DD2B48402101F010F9D0
:101390002F4920680A68904204DD27484FF4807185
:1013A00001F006F9224B2B481C6801688C421C4650
:1013B00003DD2148012101F0FBF8274B2268186862
:1013C000824203DD1C48042101F0F2F8184C234A44
:1013D00021681368994204DD17484FF4005101F069
:1013E000E7F81F4920680A68904204DD12484FF46C
:1013F000004101F0DDF80E4B1A481C6801688C4270
:101400001C4603DD0C48802101F0D2F8164B2268FF
:101410001868824204DD08484FF4007101F0C8F8F2
:1014200003490A68B2F5FA6F01DB00230B6010BDB7
:101430006C00002030000020000C0140140000204F
:1014400018000020200000202C00002004000020B4
:101450000C00002008000020100000201C000020CC
:101460000000002024000020280000202DE9F04189
:101470001F4600F020039046DAB2069E079D089CA6
:101480000AB101230B6000F01002D3B213B10122A4
:10149000C8F8002000F00803DAB20AB101233B606B
:1014A00000F00402D3B20BB10122326000F002035B
:1014B000DAB20AB101232B60C30701D501202060F5
:1014C0000A681C48022112B101F070F801E001F035
:1014D0006FF8D8F800301748082113B101F066F80A
:1014E00001E001F065F83A681248202112B101F0DC
:1014F0005DF801E001F05CF833680E48402113B15B
:1015000001F054F801E001F053F82A68094810216D
:1015100012B101F04BF801E001F04AF823680548E8
:1015200004211BB1BDE8F04101F040B8BDE8F04135
:1015300001F03EB80008014030B5082087B0012115
:10154000294C00F0A9FF18204FF480638DF80300A8
:10155000032520466946ADF800308DF8025000F0B2
:10156000C7FF4FF400614822ADF8001020466946DD
:101570008DF803208DF8025000F0BAFF01214FF4DE
:10158000802000F095FFA4F5444400210C204FF486
:101590001653ADF81200ADF81010ADF80E10ADF8FE
:1015A0000C10ADF81410204602A9029300F006FEBC
:1015B0002046012100F05AFE0121102000F06CFFAE
:1015C00001A800F0E5FF02204FF4005204238DF83B
:1015D000060001A90548ADF804208DF8073000F099
:1015E00087FF07B030BD00BF000C01400010014074
:1015F0001FB50120014600F05BFF372204A90A2035
:10160000002321F80C2DADF808004FF080401C4657
:10161000ADF80A30ADF8063000F046FE01214FF07B
:10162000804000F0A0FE01210A464FF0804000F00B
:1016300091FE01214FF0804000F080FE1C2101232B
:1016400068468DF800108DF803308DF801408DF854
:10165000024001F061F81FBD08B5102000F0BAFF8C
:10166000022000F0ADFF002000F0A4FE002000F0FA
:10167000B5FE4FF4806000F0A7FE00204FF440114B
:1016800000F076FE012000F07DFE392000F01CFF06
:101690000028FAD0022000F07BFE00F083FE08282C
:1016A000FBD108BD000000002DE9F3410190019835
:1016B000FEF71CFF42A3D3E90023FFF795F8FFF7DD
:1016C0009BF90546FEF712FF3FA3D3E90023FEF77F
:1016D00061FFFFF791F901462846FFF7E1F9FEF7B0
:1016E00005FF3BA3D3E90023FEF754FFFFF784F97E
:1016F000044621462846FFF7D3F921468046FFF7E6
:10170000CFF921460746FFF7CBF921460646FFF7FA
:10171000C7F94FF08B4105464046FFF7CBFAFEF77D
:10172000E5FE2DA3D3E90023FFF75EF8FFF744F9A8
:101730002B4B4FF08B4118603846FFF7BBFAFEF792
:10174000D5FE25A3D3E90023FFF74EF8FFF734F9C0
:10175000244908604FF08B413046FFF7ABFAFEF7A3
:10176000C5FE1DA3D3E90023FFF73EF8FFF724F9D8
:101770001D4A4FF08B4110602846FFF79BFAFEF799
:10178000B5FE15A3D3E90023FFF72EF8FFF714F9F0
:10179000164B214618602846FFF782F94FF08B411F
:1017A000FFF788FAFEF7A2FE0BA3D3E90023FFF7A9
:1017B0001BF8FFF701F90E490860BDE8FC8100BF86
:1017C000CDCCCCCCCCCC1040B81E85EB51B8E63F8C
:1017D0009A9999999999C93F6666666666660A40BC
:1017E000800000207000002074000020780000209D
:1017F0007C000020AFF3008007B50121042000F039
:101800004BFE01A800F0C4FE1020022141F67E73B9
:101810008DF807008DF80610034801A9ADF80430D3
:1018200000F066FE0EBD00BF0008014007B50121B3
:10183000082000F031FE01A800F0AAFE10200221CD
:101840004FF2E7338DF807008DF80610034801A921
:10185000ADF8043000F04CFE0EBD00BF000C01409E
:1018600070B5264886B0FFF71FFF0121042000F065
:1018700013FE684600F08CFE0124002520486946CE
:10188000ADF800408DF8035000F032FE21464FF4D1
:10189000007000F001FE284600F0AAFD4FF460231E
:1018A000184801A903938DF80940049501958DF816
:1018B00014408DF8085000F099FE1248294622463F
:1018C000022300F0DBFE0F48214600F0B3FE0D4876
:1018D000264600F0B8FE0B4800F0BAFE0028FAD108
:1018E000084800F0B9FE074800F0BBFE0128FAD016
:1018F0000448012100F0B9FE06B070BD0000184197
:10190000000801400024014082B00190019B41F297
:101910008832534301930198411E01910028FAD166
:1019200002B0704738B50C4D0C4B7E2101220024CB
:1019300028461C6000F03EFE4FF4FA70FFF7E4FF0B
:1019400028467E21224600F035FE4FF4FA70BDE8AD
:101950003840FFF7D9BF00BF0008014068000020F1
:1019600008B505484FF4005100F01AFE18B9BDE85B
:101970000840FFF7D7BF08BD0010014010B51D4B50
:101980001D4C01221A60204600227E2100F012FE2A
:101990000221204600F00AFEC820FFF7B5FF08210B
:1019A000204600F003FEC820FFF7AEFF20212046AE
:1019B00000F0FCFDC820FFF7A7FF4021204600F003
:1019C000F5FDC820FFF7A0FF1021204600F0EEFD36
:1019D000C820FFF799FF0421204600F0E7FDC8204A
:1019E000FFF792FF20467E210022BDE8104000F064
:1019F000E1BD00BF680000200008014008B50748AD
:101A00004FF4005100F0CCFD012803D1BDE808409F
:101A1000FFF7B4BFBDE80840FFF784BF00100140E6
:101A200030B50F2AD4BF22EAE2720F228BB0002316
:101A3000C2F10F020C4655000493059306930793D9
:101A40000893099307A908AA09AB00910192029390
:101A500004A905AA06ABFFF709FD14F1320F03DB59
:101A6000502CA8BF502401E06FF031042846FFF746
:101A70004BFF049888B13A4B04F16D011A6818685D
:101A8000914201DB013005E004F16E02824204DA8A
:101A90001968481E1860002000E00120059B83B1F2
:101AA000304B04F16D011A6891421A6801DB013272
:101AB00005E004F16E01914203DA1868421E1A60D3
:101AC0000020069B83B1284BC4F1A4011A689142FF
:101AD0001A6801DB013205E0C4F1A501914203DA85
:101AE0001868421E1A600020079B83B11F4B04F147
:101AF0006B011A6891421A6801DB013205E004F1BA
:101B00006C01914203DA1868421E1A600020089B9B
:101B100083B1174BC4F1A1011A6891421A6801DB25
:101B2000013205E0C4F1A201914203DA1868421EB5
:101B30001A600020099B83B10E4BC4F1A4011A68FE
:101B400091421A6801DB511C05E0C4F1A5049442DE
:101B500003DA1868411E196000200BB030BD00BFC9
:101B60001400002018000020200000202C0000207D
:101B7000040000200C000020F0B50F2AD4BF22EA98
:101B8000E2720F228BB0C2F10F020C461E460021FA
:101B9000570007AB08AD09AA04910591069107917A
:101BA0000891099100930195029204A905AA06AB38
:101BB000FFF75CFC65423846012E16BF2E462646CE
:101BC0002546FFF7A1FE049888B1394B05F1950130
:101BD0001A681868914201DB013005E005F19602B0
:101BE000824204DA1968481E1860002000E00120D3
:101BF000059B83B12F4B04F195011A6891421A6835
:101C000001DB013205E004F19601914203DA186824
:101C1000421E1A600020069B7BB1274B05F19501FF
:101C20001A6891421A6801DB511C04E0963595420E
:101C300003DA1868411E19600020079B83B11F4B0F
:101C4000C4F195011A6891421A6801DB013205E07E
:101C5000C4F19601914203DA1868421E1A6000200E
:101C6000089B7BB1164B06F195011A6891421A68E0
:101C700001DB511C04E09636964203DA1868411ED7
:101C800019600020099B83B10E4BC4F195011A68BD
:101C900091421A6801DB511C05E0C4F1960494429C
:101CA00003DA1868411E196000200BB0F0BD00BFB8
:101CB00008000020100000201C0000200000002070
:101CC000240000202800002010B50E28B4BF0446D0
:101CD0000E24192122462A20FFF7A2FE00231921F3
:101CE00022463F20FFF748FF002122462A20FFF727
:101CF00097FE192122461520FFF792FE22463F202B
:101D00006FF018010023FFF737FF1520002122464E
:101D1000BDE81040FFF784BE10B50E28B4BF0446DE
:101D20000E24192122461520FFF77AFE00231921DF
:101D300022463F20FFF720FF002122461520FFF713
:101D40006FFE192122462A20FFF76AFE22463F2015
:101D50006FF018010023FFF70FFF2A200021224611
:101D6000BDE81040FFF75CBE10B50E28B4BF0446B6
:101D70000E24192122462A20FFF752FE01231921A1
:101D800022463F20FFF7F8FE002122462A20FFF7D7
:101D900047FE192122461520FFF742FE22463F202A
:101DA0006FF018010123FFF7E7FE152000212246FE
:101DB000BDE81040FFF734BE002810B504DD0D2843
:101DC000B4BF04460D2400E008242321224601204C
:101DD000FFF726FE00210B4622460120FFF7CCFE2E
:101DE000002122460120FFF71BFE2321224602206C
:101DF000FFF716FE00210B4622460220FFF7BCFE2D
:101E0000002122460220FFF70BFE23212246042058
:101E1000FFF706FE00210B4622460420FFF7ACFE2A
:101E2000002122460420FFF7FBFD23212246082043
:101E3000FFF7F6FD00210B4622460820FFF79CFE27
:101E4000082022460021FFF7EBFD23212246102027
:101E5000FFF7E6FD00210B4622461020FFF78CFE1F
:101E6000002122461020FFF7DBFD232122462020FF
:101E7000FFF7D6FD002122460B462020FFF77CFE0F
:101E8000202000212246BDE81040FFF7C9BD000018
:101E900038B5344D0E28B4BF04460E242B680A2BE7
:101EA00002DD2868102801DD0A2129602A680A2A33
:101EB00005D10820FFF780FF2A4B0B2018602D6802
:101EC0000B2D09D12A2019212246FFF7A9FD01284F
:101ED00002D1244A0C211160224D28680C280AD115
:101EE0003F2001236FF018012246FFF745FE01282D
:101EF00001D10D232B601B4D29680D2908D12A2003
:101F000000212246FFF78CFD012801D10E222A6014
:101F100028680E2809D1152019212246FFF780FDD7
:101F2000012802D10F4B0F251D600E4D29680F2986
:101F300009D13F20192101232246FFF71DFE012868
:101F400001D110222A60074D2868102808D11520D9
:101F500000212246FFF764FD012801D10B232B60ED
:101F600038BD00BF640000202DE9F0416348202106
:101F700000F090F9002800F0BF80604800F086F97A
:101F8000C0F38F1000286BD15C48202100F088F945
:101F90005A4800F07BF904465848202100F07AF9AD
:101FA0000028F9D0554800F071F9C0F38F12022AC9
:101FB00072D15248202100F073F9504800F066F9C0
:101FC00007464E48202100F065F90028F9D04B481B
:101FD00000F05CF9C0F38F1002285DD12021474842
:101FE00000F05EF9454800F051F90646434800F01C
:101FF0004DF980464148202100F04CF90028F9D0E5
:102000003E4800F043F9C0F38F11032944D1202149
:102010003A4800F045F9394800F038F9384B00F0FB
:10202000010536481D7000F031F908F01F08C0F3B3
:10203000440504F03F044FEA48011E392A46204671
:102040000023FFF799FD07F03F0251003239C6F334
:102050004016204689192A46BDE8F041FFF7E0BC4A
:10206000264800F013F9C0F38F11012914D1234839
:10207000202100F015F9214800F008F904461F4816
:10208000202100F007F90028F9D01C4800F0FEF8E4
:10209000C0F38F12032A05D018482021BDE8F04173
:1020A00000F0FEB8154800F0F1F8154B00F0010003
:1020B0001870124800F0EAF804F03F014B1EC0F31C
:1020C0004400042B18D8DFE803F003070B0F1300BC
:1020D000BDE8F041FFF7DCBEBDE8F041FFF744BECC
:1020E000BDE8F041FFF718BEBDE8F041FFF7ECBDD9
:1020F000BDE8F041FFF760BEBDE8F0810048004058
:102100003000002007B5002317480193C16C174B1E
:102110000191019A1868824202D2FFF791F821E0FA
:10212000134A01991368994202D2FFF75FF819E048
:10213000104901980A68904202D2FFF72DF811E089
:102140000D4B01981968884202D2FEF7FBFF09E0A7
:102150000A48019A03689A4202D2FEF7C9FF01E0D9
:10216000FEF79CFF0EBD00BF002401407C00002054
:102170007800002074000020700000208000002003
:1021800008B5FFF769FAFFF737FBFFF74FFBFFF7DB
:1021900067FBFFF72DFAFFF7CFF9FFF7B3FFFFF764
:1021A0002DFC054B18680128F7D1FFF7DDFEFFF77E
:1021B000A9FFFFF7D5FBF4E768000020038A30B5DC
:1021C0000D460446EA8898B220F44051114321821A
:1021D000A3892889A98823F4B05340EA01026889B9
:1021E00023F00C0102430804030C1A4391B2A181AD
:1021F000A08AAA8983B223F4407187B01143A182D7
:1022000001A800F0FFF81848A38984420CBF049885
:10221000039819B200294FF019032A6803FB00F054
:1022200001DA510000E09100B0FBF1F16423B1FB51
:10223000F3F21201100903FB1011A08900B200286B
:1022400006DAC9003231B1FBF3F303F0070005E011
:1022500009013231B1FBF3F303F00F00024390B2F6
:10226000208107B030BD00BF00380140838919B11B
:1022700099B241F4005303E023F400510A04130C13
:1022800083817047C905CA0D828070478088C10567
:10229000C80D7047038819420CBF00200120704709
:1022A000C9438AB202807047224A038890429BB297
:1022B00012D002F5006290420ED0B0F1804F0BD0E8
:1022C000A2F59832904207D002F58062904203D086
:1022D00002F58062904203D14A8823F070031343D1
:1022E000154A904208D002F58062904204D023F44F
:1022F0004073CA889BB2134303808B880A88838506
:102300000C4B028598420FD003F5006290420BD02F
:1023100002F54063984207D003F58062904203D0F3
:1023200002F58063984201D1097A018601228282F6
:10233000704700BF002C014000100040038819B115
:1023400099B241F0010303E023F001010A04130CE8
:102350000380704783899BB20AB1194301E023EAE5
:10236000010181817047C9438AB20282704700002F
:10237000034B5A6822F474121043014359607047AA
:1023800000100240014B1860704700BF60004242DD
:10239000034B5A6822F0030108435860704700BF9E
:1023A00000100240024B586800F00C00704700BF5C
:1023B00000100240034B5A6822F0F00108435860B5
:1023C000704700BF00100240034B5A6822F4E061DE
:1023D00008435860704700BF00100240034B5A6822
:1023E00022F4605141EAC00058607047001002407A
:1023F000034B5A6822F4404108435860704700BFBD
:10240000001002401F4B10B55A6802F00C0104295D
:1024100001D0082902D01C4C046011E05C685968A6
:10242000C4F38342941CC90301D4184906E0DB6A53
:1024300003F00F01144B4A1CB3FBF2F14C43046050
:10244000104B13495A68C2F303140C5D026822FA58
:1024500004F242605C68C4F302240C5D22FA04F4C6
:1024600084605C68C4F3C224095D22FA01F2C26090
:102470005B680849C3F38133CB5CB2FBF3F20261C2
:1024800010BD00BF0010024000127A0000093D009C
:102490003500002031000020044B9A6909B1104337
:1024A00001E022EA00009861704700BF001002407E
:1024B000044BDA6909B1104301E022EA0000D86157
:1024C000704700BF001002404309012B074A01D1A9
:1024D000136803E0022B0CBF136A536A00F01F005D
:1024E00023FA00F101F00100704700BF0010024024
:1024F000CB78F0B5DA0648BF8A78098803F00F0573
:1025000048BF154311F0FF0F1ED0046800220127B9
:1025100007FA02F707EA0106BE4211D197004FF011
:102520000F0C0CFA07FC05FA07F724EA0C04282B19
:1025300044EA070401D1466102E0482B08BF066166
:102540000132082AE3D10460FF2920D9446800221F
:1025500002F10806012707FA06F707EA0106BE425C
:1025600011D197004FF00F0C0CFA07FC05FA07F792
:1025700024EA0C04282B44EA070401D1466102E056
:10258000482B08BF06610132082AE1D14460F0BD42
:102590004FF6FF730221042203808170C2707047DE
:1025A000836819420CBF0020012070470161704709
:1025B000416170470AB10161704741617047000095
:1025C000034B1A6802F0380108431860704700BFD7
:1025D00000200240044B1A6822F0100119601A68AA
:1025E00010431860704700BF00200240426810B5D9
:1025F00022F470230A6823F4807444EA02030C79FD
:1026000043EA04224260CB688A6884681A43084B14
:10261000234013434A7943EA42038360097CC26A38
:102620004B1E22F47002D9B242EA0152C26210BDBE
:10263000FDF7F1FF836811B143F0010101E023F0E0
:10264000010181607047836843F008018160704731
:102650008068C0F3C0007047836843F00401816064
:1026600070478068C0F380007047836811B143F4FD
:10267000A00101E023F4A00181607047092970B531
:102680004FF003040CD94C4307251E3C05FA04F512
:1026900003FA04F3C66826EA05052B43C3600BE082
:1026A0004C43072505FA04F503FA04F3066926EA04
:1026B000050545EA03040461062A4FF005030DD819
:1026C000013A53431F2202FA03F201FA03F1446B69
:1026D00024EA020242EA0103436370BD0C2A0DD8CA
:1026E00053431F22233B02FA03F201FA03F1046B66
:1026F00024EA020242EA0103036370BD53431F222E
:10270000413B02FA03F201FA03F1C46A24EA02022D
:102710001143C16270BD0000C37810B503B3164CFD
:10272000E168CB43C3F302244178C4F1040201FA07
:1027300002F10F2222FA04F28478037822400A433D
:10274000110103F16043CAB203F5614181F800232E
:102750000078012200F01F03410902FA03F007E0AC
:102760000078012200F01F03410902FA03F0203132
:10277000024B43F8210010BD00ED00E000E100E055
:1027800038B50E4D0E4B0024E81A8510AC4205D02A
:102790000B4951F8242090470134F7E700F016F870
:1027A0000849094A541AA5100024AC4205D0054B2B
:1027B00053F8240080470134F7E738BDE4270008C8
:1027C000E4270008E4270008E8270008F8B500BF60
:1027D000F8BC08BC9E467047F8B500BFF8BC08BC02
:0427E0009E4670475A
:0427E400F5010008F3
:0427E800D101000813
:1027EC0096000000A200000096000000A50000006A
:1027FC00960000006E0000006E00000096000000C5
:10280C00A500000096000000960000006C0000007F
:10281C000102040608000000000102030401020387
:08282C00040607080900000082
:04000005080010419E
:00000001FF
