:020000040800F2
:1000000000100020411000082D1000082F100008DB
:1000100031100008331000083510000800000000FF
:100020000000000000000000000000003710000881
:1000300039100008000000003B1000083D100008C7
:1000400099100008991000089910000899100008EC
:1000500099100008991000089910000899100008DC
:1000600099100008991000089910000899100008CC
:1000700099100008991000089910000899100008BC
:10008000991000089910000899100008000000005D
:1000900000000000000000000000000099100008AF
:1000A000991000089910000899100008991000088C
:1000B0004D12000899100008000000009910000877
:1000C00099100008000000000000000099100008CE
:1000D00000000000991000089910000800000000BE
:1000E00099100008991000089910000800000000FD
:1000F0000000000000000000000000000000000000
:1001000000000000000000000000000000000000EF
:10011000000000000000000099100008991000087D
:1001200000000000000000000000000000000000CF
:1001300000000000000000000000000000000000BF
:1001400000000000000000000000000000000000AF
:10015000000000000000000000000000000000009F
:10016000000000000000000000000000000000008F
:10017000000000000000000000000000000000007F
:10018000000000000000000000000000000000006F
:10019000000000000000000000000000000000005F
:1001A000000000000000000000000000000000004F
:1001B000000000000000000000000000000000003F
:1001C0000000000000000000000000005FF808F1DF
:1001D00010B5054C237833B9044810B10448AFF387
:1001E00000800121217010BD4400002000000000AB
:1001F0008427000808B5064B1BB106480649AFF333
:1002000000800648016811B1054A02B1904708BD57
:10021000000000008427000848000020440000205F
:100220000000000081F0004102E000BF83F00043C5
:1002300030B54FEA41044FEA430594EA050F08BF81
:1002400090EA020F1FBF54EA000C55EA020C7FEA45
:10025000645C7FEA655C00F0E2804FEA5454D4EBC2
:100260005555B8BF6D420CDD2C4480EA020281EA8C
:10027000030382EA000083EA010180EA020281EAC4
:100280000303362D88BF30BD11F0004F4FEA013116
:100290004FF4801C4CEA113102D0404261EB410125
:1002A00013F0004F4FEA03334CEA133302D05242AB
:1002B00063EB430394EA050F00F0A780A4F1010467
:1002C000D5F1200E0DDB02FA0EFC22FA05F28018A1
:1002D00041F1000103FA0EF2801843FA05F3594187
:1002E0000EE0A5F120050EF1200E012A03FA0EFC06
:1002F00028BF4CF0020C43FA05F3C01851EBE37130
:1003000001F0004507D54FF0000EDCF1000C7EEB4C
:1003100000006EEB0101B1F5801F1BD3B1F5001F8A
:100320000CD349085FEA30004FEA3C0C04F10104A9
:100330004FEA445212F5800F80F09A80BCF1004FD2
:1003400008BF5FEA500C50F1000041EB045141EA54
:10035000050130BD5FEA4C0C404141EB010111F455
:10036000801FA4F10104E9D191F0000F04BF014600
:100370000020B1FA81F308BF2033A3F10B03B3F1DE
:1003800020020CDA0C3208DD02F1140CC2F10C026E
:1003900001FA0CF021FA02F10CE002F11402D8BFCC
:1003A000C2F1200C01FA02F120FA0CFCDCBF41EA98
:1003B0000C019040E41AA2BF01EB0451294330BD67
:1003C0006FEA04041F3C1CDA0C340EDC04F1140444
:1003D000C4F1200220FA04F001FA02F340EA03001B
:1003E00021FA04F345EA030130BDC4F10C04C4F161
:1003F000200220FA02F001FA04F340EA0300294641
:1004000030BD21FA04F0294630BD94F0000F83F48A
:10041000801306BF81F480110134013D4EE77FEA6D
:10042000645C18BF7FEA655C29D094EA050F08BFB9
:1004300090EA020F05D054EA000C04BF194610469A
:1004400030BD91EA030F1EBF0021002030BD5FEADE
:10045000545C05D14000494128BF41F0004130BD06
:1004600014F580043CBF01F5801130BD01F000455A
:1004700045F0FE4141F470014FF0000030BD7FEACD
:10048000645C1ABF194610467FEA655C1CBF0B46C8
:10049000024650EA013406BF52EA033591EA030FDF
:1004A00041F4002130BD00BF90F0000F04BF0021D7
:1004B000704730B54FF4806404F132044FF000050A
:1004C0004FF0000150E700BF90F0000F04BF002183
:1004D000704730B54FF4806404F1320410F00045E9
:1004E00048BF40424FF000013EE700BF42004FEAE4
:1004F000E2014FEA31014FEA02701FBF12F07F4361
:1005000093F07F4F81F06051704792F0000F14BF5D
:1005100093F07F4F704730B54FF4607401F00045A1
:1005200021F0004120E700BF50EA010208BF7047F8
:1005300030B54FF000050AE050EA010208BF7047ED
:1005400030B511F0004502D5404261EB41014FF456
:10055000806404F132045FEA915C3FF4DCAE4FF05A
:1005600003025FEADC0C18BF03325FEADC0C18BF41
:10057000033202EBDC02C2F1200300FA03FC20FA92
:1005800002F001FA03FE40EA0E0021FA02F11444DF
:10059000C1E600BF70B54FF0FF0C4CF4E06C1CEAF4
:1005A00011541DBF1CEA135594EA0C0F95EA0C0F69
:1005B00000F0DEF82C4481EA030621EA4C5123EADC
:1005C0004C5350EA013518BF52EA033541F480110B
:1005D00043F4801338D0A0FB02CE4FF00005E1FBBE
:1005E00002E506F00042E0FB03E54FF00006E1FB08
:1005F00003569CF0000F18BF4EF0010EA4F1FF044B
:10060000B6F5007F64F5407404D25FEA4E0E6D418A
:1006100046EB060642EAC62141EA55514FEAC5209B
:1006200040EA5E504FEACE2EB4F1FD0C88BFBCF517
:10063000E06F1ED8BEF1004F08BF5FEA500E50F1C8
:10064000000041EB045170BD06F0004646EA01018E
:1006500040EA020081EA0301B4EB5C04C2BFD4EBC0
:100660000C0541EA045170BD41F480114FF0000EB9
:10067000013C00F3AB8014F1360FDEBF002001F027
:10068000004170BDC4F10004203C35DA0C341BDCA1
:1006900004F11404C4F1200500FA05F320FA04F073
:1006A00001FA05F240EA020001F0004221F00041A7
:1006B00010EBD37021FA04F642EB06015EEA430E1A
:1006C00008BF20EAD37070BDC4F10C04C4F120054A
:1006D00000FA04F320FA05F001FA04F240EA0200FD
:1006E00001F0004110EBD37041F100015EEA430ECE
:1006F00008BF20EAD37070BDC4F1200500FA05F2EE
:100700004EEA020E20FA04F301FA05F243EA02036C
:1007100021FA04F001F0004121FA04F220EA02007B
:1007200000EBD3705EEA430E08BF20EAD37070BDC1
:1007300094F0000F0FD101F00046400041EB0101A1
:1007400011F4801F08BF013CF7D041EA060195F083
:10075000000F18BF704703F00046520043EB03033D
:1007600013F4801F08BF013DF7D043EA060370472A
:1007700094EA0C0F0CEA135518BF95EA0C0F0CD035
:1007800050EA410618BF52EA4306D1D181EA03017B
:1007900001F000414FF0000070BD50EA410606BF75
:1007A0001046194652EA430619D094EA0C0F02D1BA
:1007B00050EA013613D195EA0C0F05D152EA0336FF
:1007C0001CBF104619460AD181EA030101F000411D
:1007D00041F0FE4141F470014FF0000070BD41F066
:1007E000FE4141F4780170BD70B54FF0FF0C4CF440
:1007F000E06C1CEA11541DBF1CEA135594EA0C0F5F
:1008000095EA0C0F00F0A7F8A4EB050481EA030EAB
:1008100052EA03354FEA013100F088804FEA033392
:100820004FF0805545EA131343EA12634FEA022260
:1008300045EA111545EA10654FEA00260EF0004121
:100840009D4208BF964244F1FD0404F5407402D273
:100850005B084FEA3202B61A65EB03055B084FEA04
:1008600032024FF480104FF4002CB6EB020E75EB01
:10087000030E22BFB61A754640EA0C005B084FEA29
:100880003202B6EB020E75EB030E22BFB61A7546A6
:1008900040EA5C005B084FEA3202B6EB020E75EBF1
:1008A000030E22BFB61A754640EA9C005B084FEA69
:1008B0003202B6EB020E75EB030E22BFB61A754676
:1008C00040EADC0055EA060E18D04FEA051545EA65
:1008D00016754FEA06164FEAC30343EA52734FEA0E
:1008E000C2025FEA1C1CC0D111F4801F0BD141EA87
:1008F00000014FF000004FF0004CB6E711F4801FEC
:1009000004BF01430020B4F1FD0C88BFBCF5E06FCB
:100910003FF6AFAEB5EB030C04BFB6EB020C5FEADB
:10092000500C50F1000041EB045170BD0EF0004E30
:100930004EEA113114EB5C04C2BFD4EB0C0541EA62
:10094000045170BD41F480114FF0000E013C90E65F
:1009500045EA060E8DE60CEA135594EA0C0F08BF23
:1009600095EA0C0F3FF43BAF94EA0C0F0AD150EA22
:1009700001347FF434AF95EA0C0F7FF425AF1046B5
:1009800019462CE795EA0C0F06D152EA03353FF4DD
:10099000FDAE1046194622E750EA410618BF52EA5A
:1009A00043067FF4C5AE50EA41047FF40DAF52EA2E
:1009B00043057FF4EBAE12E74A0011D212F50012A4
:1009C00011D20DD56FF47873B3EB62520ED44FEAA7
:1009D000C12343F0004343EA505323FA02F0704727
:1009E0004FF00000704750EA013002D14FF0FF3065
:1009F00070474FF0000070474FEA4102B2F1E04308
:100A000024BFB3F5001CDCF1FE5C0DD901F0004CF5
:100A10004FEAC0024CEA5070B2F1004F40EB830045
:100A200008BF20F00100704711F0804F21D113F171
:100A30003872BCBF01F00040704741F480114FEAAA
:100A40005252C2F11802C2F1200C10FA0CF320FA33
:100A500002F018BF40F001004FEAC1234FEAD32350
:100A600003FA0CFC40EA0C0023FA02F34FEA4303BA
:100A7000CCE77FEA625307D150EA01331EBF4FF043
:100A8000FE4040F44000704701F0004040F0FE405E
:100A900040F40000704700BF80F0004002E000BF5B
:100AA00081F0004142001FBF5FEA410392EA030F59
:100AB0007FEA226C7FEA236C6AD04FEA1262D2EBA3
:100AC0001363C1BFD218414048404140B8BF5B42A8
:100AD000192B88BF704710F0004F40F4000020F041
:100AE0007F4018BF404211F0004F41F4000121F057
:100AF0007F4118BF494292EA030F3FD0A2F10102A1
:100B000041FA03FC10EB0C00C3F1200301FA03F1DE
:100B100000F0004302D5494260EB4000B0F5000F01
:100B200013D3B0F1807F06D340084FEA310102F1C0
:100B30000102FE2A51D2B1F1004F40EBC25008BF72
:100B400020F0010040EA03007047490040EB00003C
:100B500010F4000FA2F10102EDD1B0FA80FCACF16B
:100B6000080CB2EB0C0200FA0CF0AABF00EBC2506A
:100B700052421843BCBFD0401843704792F0000F58
:100B800081F4000106BF80F400000132013BB5E7AB
:100B90004FEA41037FEA226C18BF7FEA236C21D021
:100BA00092EA030F04D092F0000F08BF0846704786
:100BB00090EA010F1CBF0020704712F07F4F04D154
:100BC000400028BF40F00040704712F100723CBF67
:100BD00000F50000704700F0004343F0FE4040F491
:100BE000000070477FEA226216BF08467FEA23634F
:100BF0000146420206BF5FEA412390EA010F40F43A
:100C0000800070474FF0000304E000BF10F0004385
:100C100048BF40425FEA000C08BF704743F096436C
:100C200001464FF000001CE050EA010208BF704787
:100C30004FF000030AE000BF50EA010208BF70470E
:100C400011F0004302D5404261EB41015FEA010C23
:100C500002BF84460146002043F0B64308BFA3F11B
:100C60008053A3F50003BCFA8CF2083AA3EBC253FD
:100C700010DB01FA02FC634400FA02FCC2F120021C
:100C8000BCF1004F20FA02F243EB020008BF20F053
:100C90000100704702F1200201FA02FCC2F12002B9
:100CA00050EA4C0021FA02F243EB020008BF20EAAE
:100CB000DC7070474FF0FF0C1CEAD0521EBF1CEADC
:100CC000D15392EA0C0F93EA0C0F6FD01A4480EACA
:100CD000010C400218BF5FEA41211ED04FF00063B3
:100CE00043EA501043EA5111A0FB01310CF00040DF
:100CF000B1F5000F3EBF490041EAD3715B0040EA05
:100D0000010062F17F02FD2A1DD8B3F1004F40EBD4
:100D1000C25008BF20F00100704790F0000F0CF0A7
:100D2000004C08BF49024CEA502040EA51207F3A6B
:100D3000C2BFD2F1FF0340EAC250704740F4000046
:100D40004FF00003013A5DDC12F1190FDCBF00F037
:100D500000407047C2F10002410021FA02F1C2F1E5
:100D6000200200FA02FC5FEA310040F1000053EA81
:100D70004C0308BF20EADC70704792F0000F00F0CF
:100D8000004C02BF400010F4000F013AF9D040EAD5
:100D90000C0093F0000F01F0004C02BF490011F469
:100DA000000F013BF9D041EA0C018FE70CEAD15367
:100DB00092EA0C0F18BF93EA0C0F0AD030F0004CE7
:100DC00018BF31F0004CD8D180EA010000F000409B
:100DD000704790F0000F17BF90F0004F084691F059
:100DE000000F91F0004F14D092EA0C0F01D1420293
:100DF0000FD193EA0C0F03D14B0218BF084608D15C
:100E000080EA010000F0004040F0FE4040F40000A5
:100E1000704740F0FE4040F4400070474FF0FF0C38
:100E20001CEAD0521EBF1CEAD15392EA0C0F93EA7F
:100E30000C0F69D0A2EB030280EA010C49024FEAD1
:100E4000402037D04FF0805343EA111143EA10138A
:100E50000CF000408B4238BF5B0042F17D024FF442
:100E6000000C8B4224BF5B1A40EA0C00B3EB510F1D
:100E700024BFA3EB510340EA5C00B3EB910F24BF06
:100E8000A3EB910340EA9C00B3EBD10F24BFA3EB8B
:100E9000D10340EADC001B0118BF5FEA1C1CE0D153
:100EA000FD2A3FF650AF8B4240EBC25008BF20F006
:100EB000010070470CF0004C4CEA50207F32C2BF5A
:100EC000D2F1FF0340EAC250704740F400004FF0F7
:100ED0000003013A37E792F0000F00F0004C02BF28
:100EE000400010F4000F013AF9D040EA0C0093F0F2
:100EF000000F01F0004C02BF490011F4000F013B4C
:100F0000F9D041EA0C0195E70CEAD15392EA0C0FB3
:100F100008D142027FF47DAF93EA0C0F7FF470AFEB
:100F2000084676E793EA0C0F04D14B023FF44CAF2E
:100F300008466EE730F0004C18BF31F0004CCAD1C3
:100F400030F000427FF45CAF31F000437FF43CAFFF
:100F50005FE700BF324B82B01A6842F001001860B0
:100F60005968304A0A405A60186820F0847121F4A8
:100F700080321A60186820F4802119605A684FF492
:100F80001F0122F4FE00002258609960DA6200928C
:100F90000192186840F480311960214B1A6802F4FC
:100FA0000030019000994A1C0092019818B90099EC
:100FB000B1F5A06FF1D11B6813F4003218BF012204
:100FC00001920198012805D0174B4FF000629A60FA
:100FD00002B07047124B596859605A685A60586895
:100FE0005860596821F47C125A60586840F498118E
:100FF00059601A6842F0807018601968084A8901BF
:10100000FBD5536823F003005060516841F00203A0
:101010005360034A506800F00C010829F9D1D3E766
:10102000001002400000FFF800ED00E07047FEE70E
:10103000FEE7FEE7FEE77047704770477047000025
:10104000DFF83CD0002100F004B80E4B5B58435051
:1010500004310D480D4B42189A42FFF4F6AF0C4A8A
:1010600000F003B8002342F8043B0A4B9A42FFF415
:10107000F9AFFFF76FFF01F05FFB01F05DF870471C
:1010800000100020A42700080000002044000020D9
:101090004400002088000020FFF7FEBF10B50F4C71
:1010A0000F4B002220464FF480511A7001F05AFA7B
:1010B00020464FF4006101F055FA20464FF480615C
:1010C00001F050FA20464FF4007101F04DFA20462D
:1010D0004FF48071BDE8104001F046BA00080140AD
:1010E0007000002010B50F4C0F4B002220464FF42B
:1010F00080511A7001F038FA20464FF4006101F077
:1011000031FA20464FF4806101F02CFA20464FF46A
:10111000007101F029FA20464FF48071BDE81040BB
:1011200001F022BA000801407000002010B50F4CF9
:101130000F4B002220464FF480511A7001F014FA30
:1011400020464FF4006101F00FFA20464FF4806111
:1011500001F008FA20464FF4007101F005FA20462C
:101160004FF48071BDE8104001F0FEB90008014065
:101170007000002010B50F4C0F4B002220464FF49A
:1011800080511A7001F0F0F920464FF4006101F02F
:10119000EBF920464FF4806101F0E4F920464FF46A
:1011A000007101F0DFF920464FF48071BDE8104076
:1011B00001F0DAB9000801407000002010B50F4CB2
:1011C0000F4B002220464FF480511A7001F0CCF9E9
:1011D00020464FF4006101F0C7F920464FF48061CA
:1011E00001F0C0F920464FF4007101F0BBF9204630
:1011F0004FF48071BDE8104001F0B4B9000801401F
:101200007000002010B50F4C0F4B012220464FF408
:1012100080511A7001F0A8F920464FF4006101F0E6
:10122000A3F920464FF4806101F09EF920464FF467
:10123000007101F097F920464FF48071BDE810402D
:1012400001F090B900080140700000204FF080408C
:1012500010B5012101F063F8634B186800283DD1F7
:1012600062490A78002A39D0614C2378002B35D1A5
:101270006048022101F076F95E484FF4805101F098
:1012800071F95C484FF4804101F06CF95948202114
:1012900001F068F95748402101F064F955484FF4CE
:1012A000807101F05FF95348012101F05BF9514869
:1012B000042101F057F94F484FF4005101F052F961
:1012C0004C484FF4004101F04DF94A48802101F0AB
:1012D00049F948484FF4007101F044F94248464B3F
:1012E00001684A1C0260046819688C42044603DDE8
:1012F0004048022101F038F9404A206813689842BA
:1013000004DD3C484FF4805101F02EF9364C3C4846
:1013100021680268914204DD36484FF4804101F0B3
:1013200023F9384B21681868814203DD31482021B8
:1013300001F01AF92C4C344A21681368994203DDF4
:101340002C48402101F010F9304920680A68904289
:1013500004DD28484FF4807101F006F9224B2C4837
:101360001C6801688C421C4603DD2248012101F003
:10137000FBF8284B22681868824203DD1D480421CF
:1013800001F0F2F8184C244A21681368994204DDF0
:1013900018484FF4005101F0E7F8204920680A6826
:1013A000904204DD13484FF4004101F0DDF80E4B8C
:1013B0001B481C6801688C421C4603DD0D488021D7
:1013C00001F0D2F8174B22681868824204DD094800
:1013D0004FF4007101F0C8F803490A68B2F5FA6FDA
:1013E00001DB00230B6010BD6C00002064000020B6
:1013F00070000020000C0140180000201C0000209C
:10140000200000202C000020040000200C00002000
:101410000800002010000020140000200000002020
:1014200024000020280000202DE9F0411F4600F094
:1014300020039046DAB2069E079D089C0AB101235C
:101440000B6000F01002D3B213B10122C8F80020E3
:1014500000F00803DAB20AB101233B6000F0040295
:10146000D3B20BB10122326000F00203DAB20AB14A
:1014700001232B60C30701D5012020600A681C48A6
:10148000022112B101F06EF801E001F06DF8D8F818
:1014900000301748082113B101F064F801E001F0B1
:1014A00063F83A681248202112B101F05BF801E0BC
:1014B00001F05AF833680E48402113B101F052F898
:1014C00001E001F051F82A680948102112B101F039
:1014D00049F801E001F048F82368054804211BB1F0
:1014E000BDE8F04101F03EB8BDE8F04101F03CB884
:1014F0000008014003681C2B51D8DFE803F00F12ED
:101500001215181B1E2124272A2D30335036383A45
:101510003C3E40424446484A4C4C4E006FF0370136
:101520003EE06FF01B013BE06FF0170138E06FF019
:10153000130135E06FF0110132E06FF00F012FE081
:101540006FF00D012CE06FF00B0129E06FF0090145
:1015500026E06FF0070123E06FF0050120E06FF057
:1015600003011DE06FF001011AE0022118E00421DF
:1015700016E0062114E0082112E00A2110E00C21F7
:101580000EE00E210CE010210AE0122108E01421E7
:1015900006E0182104E01C2102E0382100E00021CF
:1015A0000160704730B5082087B00121294C00F058
:1015B0004FFF18204FF480638DF803000325204669
:1015C0006946ADF800308DF8025000F06DFF4FF421
:1015D00000614822ADF80010204669468DF80320CE
:1015E0008DF8025000F060FF01214FF4802000F0E0
:1015F0003BFFA4F5444400210C204FF41653ADF8F2
:101600001200ADF81010ADF80E10ADF80C10ADF8DA
:101610001410204602A9029300F0ACFD20460121DF
:1016200000F000FE0121102000F012FF01A800F0E0
:101630008BFF02204FF4005204238DF8060001A90D
:101640000548ADF804208DF8073000F02DFF07B0F5
:1016500030BD00BF000C0140001001401FB501204B
:10166000014600F001FF372204A90A20002321F8D7
:101670000C2DADF808004FF080401C46ADF80A3044
:10168000ADF8063000F0ECFD01214FF0804000F095
:1016900046FE01210A464FF0804000F037FE01214E
:1016A0004FF0804000F026FE1C21012368468DF893
:1016B00000108DF803308DF801408DF8024001F0E4
:1016C00007F81FBD08B5102000F060FF022000F0F1
:1016D00053FF002000F04AFE002000F05BFE4FF4B4
:1016E000806000F04DFE00204FF4401100F01CFE21
:1016F000012000F023FE392000F0C2FE0028FAD0BD
:10170000022000F021FE00F029FE0828FBD108BDD0
:101710002DE9F34101900198FEF7E8FE42A3D3E9D9
:101720000023FFF761F8FFF767F90546FEF7DEFED5
:101730003FA3D3E90023FEF72DFFFFF75DF9014634
:101740002846FFF7ADF9FEF7D1FE3BA3D3E900230E
:10175000FEF720FFFFF750F9044621462846FFF721
:101760009FF921468046FFF79BF921460746FFF780
:1017700097F921460646FFF793F94FF08741054652
:101780004046FFF797FAFEF7B1FE2DA3D3E90023F9
:10179000FFF72AF8FFF710F92B4B4FF0874118603D
:1017A0003846FFF787FAFEF7A1FE25A3D3E9002309
:1017B000FFF71AF8FFF700F9244908604FF0874156
:1017C0003046FFF777FAFEF791FE1DA3D3E9002319
:1017D000FFF70AF8FFF7F0F81D4A4FF08741106055
:1017E0002846FFF767FAFEF781FE15A3D3E9002329
:1017F000FEF7FAFFFFF7E0F8164B2146186028467F
:10180000FFF74EF94FF08741FFF754FAFEF76EFEEF
:101810000BA3D3E90023FEF7E7FFFFF7CDF80E494E
:101820000860BDE8FC8100BFCDCCCCCCCCCC104056
:10183000B81E85EB51B8E63F9A9999999999C93F95
:101840006666666666660A408400002074000020B2
:10185000780000207C00002080000020AFF3008092
:1018600007B50121042000F0F3FD01A800F06CFE93
:101870001020022141F67E738DF807008DF80610C6
:10188000034801A9ADF8043000F00EFE0EBD00BF04
:101890000008014007B50121082000F0D9FD01A88A
:1018A00000F052FE102002214FF2E7338DF80700BE
:1018B0008DF80610034801A9ADF8043000F0F4FDDE
:1018C0000EBD00BF000C014070B5264886B0FFF782
:1018D0001FFF0121042000F0BBFD684600F034FE2C
:1018E0000124002520486946ADF800408DF80350DA
:1018F00000F0DAFD21464FF4007000F0A9FD284603
:1019000000F052FD4FF46023184801A903938DF8AD
:101910000940049501958DF814408DF8085000F0A9
:1019200041FE124829462246022300F083FE0F485A
:10193000214600F05BFE0D48264600F060FE0B4895
:1019400000F062FE0028FAD1084800F061FE074866
:1019500000F063FE0128FAD00448012100F061FE86
:1019600006B070BD0000184100080140002401408D
:1019700082B00190019B41F2883253430193019858
:10198000411E01910028FAD102B0704738B50C4DC4
:101990000C4B7E210122002428461C6000F0E6FD4D
:1019A0004FF4FA70FFF7E4FF28467E21224600F04C
:1019B000DDFD4FF4FA70BDE83840FFF7D9BF00BF36
:1019C000000801406800002008B505484FF40051A8
:1019D00000F0C2FD18B9BDE80840FFF7D7BF08BD49
:1019E0000010014010B51D4B1D4C01221A6020460D
:1019F00000227E2100F0BAFD0221204600F0B2FD57
:101A0000C820FFF7B5FF0821204600F0ABFDC82035
:101A1000FFF7AEFF2021204600F0A4FDC820FFF70D
:101A2000A7FF4021204600F09DFDC820FFF7A0FF42
:101A30001021204600F096FDC820FFF799FF0421F1
:101A4000204600F08FFDC820FFF792FF20467E2140
:101A50000022BDE8104000F089BD00BF68000020F2
:101A60000008014008B507484FF4005100F074FD2C
:101A7000012803D1BDE80840FFF7B4BFBDE8084026
:101A8000FFF784BF0010014030B50F2AD4BF22EA0F
:101A9000E2720F228BB00023C2F10F020C465500F8
:101AA00004930593069307930893099307A908AA3B
:101AB00009AB00910192029304A905AA06ABFFF7B6
:101AC000B3FC14F1320F03DB502CA8BF502401E00B
:101AD0006FF031042846FFF74BFF049888B13A4B6A
:101AE00004F164011A681868914201DB013005E0D5
:101AF00004F16502824204DA1968481E1860002069
:101B000000E00120059B83B1304B04F165011A68A8
:101B100091421A6801DB013205E004F1660191424D
:101B200003DA1868421E1A600020069B83B1284B16
:101B3000C4F1AC011A6891421A6801DB013205E078
:101B4000C4F1AD01914203DA1868421E1A60002008
:101B5000079B83B11F4B04F163011A6891421A6815
:101B600001DB013205E004F16401914203DA1868F7
:101B7000421E1A600020089B83B1174BC4F1A901D3
:101B80001A6891421A6801DB013205E0C4F1AA012A
:101B9000914203DA1868421E1A600020099B83B143
:101BA0000E4BC4F1AB011A6891421A6801DB511C5B
:101BB00005E0C4F1AC04944203DA1868411E1960D0
:101BC00000200BB030BD00BF180000201C0000201A
:101BD000200000202C000020040000200C00002029
:101BE0002DE9F0430F2AD4BF22EAE2720F228BB014
:101BF000C2F10F020C461E4607A9002308AD4FEAAA
:101C0000420909AA0493059306930793089309933D
:101C100000910195029204A905AA06AB9DF84870AF
:101C20006542FFF701FC002E06DC012F00F08580E5
:101C300046B1022F09D190E0022F00F09180012FD0
:101C400003D182E0022F00F08B80A8462F46264663
:101C50004846FFF78DFE049888B1464B06F1950182
:101C60001A681868914201DB013005E006F196021E
:101C7000824204DA1968481E1860002000E0012042
:101C8000059B7BB13C4B05F195011A6891421A689E
:101C900001DB511C04E09635954203DA1868411EB9
:101CA00019600020069B7BB1344B06F195011A6840
:101CB00091421A6801DB511C04E09636964203DA21
:101CC0001868411E19600020079B83B12C4B07F157
:101CD00095011A6891421A6801DB013205E007F1AB
:101CE0009601914203DA1868421E1A600020089B90
:101CF00083B1244B08F195011A6891421A6801DBFF
:101D0000511C05E008F19608904503DA1868411E59
:101D100019600020099B4BB31B4B07F195011A6812
:101D200091421A6801DB511C04E0963797421DDA94
:101D30001868411E1960002018E0002C00DB764274
:101D4000361B2F46A046354682E7002C00DA764245
:101D5000371BC6EB04082E467AE7002C04DAF7E7B7
:101D6000002CECDBECD1EAE7F1DCF1E70BB0BDE8ED
:101D7000F08300BF080000201000002014000020A5
:101D800000000020240000202800002037B5062590
:101D9000012400210F222046FFF776FE01280FD1F3
:101DA000002100900F2220460B46FFF719FF012863
:101DB00006D16400013DE4B2EBD10E4805603EBDA2
:101DC00023210D222046FFF75FFE0128F8D10123D1
:101DD000002100930D2220460B46FFF701FF01284A
:101DE000F5D100210D222046FFF74EFE0128F8D143
:101DF000DFE700BF60000020F0B53E4F14463B68AF
:101E00000E28B4BF02460E220A2B85B00E4602DD14
:101E10003868102805DD0392FFF7B8FF0B21039AFD
:101E200039603B68334D0B2B07D12A201921FFF76E
:101E30002BFE01285BD10C210EE028680C280DD167
:101E4000012C0BD100943F206FF01B013346FFF7AC
:101E5000C7FE01284BD10D21296048E0254D296896
:101E60002B460C2905D1022C03D100943F201C21C4
:101E7000ECE718681F4D0D2807D12A200021FFF735
:101E800003FE012833D10E21E6E729680E2907D188
:101E900015201921FFF7F8FD012828D10F21DBE7D4
:101EA0002B680F2B05D1012C03D100943F201C215E
:101EB0000AE0104D286829460F280CD1022C0AD1BF
:101EC00000943F206FF01B013346FFF789FE012885
:101ED0000DD11021C0E70B68102B08D1152000216F
:101EE000FFF7D2FD012802D102480B22026005B0A3
:101EF000F0BD00BF600000202DE9FF4166482021B1
:101F000000F0A4F9002800F0C580634800F09AF9B9
:101F1000C0F38F1000286FD15F48202100F09CF99A
:101F20005D4800F08FF904465B48202100F08EF9EF
:101F30000028F9D0584800F085F9C0F38F13022B20
:101F400058D15548202100F087F9534800F07AF91C
:101F500007465148202100F079F90028F9D04E4871
:101F600000F070F9C0F38F12022A43D120214A48B1
:101F700000F072F9484800F065F90646464800F05E
:101F800061F980464448202100F060F90028F9D02A
:101F9000414800F057F9C0F38F1003282AD12021BF
:101FA0003D4800F059F93C4800F04CF93B4900F03D
:101FB000010539480D7000F045F908F01F08384A4E
:101FC0000023C0F3440504F03F044FEA48011360C6
:101FD0001E3900932A462046FFF702FE07F03F0312
:101FE00059003239C6F34016204689192A46FFF7B0
:101FF0004BFD4FE028484AE0274800F023F9C0F3A2
:102000008F110129F6D12448202100F025F922481A
:1020100000F018F9C0F383035A00054603921E48E6
:10202000202100F013F90028F9D01B4800F00AF92C
:10203000C0F38F100328184829D100F003F9174E78
:1020400000F001041448347000F0FCF8C0F34304BD
:102050001148039E00F0F6F8C0F34011761804A86A
:1020600040F8046DFFF746FA05F00302032A03D196
:102070002046FFF78BFE0DE012B12046039903E0E6
:10208000039939B120460122FFF7B6FE02E0202174
:1020900000F0E2F8BDE8FF81004800406400002045
:1020A0006000002007B51D4BD86CC0F307118DF8F8
:1020B00007101B489DF8071000F0C0F8194B9DF859
:1020C00007201868824202D2FFF79CF825E0164AE2
:1020D0009DF807101368994202D2FFF76FF81CE0D1
:1020E00012499DF807000A68904202D2FFF742F8B1
:1020F00013E00F4B9DF807001968884202D2FFF7E2
:1021000015F80AE00B489DF8072003689A4202D2AE
:10211000FEF7E8FF01E0FEF7C1FF0EBD002401401D
:1021200000480040800000207C0000207800002053
:10213000740000208400002008B5FFF7C3FAFFF701
:102140008FFBFFF7A7FBFFF7BFFBFFF787FAFFF750
:1021500029FAFFF7A7FFFFF785FC054B1868012850
:10216000F7D1FFF79FFFFFF7C7FEFFF72DFCF4E75E
:1021700068000020038A30B50D460446EA8898B20C
:1021800020F4405111432182A3892889A98823F48E
:10219000B05340EA0102688923F00C0102430804AD
:1021A000030C1A4391B2A181A08AAA8983B223F4B5
:1021B000407187B01143A18201A800F0FFF81848D0
:1021C000A38984420CBF0498039819B200294FF0E8
:1021D00019032A6803FB00F001DA510000E09100C6
:1021E000B0FBF1F16423B1FBF3F21201100903FB20
:1021F0001011A08900B2002806DAC9003231B1FB03
:10220000F3F303F0070005E009013231B1FBF3F30A
:1022100003F00F00024390B2208107B030BD00BF31
:1022200000380140838919B199B241F4005303E0A9
:1022300023F400510A04130C83817047C905CA0DA9
:10224000828070478088C105C80D70470388194295
:102250000CBF002001207047C9438AB2028070473A
:10226000224A038890429BB212D002F5006290424B
:102270000ED0B0F1804F0BD0A2F59832904207D02B
:1022800002F58062904203D002F58062904203D151
:102290004A8823F070031343154A904208D002F590
:1022A0008062904204D023F44073CA889BB21343E7
:1022B00003808B880A8883850C4B028598420FD057
:1022C00003F5006290420BD002F54063984207D0BC
:1022D00003F58062904203D002F58063984201D1F9
:1022E000097A018601228282704700BF002C0140DA
:1022F00000100040038819B199B241F0010303E0D6
:1023000023F001010A04130C0380704783899BB2F8
:102310000AB1194301E023EA010181817047C943F1
:102320008AB2028270470000034B5A6822F474128A
:10233000104301435960704700100240014B186080
:10234000704700BF60004242034B5A6822F003010D
:1023500008435860704700BF00100240024B5868A5
:1023600000F00C00704700BF00100240034B5A6899
:1023700022F0F00108435860704700BF001002408F
:10238000034B5A6822F4E06108435860704700BF6D
:1023900000100240034B5A6822F4605141EAC00029
:1023A0005860704700100240034B5A6822F44041C5
:1023B00008435860704700BF001002401F4B10B523
:1023C0005A6802F00C01042901D0082902D01C4CE3
:1023D000046011E05C685968C4F38342941CC9032B
:1023E00001D4184906E0DB6A03F00F01144B4A1CC4
:1023F000B3FBF2F14C430460104B13495A68C2F32B
:1024000003140C5D026822FA04F242605C68C4F3B3
:1024100002240C5D22FA04F484605C68C4F3C224D4
:10242000095D22FA01F2C2605B680849C3F3813397
:10243000CB5CB2FBF3F2026110BD00BF00100240A2
:1024400000127A0000093D00340000203000002016
:10245000044B9A6909B1104301E022EA0000986137
:10246000704700BF00100240044BDA6909B1104305
:1024700001E022EA0000D861704700BF001002406E
:102480004309012B074A01D1136803E0022B0CBF5B
:10249000136A536A00F01F0023FA00F101F00100F3
:1024A000704700BF00100240CB78F0B5DA0648BF95
:1024B0008A78098803F00F0548BF154311F0FF0F14
:1024C0001ED004680022012707FA02F707EA010676
:1024D000BE4211D197004FF00F0C0CFA07FC05FA21
:1024E00007F724EA0C04282B44EA070401D14661CB
:1024F00002E0482B08BF06610132082AE3D10460DC
:10250000FF2920D94468002202F10806012707FAB2
:1025100006F707EA0106BE4211D197004FF00F0CF3
:102520000CFA07FC05FA07F724EA0C04282B44EA06
:10253000070401D1466102E0482B08BF0661013261
:10254000082AE1D14460F0BD4FF6FF730221042256
:1025500003808170C2707047836819420CBF0020ED
:102560000120704701617047416170470AB1016104
:102570007047416170470000034B1A6802F0380150
:1025800008431860704700BF00200240044B1A68DF
:1025900022F0100119601A6810431860704700BFDC
:1025A00000200240426810B522F470230A6823F428
:1025B000807444EA02030C7943EA04224260CB6847
:1025C0008A6884681A43084B234013434A7943EAD4
:1025D00042038360097CC26A4B1E22F47002D9B2A6
:1025E00042EA0152C26210BDFDF7F1FF836811B1EA
:1025F00043F0010101E023F001018160704783682D
:1026000043F00801816070478068C0F3C0007047E4
:10261000836843F00401816070478068C0F38000E4
:102620007047836811B143F4A00101E023F4A001D5
:1026300081607047092970B54FF003040CD94C43F1
:1026400007251E3C05FA04F503FA04F3C66826EADA
:1026500005052B43C3600BE04C43072505FA04F541
:1026600003FA04F3066926EA050545EA0304046152
:10267000062A4FF005030DD8013A53431F2202FAF0
:1026800003F201FA03F1446B24EA020242EA010375
:10269000436370BD0C2A0DD853431F22233B02FA1B
:1026A00003F201FA03F1046B24EA020242EA010395
:1026B000036370BD53431F22413B02FA03F201FA48
:1026C00003F1C46A24EA02021143C16270BD000032
:1026D000C37810B503B3164CE168CB43C3F30224AF
:1026E0004178C4F1040201FA02F10F2222FA04F245
:1026F0008478037822400A43110103F16043CAB28F
:1027000003F5614181F800230078012200F01F03E6
:10271000410902FA03F007E00078012200F01F03EC
:10272000410902FA03F02031024B43F8210010BDA9
:1027300000ED00E000E100E038B50E4D0E4B002446
:10274000E81A8510AC4205D00B4951F82420904777
:102750000134F7E700F016F80849094A541AA510A1
:102760000024AC4205D0054B53F8240080470134C7
:10277000F7E738BD9C2700089C2700089C27000825
:10278000A0270008F8B500BFF8BC08BC9E467047FB
:0C279000F8B500BFF8BC08BC9E467047BE
:04279C00F50100083B
:0427A000D10100085B
:1027A40096000000AA00000096000000AC000000A3
:1027B400960000009600000065000000660000001E
:1027C400AD000000960000009600000064000000C8
:1027D40002040608000000000102030401020304CD
:0427E40006070809D3
:04000005080010419E
:00000001FF
